:020000040800F2
:10000000080E002035020008D1270008DD22000874
:10001000CD2700082B0400089D32000800000000D6
:10002000000000000000000000000000812900081E
:100030002F040008000000007F2900088329000821
:100040004F0200084F0200084F0200084F0200084C
:100050004F0200084F0200084F0200084F0200083C
:100060004F0200084F0200084F0200084F0200082C
:100070004F0200084F0200084F0200084F0200081C
:100080004F0200084F0200084F0200080000000065
:100090000000000000000000000000004F02000807
:1000A0004F020008552A00084F0200084F020008BE
:1000B0004F0200084F0200084F0200084F020008DC
:1000C0004F0200084F0200084F0200084F020008CC
:1000D0004F020008893200084F02000800000000AB
:1000E0004F0200084F0200084F0200080000000005
:1000F0000000000000000000000000004F020008A7
:10010000000000004F0200084F0200084F020008E4
:1001100000000000000000000000000000000000DF
:100120004F0200084F0200084F0200084F0200086B
:100130004F02000800000000000000000000000066
:100140000000000000000000000000004F02000856
:100150004F0200084F0200084F0200084F0200083B
:100160004F0200084F0200080000000000000000DD
:10017000000000000000000000000000000000007F
:10018000000000004F020008000000000000000016
:100190004F02000800F002F800F03CF80AA090E8D6
:1001A000000C82448344AAF10107DA4501D100F032
:1001B00031F8AFF2090EBAE80F0013F0010F18BFC3
:1001C000FB1A43F001031847284100004841000092
:1001D000103A24BF78C878C1FAD8520724BF30C873
:1001E00030C144BF04680C60704700000023002445
:1001F00000250026103A28BF78C1FBD8520728BF37
:1002000030C148BF0B6070471FB504F05FF81FBDD9
:1002100010B510BD00F0D4F81146FFF7F5FF03F05C
:10022000ABFB00F0F2F803B4FFF7F2FF03BC00F001
:10023000F5F800000948804709480047FEE7FEE757
:10024000FEE7FEE7FEE7FEE7FEE7FEE7FEE7FEE786
:1002500004480549054A064B70470000412A00083A
:100260009501000808080020080E0020080A002058
:10027000080A002053EA020C00F069802DE9F04BD7
:100280004FF00006002B1FBFB3FA83F503FA05F405
:1002900024FA05F65E4012BF1643B2FA82F502FA5E
:1002A00005F4C5F120051EBF22FA05FC44EA0C0442
:1002B000203556EA044C4FEA144418BF641C4FF032
:1002C00000084FF00009904271EB030C39D300296C
:1002D00019BFB1FA81F701FA07F6B0FA80F700FA10
:1002E00007F6C7F120071EBF20FA07FC46EA0C06F6
:1002F0002037B6FBF4FCA7EB0507103F07F01F0BF8
:10030000CBF120060CFA0BFB2CFA06F644BFB346E1
:100310000026202FA4BF5E464FF0000B5BEA060CC0
:1003200008BF4FF0010B19EB0B09ABFB027C48EB4C
:100330000608C01B06FB02CC0BFB03CC71EB0C01C7
:10034000C1E70B46024641464846BDE8F08B13B56F
:100350004FF000004FF00001AFF30080BDE81C40FB
:1003600070474FF0000200B5134694469646203978
:1003700022BFA0E80C50A0E80C50B1F12001BFF45E
:10038000F7AF090728BFA0E80C5048BF0CC05DF8C4
:1003900004EB890028BF40F8042B08BF704748BF12
:1003A00020F8022B11F0804F18BF00F8012B704786
:1003B000704770477047000000487047A80700204A
:1003C0007546FFF7F9FFAE4605006946534620F033
:1003D0000700854618B020B5FFF73AFFBDE820407A
:1003E0004FF000064FF000074FF000084FF0000BF1
:1003F00021F00701AC46ACE8C009ACE8C009ACE8A4
:10040000C009ACE8C0098D46704710B50446AFF38B
:1004100000802046BDE81040FFF705BF01491820C5
:10042000ABBEFEE726000200704700BFFEE7704744
:1004300072B600BFFEE770B50446A56D00F04AF93C
:10044000064694F83500022808D08020606500BF79
:10045000002084F8340000BF012070BD20680068CF
:1004600020F01600216808602068406920F08000B4
:1004700021684861206C08B9A06C28B12068006828
:1004800020F00800216808602068006820F0010062
:100490002168086010E000F01DF9801B05280BD9C9
:1004A00020206065032084F8350000BF002084F818
:1004B000340000BF0320D0E72068006800F001008E
:1004C0000028E8D194F85C103F208840A860012003
:1004D00084F8350000BF002084F8340000BF00BF5E
:1004E000BBE7014691F83500022803D0802048651B
:1004F00001207047052081F835000868006820F069
:1005000001000A6810600020F3E70000F8B5024619
:100510000B460025002400200021C6E0012606FA33
:1005200001F51E6806EA0504AC4274D11E7906F096
:100530000306012E04D01E7906F00306022E13D105
:1005400090684F000326BE40B0434F00DE68BE40B7
:1005500030439060506801268E40B0431E79C6F348
:1005600000168E40304350601E7906F00306032EBD
:1005700009D0D0684F000326BE40B0434F009E68AC
:10058000BE403043D0601E7906F00306022E13D120
:10059000CF0802F1200656F827004E07F70E0F2667
:1005A000BE40B0434F07FF0E1E69BE403043CF0828
:1005B00002F1200646F8270010684F000326BE40CF
:1005C000B0431E7906F003064F00BE403043106072
:1005D0005E6806F44036002E66D000BF0026009606
:1005E000344E366846F48046324F3E603E463668AA
:1005F00006F48046009600BF00BF2F4E8F0856F8C5
:1006000027008E07370F0F26BE40B0432B4EB24255
:1006100002D1002615E047E0294EB24201D1012661
:100620000FE0284EB24201D102260AE0264EB24225
:1006300001D1032605E0254EB24201D1042600E097
:1006400007268F073F0FBE4030431B4E8F0846F8EA
:1006500027001F4E3068A0435E6806F4803606B15E
:1006600020431B4E3060361D3068A0435E6806F4A0
:10067000003606B12043164E361D3060361D3068F8
:10068000A0435E6806F4801606B12043104E08367B
:100690003060361D3068A0435E6806F4001606B16F
:1006A00020430B4E0C363060491C1029FFF436AF46
:1006B000F8BD000044380240083801400000024004
:1006C0000004024000080240000C024000100240FA
:1006D000003C014001480068704700000000002015
:1006E00070B504460CB9012070BD94F83D0028B9DE
:1006F000002084F83C00204600F092F9242084F881
:100700003D002068006820F0010021680860206832
:10071000006840F40040216808602068006820F408
:1007200000402168086000F05DFB05465C49606898
:10073000884206D85B48854201D2012007E00020AC
:1007400005E05948854201D2012000E0002001283F
:1007500000D1C9E75548B5FBF0F62068406820F0A5
:100760003F003043216848604D496068884201D8A5
:10077000701C07E04FF4967070434FF47A71B0FB31
:10078000F1F0401C2168096A21F03F01084321680B
:10079000086243496068884214D8681E616849004D
:1007A000B0FBF1F0401CC0F30B00042801D2042080
:1007B0003DE0681E61684900B0FBF1F0401CC0F3E9
:1007C0000B0034E0A06838B9681E616801EB410194
:1007D000B0FBF1F0401C0AE0681E616801EBC10249
:1007E00002EB0111B0FBF1F0401C40F48040C0F37B
:1007F0000B0008B901201AE0A06848B9681E6168BA
:1008000001EB4101B0FBF1F0401CC0F30B000CE028
:10081000681E616801EBC10202EB0111B0FBF1F04F
:10082000401CC0F30B0040F4804040F400402168BD
:10083000C9694CF6FF72914308432168C861D4E945
:10084000070108432168096821F0C00108432168B5
:100850000860D4E9031008432168896848F2FF3230
:100860009143084321688860D4E905010843216861
:10087000C96821F0FF0108432168C860206800684A
:1008800040F001002168086000202064202084F8E6
:100890003D000020206384F83E0000BF24E70000F4
:1008A000A086010080841E0000093D0040420F0028
:1008B0002DE9F8430446894616461F46DDF8208098
:1008C000FFF708FF054694F83D0020287ED1192344
:1008D000012251492046009501F0B0FD10B10220DF
:1008E000BDE8F88300BF94F83C00012801D1022044
:1008F000F6E7012084F83C0000BF2068006800F0A3
:10090000010028B92068006840F0010021680860F3
:100910002068006820F4006021680860212084F8C5
:100920003D00102084F83E00002020646662678548
:10093000608D20853948E0622B4642464946204674
:1009400001F0EEFC08B10120CAE700BF00200090D2
:1009500020684069009020688069009000BF00BF57
:1009600044E02A464146204601F00DFE50B1206C7D
:10097000042805D12068006840F4007021680860F0
:100980000120ADE7606A007821680861606A401C58
:100990006062608D401E6085208D401E208520682D
:1009A0004069C0F3800070B1208D60B1606A00784A
:1009B00021680861606A401C6062608D401E60852D
:1009C000208D401E20852A46414600E022E0204638
:1009D00001F006FD50B1206C042805D120680068A4
:1009E00040F4007021680860012079E7208D00281C
:1009F000B7D12068006840F40070216808602020AA
:100A000084F83D00002084F83E0000BF84F83C00DC
:100A100000BF65E7022063E7020010000000FFFF4F
:100A200010B586B00446142101A8FFF79AFC1B49B3
:100A3000206888422FD100BF00200090184800682D
:100A400040F00200164908600846006800F0020005
:100A5000009000BF00BFC020019012200290002033
:100A60000390032004900420059001A90D48FFF78E
:100A70004DFD00BF0020009009481030006840F490
:100A800000100749103108600846006800F40010A3
:100A9000009000BF00BF06B010BD00000054004031
:100AA00030380240000402400348006803490978D6
:100AB0000844014908607047000000200800002039
:100AC00010B50D48006840F400700B4908600846F6
:100AD000006840F4806008600846006840F4807058
:100AE0000860032000F0A2F80F2000F007F800F0E3
:100AF0002BF8002010BD0000003C024070B50446F9
:100B00000E4800784FF47A71B1FBF0F00C49096897
:100B1000B1FBF0F5284600F02BFC08B1012070BDB8
:100B2000102C07D200222146501E00F041F8054843
:100B3000046001E00120F2E70020F0E70800002057
:100B40000C0000200400002008B500BF0020009029
:100B50000E48006840F480400C4908600846006870
:100B600000F48040009000BF00BF00BF0020009054
:100B7000081F006840F08050091F086008460068A0
:100B800000F08050009000BF00BF08BD4438024014
:100B900001460846002809DB00F01F0301229A40A5
:100BA00043099B0003F1E023C3F8002100BF704715
:100BB0002DE9F05F80460D461646002702F070FBD7
:100BC000074639462A46334601F00700C0F1070AB6
:100BD000BAF1040F02D94FF0040A01E0C0F1070A8C
:100BE000D14600F1040ABAF1070F02D24FF0000A11
:100BF00001E0A0F1030AD4464FF0010A0AFA09FA0B
:100C0000AAF1010A0AEA020A0AFA0CFA4FF0010BE9
:100C10000BFA0CFBABF1010B0BEA030B4AEA0B04DA
:100C20002146404602F044FBBDE8F09F00BF00F0C3
:100C30000702064B19684FF6FF031940044B0B439C
:100C400043EA0221014B196000BF70470CED00E040
:100C50000000FA0570B504460D460CB9012070BDC0
:100C60005848006800F00700A84209D255490D70A5
:100C70000846006800F00700A84201D00120EEE716
:100C8000207800F0020002281DD1207800F0040036
:100C9000042805D14C48006840F4E0504A490860F7
:100CA000207800F00800082805D14748006840F483
:100CB0006040454908604448006820F0F000A168A1
:100CC000084341490860207800F00100A8B360683B
:100CD000012807D13C4808380068C0F34040B8B943
:100CE0000120BCE76068022802D06068032807D1B1
:100CF000354808380068C0F3406048B90120AEE7C5
:100D0000314808380068C0F3400008B90120A6E760
:100D10002D48006820F00300616808432A490860F4
:100D2000FFF7D8FC064609E0FFF7D4FC801B41F230
:100D30008831884202D9032091E707E02248006801
:100D400000F00C006168B0EB810FEDD11D48006828
:100D500000F00700A84209D91A490D70084600683A
:100D600000F00700A84201D0012078E7207800F0C9
:100D70000400042807D11448006820F4E050E1681A
:100D8000084311490860207800F00800082808D1BD
:100D90000D48006820F46040216940EAC1000A491A
:100DA000086000F03FF808490968C1F30311074AD9
:100DB000515CC8400649086006480068FFF79EFE7F
:100DC00000204CE7003C024008380240D6420008B0
:100DD0000C0000200400002001480068704700005B
:100DE0000C00002000B5FFF7F7FF04490968C1F3C4
:100DF0008221034A515CC84000BD0000083802400F
:100E0000E642000800B5FFF7E7FF04490968C1F3AF
:100E10004231034A515CC84000BD0000083802401E
:100E2000E64200082DE9F047002400250026A146EF
:100E30002548006800F00C0020B1042805D00828DF
:100E40003AD105E0DFF8849039E0DFF8849036E0AD
:100E50001D48001F006800F03F041B48001F006889
:100E600000F4800078B11A481749091F0968C1F3D6
:100E70008811A0FB01700146224600233846FFF787
:100E8000F9F905460EE011480F49091F0968C1F339
:100E90008811A0FB01700146224600233846FFF767
:100EA000E9F905460848001F0068C0F30140401CEE
:100EB0004600B5FBF6F902E0DFF8109000BF00BF76
:100EC0004846BDE8F0870000083802400024F400DE
:100ED00040787D01F8B504460CB90120F8BD2078B2
:100EE00000F00100002874D0F948006800F00C0000
:100EF00004280DD0F648006800F00C00082813D133
:100F0000F348001F006800F48000B0F5800F0BD19B
:100F1000EF4808380068C0F34040002859D06068A6
:100F2000002856D10120D9E700BF6068B0F5803FA6
:100F300008D1E7480838006840F48030E4490839AF
:100F400008601EE06068B0F5A02F0DD1E0480838B9
:100F5000006840F48020DE490839086008460068CF
:100F600040F4803008600CE0D9480838006820F46C
:100F70008030D749083908600846006820F480208E
:100F8000086000BF606890B1FFF7A4FB054606E06B
:100F9000FFF7A0FB401B642801D903209EE7CC4843
:100FA00008380068C0F340400028F1D011E0FFF796
:100FB00091FB054606E0FFF78DFB401B642801D935
:100FC00003208BE7C24808380068C0F3404000287F
:100FD000F1D1207800F0020002285FD1BC480068FF
:100FE00000F00C0058B1BA48006800F00C00082866
:100FF0001CD1B748001F006800F48000B0B9B448A5
:1010000008380068C0F3400020B1E068012801D032
:10101000012063E7AE480838006820F0F800216935
:1010200040EAC100AA490839086037E0E06800B327
:101030000120A8490860FFF74DFB054606E0FFF7D1
:1010400049FB401B022801D9032047E7A048083884
:101050000068C0F340000028F1D09D4808380068BF
:1010600020F0F800216940EAC10099490839086078
:1010700014E0002097490860FFF72CFB054606E0C6
:10108000FFF728FB401B022801D9032026E79048E0
:1010900008380068C0F340000028F1D1207800F043
:1010A000080008282CD16069A8B101208A4908608D
:1010B000FFF710FB054606E0FFF70CFB401B02287C
:1010C00001D903200AE782486C300068C0F3400071
:1010D0000028F1D014E000207F490860FFF7FAFAF9
:1010E000054606E0FFF7F6FA401B022801D9032067
:1010F000F4E677486C300068C0F340000028F1D176
:10110000207800F00400042870D10027704838309F
:10111000006800F0805090B900BF002000906C483B
:101120003830006840F0805069493831086008461E
:10113000006800F08050009000BF00BF01276748A2
:10114000006800F48070B0B96448006840F48070B2
:1011500062490860FFF7BEFA054606E0FFF7BAFAF3
:10116000401B022801D90320B8E65C48006800F45F
:1011700080700028F2D000BFA068012808D1544830
:101180006830006840F001005149683108601DE096
:10119000A06805280DD14E486830006840F0040072
:1011A0004B49683108600846006840F0010008605B
:1011B0000CE047486830006820F00100444968317D
:1011C00008600846006820F00400086000BFA068BE
:1011D000A8B1FFF77FFA054609E0FFF77BFA401B4D
:1011E00041F28831884202D9032077E626E0384868
:1011F00068300068C0F340000028EED013E0FFF72D
:1012000069FA054608E0FFF765FA401B41F28831AC
:10121000884201D9032061E62D4868300068C0F398
:1012200040000028EFD1012F07D12948383000684D
:1012300020F0805026493831086000BFA06900289E
:1012400045D02348006800F00C0008285DD0A06954
:10125000022845D100201F490866FFF73BFA0546E2
:1012600006E0FFF737FA401B022801D9032035E6D4
:10127000174808380068C0F340600028F1D1D4E96D
:1012800007010843616A40EA81110122A06AC2EBAA
:10129000500041EA00412C20005D41EA00600C4909
:1012A000091F086001200B490866FFF713FA05467D
:1012B00006E0FFF70FFA401B022801D903200DE6D4
:1012C000034808380068C0F340600028F1D049E0C6
:1012D0000838024000004742800E4742007000403C
:1012E000002021490866FFF7F5F9054606E0FFF7FB
:1012F000F1F9401B022801D90320EFE51B480068E3
:10130000C0F340600028F2D12CE0A069012800D190
:10131000E4E51648001D0668A069012820D006F4FF
:101320008001E06981421BD106F03F01206A8142C1
:1013300016D147F6C0703040616AB0EB811F0FD103
:1013400006F440310122A06AC2EB5000B1EB004F1D
:1013500006D106F070612C20005DB1EB006F01D06A
:101360000120BBE50020B9E50000474200380240FB
:1013700070B504462546681EB0F1807F01D3012078
:101380000FE0681E4FF0E02148610F214FF0FF3061
:1013900001F08EFF00204FF0E021886107200861F6
:1013A000002070BD7047704730B502460B4600BF45
:1013B00092F83C00012801D1022030BD012082F8C2
:1013C0003C0000BF022082F83D00106844681068AD
:1013D000816824F070041868044310684460144D58
:1013E0001068A84213D01068B0F1804F0FD0114D93
:1013F0001068A8420BD0104D1068A84207D00F4DBE
:101400001068A84203D00E4D1068A84205D121F003
:1014100080015868014310688160012082F83D0016
:1014200000BF002082F83C0000BF00BFC5E70000FD
:10143000000001400004004000080040000C004093
:101440000040014010B504460CB9012010BD94F8CD
:101450003D0028B9002084F83C00204600F026F822
:10146000022084F83D00211D206801F0FFFA0120D0
:1014700084F8460000BF84F83E0001213F2001555A
:10148000402001554120015500BF00BF012084F8D4
:10149000420043200155442001554520015500BF1D
:1014A000012084F83D000020D0E7000038B5044654
:1014B00027492068884218D100BF002000902548A5
:1014C000006840F00100234908600846006800F009
:1014D0000100009000BF00BF002211461920FFF755
:1014E00067FB1920FFF754FB30E01B492068884256
:1014F00018D100BF002000901648006840F400306A
:10150000144908600846006800F40030009000BFED
:1015100000BF002211461920FFF74AFB1920FFF7F0
:1015200037FB13E00D49206888420FD100BF00202F
:1015300000900848006840F480200649086008468A
:10154000006800F48020009000BF00BF38BD00009C
:10155000000001404438024000440140004801407E
:10156000014691F83D00012801D00120704702207A
:1015700081F83D00164B0868984213D00868B0F116
:10158000804F0FD0134B086898420BD0124B08685D
:10159000984207D0114B0868984203D0104B086856
:1015A00098420CD10868806800F00702062A0CD027
:1015B0000868006840F001000B68186005E00868E2
:1015C000006840F001000B6818600020CEE70000C2
:1015D000000001400004004000080040000C0040F2
:1015E00000400140014691F83D00012801D0012052
:1015F0007047022081F83D000868C06840F0010093
:101600000B68D860164B0868984213D00868B0F190
:10161000804F0FD0134B086898420BD0124B0868CC
:10162000984207D0114B0868984203D0104B0868C5
:1016300098420CD10868806800F00702062A0CD096
:101640000868006840F001000B68186005E0086851
:10165000006840F001000B6818600020C8E7000037
:10166000000001400004004000080040000C004061
:10167000004001402DE9F04104460D46002700BF1F
:1016800094F83C00012802D10220BDE8F08101203D
:1016900084F83C0000BF022084F83D002068866882
:1016A00026F0770626F47F46206886602868502852
:1016B00033D00CDC202850D004DC00284BD010287C
:1016C00051D149E0302849D040284CD139E0602838
:1016D0002DD0702807D0B0F5805F03D0B0F5005F43
:1016E00041D10DE041E0D5E902136A68206801F0BC
:1016F00020FA2068866846F077062068866034E025
:10170000D5E902136A68206801F013FA206880683E
:1017100040F480402168886027E0EA6869682068B2
:1017200001F0D8FA5021206801F00EFA1DE0EA68B5
:101730006968206801F0E1FA6021206801F004FA8C
:1017400013E0EA686968206801F0C4FA4021206863
:1017500001F0FAF909E000BF00BF00BF2968206866
:1017600001F0F2F901E0012700BF00BF012084F879
:101770003D0000BF002084F83C0000BF384684E7ED
:10178000704710B5044620680069C0F34000D8B126
:101790002068C068C0F34000B0B16FF0020021685B
:1017A0000861012020772068806900F0030018B1EB
:1017B0002046FFF7E5FF05E0204600F0DDF8204673
:1017C00000F091F90020207720680069C0F38000C4
:1017D000D8B12068C068C0F38000B0B16FF00400D9
:1017E00021680861022020772068806900F4407039
:1017F00018B12046FFF7C4FF05E0204600F0BCF812
:10180000204600F070F90020207720680069C0F3BE
:10181000C000D8B12068C068C0F3C000B0B16FF09C
:10182000080021680861042020772068C06900F062
:10183000030018B12046FFF7A3FF05E0204600F0A3
:101840009BF8204600F04FF90020207720680069BF
:10185000C0F30010D8B12068C068C0F30010B0B168
:101860006FF0100021680861082020772068C069A7
:1018700000F4407018B12046FFF782FF05E02046D3
:1018800000F07AF8204600F02EF90020207720683A
:10189000006900F0010058B12068C06800F0010044
:1018A00030B16FF0010021680861204600F092F924
:1018B00020680069C0F3C01058B12068C068C0F348
:1018C000C01030B16FF08000216808612046FFF73A
:1018D00069FD20680069C0F3801058B12068C068B5
:1018E000C0F3801030B16FF04000216808612046DD
:1018F00000F04AFA20680069C0F3401058B120682F
:10190000C068C0F3401030B16FF02000216808615A
:101910002046FFF748FD10BD10B586B004461421DF
:1019200001A8FEF71EFD1149206888421CD100BFA6
:10193000002000900E48006840F002000C4908604A
:101940000846006800F00200009000BF00BF881544
:101950000190022002900020039004900320059043
:1019600001A90448FEF7D2FD06B010BD00440140B5
:10197000303802400004024070472DE9F04104462F
:101980000D461646002700BF94F83C00012802D1FE
:101990000220BDE8F081012084F83C0000BF36B190
:1019A000042E1BD0082E31D00C2E5ED145E02946E6
:1019B000206801F0D3F82068806940F008002168B1
:1019C00088612068806920F00400216888612068AF
:1019D0008069296908432168886148E029462068B0
:1019E00001F0ECF82068806940F4006021688861AB
:1019F0002068806920F4806021688861206880699F
:101A0000296940EA01202168886130E02946206880
:101A100001F008F92068C06940F008002168C86139
:101A20002068C06920F004002168C8612068C0698E
:101A3000296908432168C86119E02946206801F036
:101A400025F92068C06940F400602168C8612068F9
:101A5000C06920F480602168C8612068C069296974
:101A600040EA01202168C86101E0012700BF00BFF2
:101A700000BF002084F83C0000BF384689E710B55D
:101A800004460CB9012010BD94F83D0028B900208F
:101A900084F83C00204600F025F8022084F83D0040
:101AA000211D206800F0E2FF012084F8460000BFFD
:101AB00084F83E0001213F2001554020015541207E
:101AC000015500BF00BF012084F8420043200155AA
:101AD000442001554520015500BF012084F83D00F8
:101AE0000020D0E77047704770B504460D4615B921
:101AF00094F83E000BE0042D02D13F20005D06E08B
:101B0000082D02D14020005D01E04120005D012848
:101B100001D0012070BD1DB9022084F83E000EE006
:101B2000042D03D102213F20015508E0082D03D1E7
:101B300002214020015502E00221412001550122ED
:101B40002946206800F0E4FF1D492068884201D141
:101B5000012000E0002028B12068406C40F40040E3
:101B60002168486416492068884213D02068B0F183
:101B7000804F0FD01349206888420BD0124920684B
:101B8000884207D011492068884203D01049206854
:101B900088420CD12068806800F00706062E0CD021
:101BA0002068006840F001002168086005E02068B6
:101BB000006840F00100216808600020AAE70000EA
:101BC000000001400004004000080040000C0040FC
:101BD0000040014010B52DED088B04465A48844260
:101BE0007BD15A480088401C584908800846008824
:101BF0004FF47A7190FBF1F201FB12005349088017
:101C0000084600880A2190FBF1F201FB120001282E
:101C100050D101F00DFF4E48008802F05CF941EC14
:101C20001B0B9FED4C0B53EC102B01F0CFFF41EC45
:101C30001A0B9FED4A0B53EC102B02F05FF941ECAD
:101C4000190B9FED480B53EC102B02F055FA41ECA9
:101C5000180B02F013F9454908800846008802F085
:101C60003AF941EC190B9FED420B53EC102B02F0AB
:101C700045F941EC180B02F001F9C0B23E493B4A6C
:101C8000128821F820203948008802F024F941EC1C
:101C9000190B9FED370B53EC102B02F02FF941EC91
:101CA000180B02F0EBF8C0B2334901EB8000334966
:101CB0000988418025480088322190FBF1F201FB20
:101CC0001200012832D12E480078012806D1204880
:101CD00000880A301E49088005E032E01C48008870
:101CE0000A381B4908801A480088B0F5FA7F09DCD9
:101CF0004FF4FA70164908802148007801F090FEF0
:101D00001F4908701248008840F6C411884208DB59
:101D100008460F4908801A48007801F081FE1849EA
:101D200008700B480088174909684863074800880D
:101D3000C82190FBF1F201FB1200012801D100F053
:101D4000EDFDBDEC088B10BD7000002010000020E0
:101D500012000020000000000088D34000000000B6
:101D600000209C4000000000008046401800002039
:101D7000721CC7711CC7E13F180600201A00002022
:101D800014000020B8000020704770477047000022
:101D90002DE9F84F0446206805682068C668206869
:101DA00047694FF00009CA4605F00F09B9F1000F65
:101DB0000AD105F0200038B106F0200020B12046FD
:101DC00001F034F8BDE8F88FB9F1000F7CD007F0CE
:101DD000010018B906F49070002875D005F00100D4
:101DE00030B106F4807018B1206C40F0010020641E
:101DF00005F0040030B107F0010018B1206C40F08C
:101E00000200206405F0020030B107F0010018B1B3
:101E1000206C40F00400206405F0080048B106F092
:101E2000200010B907F0010018B1206C40F0080044
:101E30002064206C002846D005F0200028B106F070
:101E4000200010B1204600F0F1FF20684069C0F387
:101E5000801A206C00F0080010B9BAF1000F2DD0E4
:101E6000204600F068FF2068406900F040004028EC
:101E700020D100BF00BF2168143151E8001F21F0BC
:101E800040002168143141E80002002AF3D100BF6C
:101E9000A06B50B17548A16B0865A06BFEF721FBE4
:101EA00088B1A06B016D88470DE02046FFF76EFFFB
:101EB00009E009E02046FFF769FF04E02046FFF74C
:101EC00065FF002020647DE7206B012876D105F0B6
:101ED0001000002872D006F010000028FAD000BFD1
:101EE0000020009020680068009020684068009002
:101EF00000BF00BF2068406900F0400040285ED16C
:101F0000A06B006840681FFA80F8B8F1000F54D049
:101F1000A08D404551DDA4F82E80A06BC069B0F5BE
:101F2000807F43D000BF00BF21680C3151E8001F03
:101F300021F4807021680C3141E80002002AF3D1BD
:101F400000BF00BF00BF2168143151E8001F21F01D
:101F500001002168143141E80002002AF3D100BFDA
:101F600000BF00BF2168143151E8001F21F040007C
:101F70002168143141E80002002AF3D100BF20207B
:101F800084F83E000020206300BF00BF21680C31B0
:101F900051E8001F21F0100021680C3141E80002D7
:101FA000002AF3D100BFA06BFEF745FAA08DE28DA9
:101FB000801A81B22046FFF7E8FE03E740E0A08DDB
:101FC000E18D401A1FFA80F8E08DC0B3B8F1000F20
:101FD00035D000BF00BF21680C3151E8001F21F44B
:101FE000907021680C3141E80002002AF3D100BF53
:101FF00000BF00BF2168143151E8001F21F001002B
:102000002168143141E80002002AF3D100BF2020EA
:1020100084F83E000020206300BF00BF21680C311F
:1020200051E8001F21F0100021680C3141E8000246
:10203000002AF3D100BF41462046FFF7A6FEC1E6C5
:1020400005F0800030B106F0800018B1204601F0A4
:10205000A2F8B7E605F0400030B106F0400018B134
:10206000204600F09EFEADE600BFABE6232D000843
:1020700010B504460CB9012010BDA06900B100E004
:1020800000BF94F83D0028B9002084F83C002046A9
:1020900000F028F8242084F83D002068C06820F46F
:1020A00000502168C860204600F03CFF20680069AD
:1020B00020F49040216808612068406920F02A00DF
:1020C000216848612068C06840F400502168C860F9
:1020D00000202064202084F83D0084F83E00002089
:1020E000CAE7000010B586B00446142101A8FEF727
:1020F00038F91F492068884238D100BF002000907D
:102100001C48006840F010001A4908600846006842
:1021100000F01000009000BF00BF00BF0020009042
:1021200014481438006840F001001249143908605E
:102130000846006800F00100009000BF00BF4FF4A7
:10214000C0600190022002900020039003200490C0
:102150000720059001A90848FEF7D8F9002211468A
:102160002520FEF725FD2520FEF712FD06B010BD47
:1021700000100140443802400000024070B504469F
:102180000D46164694F83E00202816D105B10EB92A
:10219000012070BD00BF94F83C00012801D102204D
:1021A000F7E7012084F83C0000BF0020206332469E
:1021B0002946204600F0CCFFEBE70220E9E70000CB
:1021C00010B504460C48844215D10C4800780C49DF
:1021D0000C4A127888540B480078401C0949087052
:1021E000084600780B2801D100200870012203491D
:1021F0000148FFF7C3FF10BD480100201500002073
:102200000C060020160000202DE9F84F04460E466B
:10221000174699464FF0000A94F83D0020285AD1FD
:1022200006B117B90120BDE8F88F00BF94F83C0053
:10223000012801D10220F6E7012084F83C0000BF0C
:1022400000202064212084F83D00FEF743FA8246F6
:10225000A784E784A068B0F5805F04D1206910B935
:102260000025B04602E035464FF0000800BF0020D0
:1022700084F83C0000BF1BE053460022802120462A
:10228000CDF8009000F0B7FF08B10320CBE745B9C7
:10229000B8F80000C0F308002168486008F102089F
:1022A00003E02878216848606D1CE08C401EE084C3
:1022B000E08C0028E0D15346002240212046CDF892
:1022C000009000F098FF08B10320ACE7202084F8CC
:1022D0003D000020A7E70220A5E7704700BFFEE70A
:1022E000014608684069C0F38020B0B16FF4806097
:1022F0000A68506100200863202081F83D0000201A
:1023000081F83E00086C40F00400086400BF002023
:1023100081F83C0000BF012070470020FCE700006E
:102320002DE9F84304460D4617469846E66A082EFE
:1023300004D0012E02D016F5803F06D12068006837
:1023400040F480702168086008E0206B122805D1F5
:102350002068006840F48070216808603B460022D5
:102360004FF001112046CDF8008000F067F860B111
:102370002068006800F48070B0F5807F02D14FF4CF
:10238000007020640320BDE8F8832069B0F5804F19
:1023900004D105F0FE002168086112E005F44070E8
:1023A000F02141EAE0102168086143463A460B49B2
:1023B000204600F086F808B10120E4E7E8B2216881
:1023C000086143463A460549891F204600F079F8DE
:1023D00008B10120D7E70020D5E700000800010080
:1023E00070B504460D46164620E02046FFF778FFFC
:1023F00008B1012070BD681CC0B1FEF76BF9801BED
:10240000A84200D895B900202063202084F83D0020
:10241000002084F83E00206C40F02000206400BFC3
:10242000002084F83C0000BF0120E3E720684069F9
:10243000C0F380000028D8D00020DBE72DE9F04170
:1024400004460D4617461E46DDF818801CE0701C39
:10245000D0B1FEF73FF9A0EB0800B04200D89EB91A
:1024600000202063202084F83D00002084F83E00F6
:10247000206C40F02000206400BF002084F83C0065
:1024800000BF0120BDE8F081C5F3074001280AD153
:1024900020684069A9B20840A9B2884201D1012050
:1024A0000BE0002009E020688069A9B20840A9B2C9
:1024B000884201D1012000E00020B842C7D00020AE
:1024C000E0E72DE9F04104460D4616461F463DE083
:1024D00020684069C0F38020E8B12068006840F4BB
:1024E0000070216808606FF48060216848610020F6
:1024F0002063202084F83D00002084F83E00206CFA
:1025000040F00400206400BF002084F83C0000BFBD
:102510000120BDE8F081701CC0B1FEF7DBF8C01BE4
:10252000B04200D896B900202063202084F83D00F6
:10253000002084F83E00206C40F02000206400BFA2
:10254000002084F83C0000BF0120E2E7C5F307400B
:1025500001280AD120684069A9B20840A9B288427E
:1025600001D101200BE0002009E020688069A9B2B8
:102570000840A9B2884201D1012000E000200028D3
:10258000A6D00020C5E770B504460D46164620E0EB
:102590002046FFF7A5FE08B1012070BD681CC0B140
:1025A000FEF798F8801BA84200D895B90020206358
:1025B000202084F83D00002084F83E00206C40F08C
:1025C0002000206400BF002084F83C0000BF0120F0
:1025D000E3E720684069C0F3C0100028D8D000208D
:1025E000DBE7000008B500BF002000901548006838
:1025F00040F08000134908600846006800F0800041
:10260000009000BF00BF00BF002000900846006897
:1026100040F0010008600846006800F001000090EA
:1026200000BF00BF00BF002000900846006840F0D7
:10263000020008600846006800F00200009000BF39
:1026400000BF08BD3038024010B50B480B49086088
:102650000B484860002109488160C1604FF4804107
:102660000161002141618161C1610162FEF738F8B9
:1026700008B1FDF7DDFE10BD005400401C00002035
:10268000801A060000B587B01C216846FDF769FE78
:102690001548164908604A204860002113488160A7
:1026A00044F61F61C160002101618161FEF7CAFE2D
:1026B00008B1FDF7BDFE0D48FFF7E1F908B1FDF7E0
:1026C000B7FE60200090002001900290049000224C
:1026D00069460648FFF751F908B1FDF7A9FE03481E
:1026E000FFF71AF907B000BD00440140B800002010
:1026F00010B50A480A4908604A2048600021084885
:1027000081604FF6FE71C160002101618161FEF7B9
:1027100099FE08B1FDF78CFE10BD00000048014095
:102720000001002000B587B00020039004900590C0
:102730000690019002901548154908604A204860AB
:1027400000211348816040F2E731C160002101613E
:1027500041618161FEF776FE08B1FDF769FE4FF435
:102760008050039003A90A48FEF784FF08B1FDF7E3
:102770005FFE00200190029001A90548FEF714FEBB
:1027800008B1FDF755FE07B000BD00000000014094
:102790007000002010B50B480B4908604FF4E13081
:1027A0004860002108488160C16001610C214161DD
:1027B00000218161C161FFF75BFC08B1FDF738FEC4
:1027C00010BD0000001001404801002000BFFEE7DE
:1027D00000BFFEE770B513467F2801DC3F2900DD0E
:1027E00070BD0D46CE1701EB5676C6F3C702CE1765
:1027F00001EB5676F610A1EBC606F4B2012B0BD115
:102800000C4D05EBC005AD5C0126A6403543094ED5
:1028100006EBC006B5540BE053B9064D05EBC005F9
:10282000AD5C0126A640B543024E06EBC006B5548A
:1028300000BFD5E78C01002010B5AE21002001F0CB
:10284000D5F82021002001F0D1F80221002001F06C
:10285000CDF80021084601F0C9F81021002001F050
:10286000C5F8B021002001F0C1F8A821002001F036
:10287000BDF83F21002001F0B9F8D321002001F07C
:10288000B5F80021084601F0B1F84021002001F020
:10289000ADF8A121002001F0A9F8C821002001F025
:1028A000A5F8DA21002001F0A1F81221002001F0A2
:1028B0009DF88121002001F099F8FF21002001F00E
:1028C00095F8A421002001F091F8A621002001F044
:1028D0008DF8D521002001F089F8F021002001F0C9
:1028E00085F8D921002001F081F82221002001F093
:1028F0007DF8DB21002001F079F82021002001F093
:1029000075F88D21002001F071F81421002001F0EC
:102910006DF8AF21002001F069F810BD70B50024FA
:1029200012E02146002000F015F8002508E00848D4
:1029300000EBC500015D012001F058F8681CC5B22C
:10294000802DF4DB601CC4B2082CEADB70BD0000F3
:102950008C01002070B504460D4605F1B000C1B2EF
:10296000002001F043F8102040EA1411002001F08B
:102970003DF804F00F01002001F038F870BD7047F9
:10298000704710B5FEF790F810BD000000B593B089
:10299000302107A8FDF7E5FC142102A8FDF7E1FCB2
:1029A00000BF002001902448006840F08050224978
:1029B00008600846006800F08050019000BF00BF2A
:1029C00000BF002001901D48006820F4404040F402
:1029D00000401A4908600846006800F44040019031
:1029E00000BF00BF012007900004089002200D9056
:1029F00041050E9110210F91C021109104211191D8
:102A0000129107A8FEF766FA08B1FDF711FD0F2035
:102A1000029002200390002004904FF48050059013
:102A200000200690022102A8FEF714F908B1FDF774
:102A3000FFFC13B000BD00004038024000700040B1
:102A40000348006840F470000149086070470000C6
:102A500088ED00E010B50348FEF793FE0248FEF74C
:102A600090FE10BD70000020B800002010B5026874
:102A7000204B98420BD0B0F1804F08D01E4B9842AB
:102A800005D01E4B984202D01D4B984203D122F034
:102A900070024B681A43174B984214D0B0F1804F24
:102AA00011D0154B98420ED0144B98420BD0144BBA
:102AB000984208D0134B984205D0134B984202D04D
:102AC000124B984203D122F44072CB681A4322F091
:102AD00080034C6943EA040202608B68C3620B689E
:102AE0008362044B984201D10B6903630123436164
:102AF00010BD00000000014000040040000800403C
:102B0000000C0040004001400044014000480140EA
:102B100030B501F01F05012404FA05F3046A9C4353
:102B20000462046A01F01F0502FA05F52C430462F1
:102B300030BD30B50C46816821F47F4142EA03255F
:102B400025432943816030BD0A46816821F0700128
:102B500042F00703194381607047000030B5056AF1
:102B600025F001050562026A4368846924F0700457
:102B700024F003040D682C4322F002028D682A43DE
:102B80000D4DA84206D100BF22F00802CD682A43AD
:102B900022F00402084DA84207D123F4807323F4E5
:102BA00000734D692B438D692B43436084614D68ED
:102BB0004563026230BD00000000014030B5056A87
:102BC00025F010050562026A4368846924F4E04434
:102BD00024F440740D6844EA052422F020028D6834
:102BE00042EA05120E4DA84207D100BF22F0800232
:102BF000CD6842EA051222F04002094DA84209D1EF
:102C000023F4806323F400634D6943EA85038D69EF
:102C100043EA8503436084614D688563026230BD89
:102C20000000014030B5056A25F480750562026A2E
:102C30004368C46924F0700424F003040D682C4335
:102C400022F400728D6842EA05220F4DA84207D196
:102C500000BF22F40062CD6842EA052222F48062BD
:102C6000094DA84209D123F4805323F400534D6940
:102C700043EA05138D6943EA05134360C4614D6857
:102C8000C563026230BD00000000014030B5056A36
:102C900025F480550562036A4468C26922F4E04263
:102CA00022F440720D6842EA052223F400538D6835
:102CB00043EA0533064DA84204D124F480444D690B
:102CC00044EA85144460C2614D680564036230BD06
:102CD0000000014030B50B461446026A056A25F033
:102CE00001050562816921F0F00141EA041122F039
:102CF0000A021A438161026230BD30B50B461446A8
:102D0000056A25F0100505628169026A21F47041A7
:102D100041EA043122F0A00242EA03128161026218
:102D200030BD70B50546AC6B0020E085E0842046E0
:102D3000FFF72CF870BD00BF00BF02680C3252E8EC
:102D4000002F22F4907102680C3242E80013002B2D
:102D5000F3D100BF00BF00BF0268143252E8002F59
:102D600022F001010268143242E80013002BF3D173
:102D700000BF016B01290ED100BF00BF02680C32F9
:102D800052E8002F22F0100102680C3242E80013D2
:102D9000002BF3D100BF202180F83E1000210163F9
:102DA000704710B504462068C06820F040002168D4
:102DB000C860202084F83D002046FFF78EFA0020EE
:102DC00010BD000008B501461448814225D10068B5
:102DD0000068C0F3001000B300BF002000900F484F
:102DE0000068006800900D4800684068009000BFCF
:102DF00000BF0B48407A0A4A127A40EA0220094A88
:102E000010800020084A107000BF04E00022044B2C
:102E10001A54421CD0B20B28F8DB08BD4801002030
:102E20000C0600201A00002016000020F8B5044609
:102E300094F83E00222873D1A068B0F5805F0CD1D1
:102E4000206950B90025A66A20684068C0F30800D0
:102E50003080A06A801CA06215E0A56A0026A068E8
:102E6000B0F5805F03D0A06828B9206918B9206840
:102E70004068287004E02068406800F07F002870F7
:102E8000A06A401CA062E08D401E80B2E085002850
:102E900044D12068C06820F020002168C860206804
:102EA000C06820F480702168C8602068406920F004
:102EB000010021684861202084F83E00206B012831
:102EC00026D10020206300BF00BF21680C3151E8EB
:102ED000001F21F0100021680C3141E80002002A97
:102EE000F3D100BF2068006800F0100010280AD15C
:102EF00000BF0020009020680068009020684068B3
:102F0000009000BF00BFA18D2046FEF73EFF02E00B
:102F10002046FFF755F90020F8BD01E00020FBE74F
:102F20000220F9E72DE9F84F04462068006920F4F3
:102F30004050E1680843216808612169A06808439E
:102F400061690843E169084300902068C06849F25C
:102F50000C618843009908432168C8602068406973
:102F600020F44070A16908432168486176492068CF
:102F7000884203D075492068884203D1FDF742FF9B
:102F8000814602E0FDF72EFF8146E069B0F5004F73
:102F90006CD102206168A0FB015003461920A9FBF7
:102FA000007001462A463846FDF764F96421B0FBFB
:102FB000F1F04FEA001A02206168A0FB01510B46B4
:102FC0001920A9FB00712A463846FDF753F98346BC
:102FD00002206168A0FB015003461920A9FB007183
:102FE0002A463846FDF746F96421B0FBF1F000EBC4
:102FF000C00101EB0010ABEB8000322101EBC000FF
:103000006421B0FBF1F000F0F8000AEB400A022066
:103010006168A0FB015003461920A9FB007001461E
:103020002A463846FDF726F9834602206168A0FB50
:10303000015003461920A9FB00712A463846FDF7C6
:1030400019F96421B0FBF1F000EBC00101EB0010B5
:10305000ABEB8000322101EBC0006421B0FBF1F04A
:1030600000F007005044216888606AE0042061682D
:10307000A0FB015003461920A9FB007001462A4617
:103080003846FDF7F7F8824604206168A0FB01503E
:1030900003461920A9FB007001462A463846FDF771
:1030A000E9F86421B0FBF1F000EBC00101EB001086
:1030B000AAEB8000322101EB00106421B0FBF1F09B
:1030C00000F0F00A04206168A0FB0170034619209B
:1030D000A9FB00513A462846FDF7CCF86421B0FB25
:1030E000F1F00AEB001A04206168A0FB01510B46C5
:1030F0001920A9FB00712A463846FDF7BBF8834624
:1031000004206168A0FB015003461920A9FB007050
:1031100001462A463846FDF7ADF86421B0FBF1F0D0
:1031200000EBC00101EB0010ABEB8000322101EBA2
:1031300000106421B0FBF1F000F00F005044216852
:103140008860BDE8F88F00000010014000140140C5
:1031500010B5034699629A85DA850020186422200A
:1031600083F83E0000BF002083F83C0000BF1868D1
:10317000C06840F480701C68E0601868406940F0E6
:1031800001001C6860611868C06840F020001C687D
:10319000E060002010BD014691F83D00212828D1B3
:1031A0008868B0F5805F0BD1086948B90A6A108851
:1031B000C0F308000B685860086A801C086205E0CC
:1031C0000B6A581C086218780B685860C88C401E3F
:1031D00080B2C88458B90868C06820F080000B68C5
:1031E000D8600868C06840F040000B68D8600020D4
:1031F00070470220FCE72DE9F04104460D461746D2
:103200009846069E34E0701C88B32EB1FDF762FA32
:10321000A0EB0800B0422BD900BF00BF21680C31E1
:1032200051E8001F21F4D07021680C3141E8000200
:10323000002AF3D100BF00BF00BF2168143151E85C
:10324000001F21F001002168143141E80002002A2A
:10325000F3D100BF202084F83D0084F83E0000BF79
:10326000002084F83C0000BF0320BDE8F081FFE7A8
:10327000206800682840A84201D1012000E0002019
:10328000B842C0D00020F0E710B50348FEF780FD3B
:103290000148FFF797FD10BD4801002000BFFEE781
:1032A00002480068C0F30220704700000CED00E007
:1032B00010B5002804DB0A07130E054A135406E074
:1032C0000A07140E034A00F00F031B1FD45410BD4D
:1032D00000E400E018ED00E010B501223B210020E1
:1032E000FFF778FA01223C210020FFF773FA012250
:1032F0003D210020FFF76EFA01223E210020FFF75A
:1033000069FA01223F210020FFF764FA01223421EB
:103310001046FFF75FFA012235211046FFF75AFAEF
:10332000012236211046FFF755FA012230210220F2
:10333000FFF750FA012231210220FFF74BFA012258
:103340002C210320FFF746FA01222D210320FFF74D
:1033500041FA01222A210420FFF73CFA0122272109
:103360000520FFF737FA012225210620FFF732FA60
:10337000012223210720FFF72DFA01222121082015
:10338000FFF728FA01221F210920FFF723FA012263
:103390001E210A20FFF71EFA01221C210B20FFF735
:1033A00019FA01221B210C20FFF714FA012219211E
:1033B0000D20FFF70FFA012218210E20FFF70AFA5D
:1033C000012217210F20FFF705FA012216211020F4
:1033D000FFF700FA012210211620FFF7FBF9012266
:1033E0000F211720FFF7F6F901220E211820FFF711
:1033F000F1F901220D211920FFF7ECF901220C212E
:103400001B20FFF7E7F901220B211C20FFF7E2F94F
:1034100001220A211E20FFF7DDF9012209211F20C8
:10342000FFF7D8F9012208212120FFF7D3F9012263
:1034300007212320FFF7CEF9012206212520FFF7DF
:10344000C9F9012205212720FFF7C4F9012204212F
:103450002A20FFF7BFF9012203212C20FFF7BAF938
:10346000012203212D20FFF7B5F90122022130208E
:10347000FFF7B0F9012202213120FFF7ABF9012259
:1034800011463420FFF7A6F9012211463520FFF737
:10349000A1F9012211463620FFF79CF901220021F3
:1034A0003B20FFF797F9012200213C20FFF792F91A
:1034B000012200213D20FFF78DF9012200213E204D
:1034C000FFF788F9012200213F20FFF783F901224D
:1034D00000214020FFF77EF9012200214120FFF763
:1034E00079F9012200214220FFF774F9012200211D
:1034F0004320FFF76FF9012200214420FFF76AF90A
:10350000012200214520FFF765F9012211464A20DA
:10351000FFF760F9012211464B20FFF75BF901220A
:1035200011464C20FFF756F9012202214F20FFF7E8
:1035300051F9012202215020FFF74CF90122032109
:103540005320FFF747F9012203215420FFF742F9E6
:10355000012204215620FFF73DF9012205215920BF
:10356000FFF738F9012206215B20FFF733F901222A
:1035700007215D20FFF72EF9012208215F20FFF7C8
:1035800029F9012209216120FFF724F901220A21EA
:103590006220FFF71FF901220B216420FFF71AF9BF
:1035A00001220C216520FFF715F901220D2167206A
:1035B000FFF710F901220E216820FFF70BF9012215
:1035C0000F216920FFF706F9012210216A20FFF779
:1035D00001F9012216217020FFF7FCF801221721C2
:1035E0007120FFF7F7F8012218217220FFF7F2F897
:1035F000012219217320FFF7EDF801221B2174200D
:10360000FFF7E8F801221C217520FFF7E3F80122FB
:103610001E217620FFF7DEF801221F217720FFF719
:10362000D9F8012221217820FFF7D4F801222321A3
:103630007920FFF7CFF8012225217A20FFF7CAF879
:10364000012227217B20FFF7C5F801222A217C20B7
:10365000FFF7C0F801222C217D20FFF7BBF80122E3
:103660002D217D20FFF7B6F8012230217E20FFF7C3
:10367000B1F8012231217E20FFF7ACF8012234217C
:103680007F20FFF7A7F8012235217F20FFF7A2F85E
:10369000012236217F20FFF79DF801223C212020C6
:1036A000FFF798F801223D212020FFF793F801222F
:1036B0003E212020FFF78EF801223F212020FFF736
:1036C00089F8012237212120FFF784F801223821CF
:1036D0002120FFF77FF8012239212120FFF77AF816
:1036E000012234212220FFF775F801223521222002
:1036F000FFF770F8012232212320FFF76BF8012237
:1037000033212320FFF766F8012230212420FFF720
:1037100061F8012231212420FFF75CF801222F21DA
:103720002520FFF757F801222D212620FFF752F818
:1037300001222C212720FFF74DF801222B212820E0
:10374000FFF748F801222A212920FFF743F8012238
:1037500029212A20FFF73EF8012228212B20FFF7FC
:1037600039F8012227212C20FFF734F801222621E5
:103770002D20FFF72FF8012225212F20FFF72AF80F
:10378000012224213020FFF725F8012224213120B5
:10379000FFF720F8012223213220FFF71BF8012236
:1037A00023213320FFF716F8012222213420FFF7CE
:1037B00011F8012222213520FFF70CF801222121E6
:1037C0003720FFF707F8012221213820FFF702F800
:1037D000012221213920FEF7FDFF012220213C207A
:1037E000FEF7F8FF012220213D20FEF7F3FF012222
:1037F00020213E20FEF7EEFF012220213F20FEF790
:10380000E9FF012220214020FEF7E4FF01222021D0
:103810004120FEF7DFFF012220214220FEF7DAFFE0
:10382000012220214320FEF7D5FF01222021442040
:10383000FEF7D0FF012221214720FEF7CBFF012216
:1038400021214820FEF7C6FF012221214920FEF751
:10385000C1FF012222214B20FEF7BCFF01222221C1
:103860004C20FEF7B7FF012223214D20FEF7B2FFC7
:10387000012223214E20FEF7ADFF012224214F20FB
:10388000FEF7A8FF012224215020FEF7A3FF01220A
:1038900025215120FEF79EFF012226215320FEF70D
:1038A00099FF012227215420FEF794FF01222821AD
:1038B0005520FEF78FFF012229215620FEF78AFFAF
:1038C00001222A215720FEF785FF01222B215820B3
:1038D000FEF780FF01222C215920FEF77BFF0122F9
:1038E0002D215A20FEF776FF01222F215B20FEF7C3
:1038F00071FF012230215C20FEF76CFF0122312193
:103900005C20FEF767FF012232215D20FEF762FF97
:10391000012233215D20FEF75DFF012234215E206C
:10392000FEF758FF012235215E20FEF753FF0122EA
:1039300037215F20FEF74EFF012238215F20FEF77E
:1039400049FF012239215F20FEF744FF01223C217B
:103950006020FEF73FFF01223D216020FEF73AFF85
:1039600001223E216020FEF735FF01223F21602029
:10397000FEF730FF10BD0000FDF7A2F8FFF706F8D4
:10398000FEF730FEFEF7B4FEFEF7CCFEFEF702FFB8
:10399000FEF75AFEFEF776FE0F48FDF723FE0F48AE
:1039A000FDF7DEFD00210D48FEF79EF80C48FDF7FF
:1039B000D7FD01220B490C48FEF7E0FB0A480068DE
:1039C000C06840F0100008490968C860FEF734FF7D
:1039D00001E0FFF781FCFCE770000020B800002048
:1039E0000001002015000020480100207CB504469D
:1039F0000D461CB900208DF8040004E0012C02D112
:103A000040208DF804008DF805506420022301AA9F
:103A1000782100900148FCF74BFF7CBD1C00002082
:103A20000146012901D1002070470120FCE7000078
:103A30000EB551208DF800000B208DF801000020FC
:103A40008DF8020001208DF8030000208DF804009D
:103A500005208DF8050002208DF8060000208DF865
:103A6000070064208DF8080040F6FF7309226946BC
:103A70000148FEF7C9FB0EBD4801002010B591EAD0
:103A8000030F48BF83F0004300F13E83841A71EBBB
:103A9000030C05D2121943EB0C03001B61EB0C0164
:103AA000DFF824E14FEA1154A4EB135C1EEA430F44
:103AB00018BF9EEA445F73D023EA0E03DCF1200EA8
:103AC00021EA045143F4801332D322FA0CFE10EBA6
:103AD0000E0023FA0CFE41EB0E01CCF1200E03FA8E
:103AE0000EFE10EB0E0051F10001B1F5801FCCF17C
:103AF000200E32D201EB045112FA0EF2BDE8104052
:103B000058BF7047401C38BF5FEA420218BF704779
:103B1000002814BF20F0010041F100014FEA4103E9
:103B200013F5001F38BF7047A1F1C04100F0DEBAA5
:103B3000012A43EB0302ACF1200CDCF11F0E32BF73
:103B40004FF0000E23FA0CF310EB030041EB04518D
:103B5000B4EB115FD0D0A1EB045101F580114908FD
:103B60005FEA300001EB04510ED350F1000038BF82
:103B700012FA0EFE08D1BDE81040C9E7401C38BF5C
:103B80005FEA4202CAD1C3E7BDE810404FEA4103F1
:103B900013F5001F38BF7047A1F1C04100F0A6BA6D
:103BA0009EEA445F08D011EA5E0FBDE8104004BFF2
:103BB00001F0004100207047BDE8104070B500F0F2
:103BC00047FA00BF64FBBE3E0000E0FF2DE9C041A4
:103BD00030B4DFF8A0C23CEA111418BF3CEA131459
:103BE00000F0EC8081EA03051CEA111444EAD57464
:103BF00018BF1CEA131500F0C780A4EB05044FF0B2
:103C0000004545EAC12145EAC32341EA505143EA50
:103C1000525304F17F74994204F500344FEAC020F6
:103C20004FEAC22208BF904200F09C804FEA136521
:103C30000FF24016765D4FEA134506FB05F7C7F114
:103C4000807706FB07F74FEAD737A7FB0368764272
:103C5000C8F58038A7FB06CE38BFA8F1010807FBDE
:103C600008E64FF0000EA6FB028CE6FB03CEDCF16B
:103C7000000CCEF1004E38BFAEF1010EA6FB0C5881
:103C80004FF000074FF00005E6FB0E87A1FB08C6CA
:103C9000A0FB07CE16EB0E0645F10005E1FB07651C
:103CA00015F1E04E7EBFA4F580345FEA46066D4113
:103CB00016F1800745F100054FEA17274FEA06661F
:103CC00047EA0567A6F1DE46B6F1805F4FEA1525A3
:103CD0001FD9384624F0010C05EBC471BCF1FE6F0E
:103CE00001EB0C1102D8F0BCBDE8008124425CBF9E
:103CF00001F5801E9EEAC47F02D4F0BCBDE80081BD
:103D0000244238D4F0BCA1F1C041BDE8004100F02C
:103D1000EDB94FEAD22242EA43524FEAD323A7FB3E
:103D200002864FEAD02040EA415007FB03661EEAB4
:103D30000E0F4FEAD12105FB026658BFA6EB0056D5
:103D4000B6EB00564FEA520E4EEAC37E18EB0E0E4B
:103D500056EB530EBDD518EB02085E417F1C55F1A2
:103D60000005B6E74FF480154FF000074FF000064E
:103D70004FF00008ADE7F0BC4FF0000001F1C0418A
:103D800001F00041BDE8008111EA0C1F0CEA131597
:103D900000D00CE013EA0C1F00F025804FF000006B
:103DA000F0BC81EA030101F00041BDE80081F0BCF4
:103DB000BDE8004181EA030100F098B9F0BCBDE81C
:103DC000004170B500F044F9097EFC3E00F007B8F0
:103DD00081EA03014FF0000001F00041704781EAE1
:103DE000030100F083B9F0BCBDE800414FF00000D2
:103DF00021497047FFFDFBF9F7F5F4F2F0EEEDEB2A
:103E0000E9E8E6E4E3E1E0DEDDDBDAD8D7D5D4D3D8
:103E1000D1D0CFCDCCCBCAC8C7C6C5C4C2C1C0BF24
:103E2000BEBDBCBBBAB9B8B7B6B5B4B3B2B1B0AF2A
:103E3000AEADACABAAA9A8A8A7A6A5A4A3A3A2A10E
:103E4000A09F9F9E9D9C9C9B9A99999897979695C9
:103E500095949393929191908F8F8E8E8D8C8C8B65
:103E60008B8A8989888887878685858484838382ED
:103E7000828181800000FF070000F87F4FEA115324
:103E8000A3F58063D3F11E03A8BFD3F1200C08DB98
:103E90004FF0004242EAC12252EA505232FA03F095
:103EA000704709420BD4102BC4BF0020704703F5A4
:103EB000787CBCF1FF3F05D04FF0FF3070474FF0EA
:103EC0000000704770B500F0C3F800BF499224802D
:103ED00000207047F0E7B0FA80F310FA03F10AD03F
:103EE000C3F11D0303F580634FEA41504FEA0352CB
:103EF00002EBD12170474FF000007047DFF848C156
:103F000070B51CEA111E1EBF1CEA13159EEA0C0FA9
:103F100095EA0C0F00F06F8081EA030423EA4C134A
:103F20004EEAD47E21EA4C1141F4801143F480130F
:103F3000AE44A1FB024CA0FB0365AEF17F7E3619B7
:103F400055EB0C05A1FB034C4CF10003A0FB021C3C
:103F500016EB0C06654153F10003094218BF46F009
:103F6000010613F4007F0BD14FEA03314FEA05300D
:103F7000340341EA155140EA16506FF003020AE09B
:103F80004FEAC3214FEAC520F40241EA555140EA05
:103F900056506FF0020202EB2E4201EB025585EA09
:103FA000CE710AD05FEA440C18BF24F0004450F1EF
:103FB000000041F1000120EAD47040F2FE7C62452D
:103FC00000D270BDA84214BF4FF080444FF040446F
:103FD000002E08BF0024BEF1806FA8BFA1F1C04130
:103FE000BDE8704080F282804FF0000001F1C041D6
:103FF00001F0004170479EEA0C0F0CEA131518BF40
:1040000095EA0C0F06D04FF0000081EA030E0EF087
:10401000004170BD00F01CF88900013E00F007B8B7
:1040200000F009B84FEA430C5FEA5C5C08D081EA13
:10403000030100F05BB84FEA410C5FEA5C5CF6D12B
:104040004FF00000014970470000FF070000F87FB3
:104050000EF1020E2EF0030E5EF8046B364205D40C
:10406000012A43EB030515F5001F12D8012841EB87
:10407000010C1CF5001F0CD80ED14FEAD17C15F5B0
:10408000001F0CEB4C0C0CF1020C08BF4CEBD37C6A
:1040900004E04FF0080C01E04FEAD37C0CEB4C0538
:1040A00026FA05F606F00706B6F1040C06D20EEB6A
:1040B000860CBDE870404CF0010C6047DFE80CF066
:1040C000090B02024FF000414FF00000A1F5002162
:1040D00070BD19461046012851EB010418BFD4F5F4
:1040E000001484BF002001F0004170BD0808A0F555
:1040F00000114FEA3101704710B591EA030F48BF34
:1041000083F000433FF5C2AC841A71EB030C07D275
:1041100012198CF0004C43EB0C03001B61EB0C01FB
:10412000DFF8A4E14FEA1154A4EB135C1EEA430F3D
:1041300018BF9EEA445F00F0B08023EA6E0352424B
:1041400021EA0451C3EB6E0338BF5B1EDCF1200E85
:1041500025D322FA0CFE10EB0E0043FA0CFE41EBC5
:104160000E01CCF1200E03FA0EFE10EB0E0051F101
:104170000001CCF1200E29D412FA0EF201EB045109
:10418000BDE8104058BF7047401C1CBFB2F1004F43
:10419000704700280CBF491C20F00100704712EB4B
:1041A000020E43EB030218BF4FF0010E4EEA42022B
:1041B000ACF1200CDCF11E0E54D943FA0CFE10EBCE
:1041C0000E0051F1FF31CCF11E0ED5D50EF1010ECE
:1041D00012FA0EFE404141EB010101EB445C5FEA43
:1041E0005C5C10D910EBDE7001EB045138BFBEF1FE
:1041F000004FBDE8104018BF704700280CBF491C95
:1042000020F00100704730D24FEAD42C11F5001194
:1042100024F400641BD0B1FA81F20B3AA41AA41E54
:10422000D2F12003914030FA03F31943904001EB9F
:10423000CC71002C01EB0451BDE81040A8BF7047C1
:1042400001F1C0414FF0000001F000417047B0FAA9
:1042500080F310FA03F100D110BDE41A173C4805B1
:10426000C90AE4E701EB045110BD491001EB045108
:10427000BDE810404FEA300002E04FF00001704707
:104280004A0008BF0042F8D0B2F5001F28BF7047AF
:1042900001F000414FF0000070479EEA445F07D0F4
:1042A00011EA5E0FBDE8104004BF002100207047F6
:1042B000BDE8104070B5FFF7CBFE00BF40DFF63E13
:1042C00083F00041104670470000E0FF4FF040705F
:1042D000E1EE100A7047000000000000000001023B
:1042E000030406070809000000000102030400009F
:1042F00010430008000000201C000000D00100084E
:104300002C4300081C000020EC0D0000EC0100080C
:104310000000000010000000010000000024F40074
:0C4320000000F40101000000000000009B
:040000050800019559
:00000001FF
