:020000040800F2
:10000000080E0020350200083D280008492300089A
:1000100039280008470400083133000800000000B8
:10002000000000000000000000000000152A000889
:100030004B04000800000000132A0008172A0008DB
:100040004F0200084F0200084F0200084F0200084C
:100050004F0200084F0200084F0200084F0200083C
:100060004F0200084F0200084F0200084F0200082C
:100070004F0200084F0200084F0200084F0200081C
:100080004F0200084F0200084F0200080000000065
:100090000000000000000000000000004F02000807
:1000A0004F020008E92A00084F0200084F0200082A
:1000B0004F0200084F0200084F0200084F020008DC
:1000C0004F0200084F0200084F0200084F020008CC
:1000D0004F0200081D3300084F0200080000000016
:1000E0004F0200084F0200084F0200080000000005
:1000F0000000000000000000000000004F020008A7
:10010000000000004F0200084F0200084F020008E4
:1001100000000000000000000000000000000000DF
:100120004F0200084F0200084F0200084F0200086B
:100130004F02000800000000000000000000000066
:100140000000000000000000000000004F02000856
:100150004F0200084F0200084F0200084F0200083B
:100160004F0200084F0200080000000000000000DD
:10017000000000000000000000000000000000007F
:10018000000000004F020008000000000000000016
:100190004F02000800F002F800F03CF80AA090E8D6
:1001A000000C82448344AAF10107DA4501D100F032
:1001B00031F8AFF2090EBAE80F0013F0010F18BFC3
:1001C000FB1A43F001031847E857000008580000E5
:1001D000103A24BF78C878C1FAD8520724BF30C873
:1001E00030C144BF04680C60704700000023002445
:1001F00000250026103A28BF78C1FBD8520728BF37
:1002000030C148BF0B6070471FB505F024FB1FBD10
:1002100010B510BD00F0E2F81146FFF7F5FF04F04D
:1002200001FD00F000F903B4FFF7F2FF03BC00F09A
:1002300003F900000948804709480047FEE7FEE748
:10024000FEE7FEE7FEE7FEE7FEE7FEE7FEE7FEE786
:1002500004480549054A064B70470000D52A0008A6
:100260009501000808080020080E0020080A002058
:10027000080A002053EA020C00F069802DE9F04BD7
:100280004FF00006002B1FBFB3FA83F503FA05F405
:1002900024FA05F65E4012BF1643B2FA82F502FA5E
:1002A00005F4C5F120051EBF22FA05FC44EA0C0442
:1002B000203556EA044C4FEA144418BF641C4FF032
:1002C00000084FF00009904271EB030C39D300296C
:1002D00019BFB1FA81F701FA07F6B0FA80F700FA10
:1002E00007F6C7F120071EBF20FA07FC46EA0C06F6
:1002F0002037B6FBF4FCA7EB0507103F07F01F0BF8
:10030000CBF120060CFA0BFB2CFA06F644BFB346E1
:100310000026202FA4BF5E464FF0000B5BEA060CC0
:1003200008BF4FF0010B19EB0B09ABFB027C48EB4C
:100330000608C01B06FB02CC0BFB03CC71EB0C01C7
:10034000C1E70B46024641464846BDE8F08B13B56F
:100350004FF000004FF00001AFF30080BDE81C40FB
:1003600070474FF0000200B5134694469646203978
:1003700022BFA0E80C50A0E80C50B1F12001BFF45E
:10038000F7AF090728BFA0E80C5048BF0CC05DF8C4
:1003900004EB890028BF40F8042B08BF704748BF12
:1003A00020F8022B11F0804F18BF00F8012B704786
:1003B00070477047704710B500F008F8006810BD2E
:1003C00010B5044600F002F8046010BD0048704704
:1003D000A807002000487047A80700207546FFF7CF
:1003E000F9FFAE4605006946534620F007008546F2
:1003F00018B020B5FFF72CFFBDE820404FF00006F5
:100400004FF000074FF000084FF0000B21F00701FC
:10041000AC46ACE8C009ACE8C009ACE8C009ACE83F
:10042000C0098D46704710B50446AFF300802046E2
:10043000BDE81040FFF7F7BE01491820ABBEFEE74C
:1004400026000200704700BFFEE7704772B600BF8B
:10045000FEE770B50446A56D00F04AF9064694F82B
:100460003500022808D08020606500BF002084F895
:10047000340000BF012070BD2068006820F0160025
:10048000216808602068406920F080002168486188
:10049000206C08B9A06C28B12068006820F0080022
:1004A000216808602068006820F001002168086069
:1004B00010E000F01DF9801B05280BD92020606595
:1004C000032084F8350000BF002084F8340000BF0A
:1004D0000320D0E72068006800F001000028E8D180
:1004E00094F85C103F208840A860012084F8350013
:1004F00000BF002084F8340000BF00BFBBE7014606
:1005000091F83500022803D080204865012070470B
:10051000052081F835000868006820F001000A68AD
:1005200010600020F3E70000F8B502460B460025F6
:10053000002400200021C6E0012606FA01F51E680D
:1005400006EA0504AC4274D11E7906F00306012EBA
:1005500004D01E7906F00306022E13D190684F00D6
:100560000326BE40B0434F00DE68BE40304390607B
:10057000506801268E40B0431E79C6F300168E40A7
:10058000304350601E7906F00306032E09D0D06870
:100590004F000326BE40B0434F009E68BE4030432C
:1005A000D0601E7906F00306022E13D1CF0802F1A7
:1005B000200656F827004E07F70E0F26BE40B04320
:1005C0004F07FF0E1E69BE403043CF0802F12006E0
:1005D00046F8270010684F000326BE40B0431E793E
:1005E00006F003064F00BE40304310605E6806F41C
:1005F0004036002E66D000BF00260096344E366886
:1006000046F48046324F3E603E46366806F48046E9
:10061000009600BF00BF2F4E8F0856F827008E07A8
:10062000370F0F26BE40B0432B4EB24202D10026F8
:1006300015E047E0294EB24201D101260FE0284ED5
:10064000B24201D102260AE0264EB24201D103266F
:1006500005E0254EB24201D1042600E007268F07AF
:100660003F0FBE4030431B4E8F0846F827001F4EF9
:100670003068A0435E6806F4803606B120431B4E06
:100680003060361D3068A0435E6806F4003606B15F
:100690002043164E361D3060361D3068A0435E681C
:1006A00006F4801606B12043104E08363060361D21
:1006B0003068A0435E6806F4001606B120430B4E76
:1006C0000C363060491C1029FFF436AFF8BD00002D
:1006D0004438024008380140000002400004024053
:1006E00000080240000C024000100240003C0140A3
:1006F00001480068704700000000002070B5044603
:100700000CB9012070BD94F83D0028B9002084F890
:100710003C00204600F092F9242084F83D00206837
:10072000006820F00100216808602068006840F43B
:100730000040216808602068006820F400402168BB
:10074000086000F05DFB05465C496068884206D899
:100750005B48854201D2012007E0002005E05948AE
:10076000854201D2012000E00020012800D1C9E724
:100770005548B5FBF0F62068406820F03F00304354
:10078000216848604D496068884201D8701C07E0C4
:100790004FF4967070434FF47A71B0FBF1F0401C47
:1007A0002168096A21F03F01084321680862434932
:1007B0006068884214D8681E61684900B0FBF1F097
:1007C000401CC0F30B00042801D204203DE0681E49
:1007D00061684900B0FBF1F0401CC0F30B0034E04D
:1007E000A06838B9681E616801EB4101B0FBF1F007
:1007F000401C0AE0681E616801EBC10202EB0111B6
:10080000B0FBF1F0401C40F48040C0F30B0008B98D
:1008100001201AE0A06848B9681E616801EB410137
:10082000B0FBF1F0401CC0F30B000CE0681E6168E7
:1008300001EBC10202EB0111B0FBF1F0401CC0F36F
:100840000B0040F4804040F400402168C9694CF638
:10085000FF72914308432168C861D4E90701084346
:100860002168096821F0C001084321680860D4E9C3
:10087000031008432168896848F2FF329143084316
:1008800021688860D4E9050108432168C96821F01E
:10089000FF0108432168C8602068006840F001003B
:1008A0002168086000202064202084F83D0000209A
:1008B000206384F83E0000BF24E70000A08601000A
:1008C00080841E0000093D0040420F002DE9F843DE
:1008D0000446894616461F46DDF82080FFF708FFCC
:1008E000054694F83D0020287ED119230122514964
:1008F0002046009501F0D8FD10B10220BDE8F88334
:1009000000BF94F83C00012801D10220F6E7012045
:1009100084F83C0000BF2068006800F0010028B99E
:100920002068006840F001002168086020680068C5
:1009300020F4006021680860212084F83D00102028
:1009400084F83E000020206466626785608D208503
:100950003948E0622B4642464946204601F016FDE2
:1009600008B10120CAE700BF00200090206840695C
:10097000009020688069009000BF00BF44E02A46D4
:100980004146204601F035FE50B1206C042805D1C7
:100990002068006840F40070216808600120ADE71D
:1009A000606A007821680861606A401C6062608D3E
:1009B000401E6085208D401E208520684069C0F360
:1009C000800070B1208D60B1606A00782168086194
:1009D000606A401C6062608D401E6085208D401EF4
:1009E00020852A46414600E022E0204601F02EFD07
:1009F00050B1206C042805D12068006840F40070D4
:100A000021680860012079E7208D0028B7D120688F
:100A1000006840F4007021680860202084F83D00E0
:100A2000002084F83E0000BF84F83C0000BF65E76A
:100A3000022063E7020010000000FFFF10B586B03F
:100A40000446142101A8FFF78CFC1B49206888424A
:100A50002FD100BF002000901848006840F002002D
:100A6000164908600846006800F00200009000BFC8
:100A700000BFC020019012200290002003900320AC
:100A800004900420059001A90D48FFF74DFD00BF1B
:100A90000020009009481030006840F40010074919
:100AA000103108600846006800F40010009000BF94
:100AB00000BF06B010BD00000054004030380240B6
:100AC00000040240034800680349097808440149CA
:100AD00008607047000000200800002010B50D4895
:100AE000006840F400700B4908600846006840F454
:100AF000806008600846006840F480700860032049
:100B000000F0A2F80F2000F007F800F02BF800200A
:100B100010BD0000003C024070B504460E4800784D
:100B20004FF47A71B1FBF0F00C490968B1FBF0F5B4
:100B3000284600F02BFC08B1012070BD102C07D214
:100B400000222146501E00F041F80548046001E0F3
:100B50000120F2E70020F0E7080000200C00002050
:100B60000400002008B500BF002000900E48006877
:100B700040F480400C4908600846006800F480405A
:100B8000009000BF00BF00BF00200090081F006859
:100B900040F08050091F08600846006800F080504F
:100BA000009000BF00BF08BD44380240014608461F
:100BB000002809DB00F01F0301229A4043099B0033
:100BC00003F1E023C3F8002100BF70472DE9F05F77
:100BD00080460D461646002702F0C4FB07463946FC
:100BE0002A46334601F00700C0F1070ABAF1040FA4
:100BF00002D94FF0040A01E0C0F1070AD14600F122
:100C0000040ABAF1070F02D24FF0000A01E0A0F186
:100C1000030AD4464FF0010A0AFA09FAAAF1010AB6
:100C20000AEA020A0AFA0CFA4FF0010B0BFA0CFB63
:100C3000ABF1010B0BEA030B4AEA0B0421464046D9
:100C400002F098FBBDE8F09F00BF00F00702064BE2
:100C500019684FF6FF031940044B0B4343EA022186
:100C6000014B196000BF70470CED00E00000FA0571
:100C700070B504460D460CB9012070BD5848006897
:100C800000F00700A84209D255490D7008460068D7
:100C900000F00700A84201D00120EEE7207800F024
:100CA000020002281DD1207800F00400042805D19C
:100CB0004C48006840F4E0504A490860207800F051
:100CC0000800082805D14748006840F460404549BD
:100CD00008604448006820F0F000A16808434149DA
:100CE0000860207800F00100A8B36068012807D1EF
:100CF0003C4808380068C0F34040B8B90120BCE760
:100D00006068022802D06068032807D13548083897
:100D10000068C0F3406048B90120AEE731480838A8
:100D20000068C0F3400008B90120A6E72D4800681C
:100D300020F00300616808432A490860FFF7D8FCE7
:100D4000064609E0FFF7D4FC801B41F28831884257
:100D500002D9032091E707E02248006800F00C0068
:100D60006168B0EB810FEDD11D48006800F007000D
:100D7000A84209D91A490D700846006800F007001A
:100D8000A84201D0012078E7207800F00400042870
:100D900007D11448006820F4E050E1680843114985
:100DA0000860207800F00800082808D10D48006885
:100DB00020F46040216940EAC1000A49086000F05F
:100DC0003FF808490968C1F30311074A515CC8405C
:100DD0000649086006480068FFF79EFE00204CE7C1
:100DE000003C0240083802406A5800080C0000200D
:100DF0000400002001480068704700000C0000203B
:100E000000B5FFF7F7FF04490968C1F38221034ADF
:100E1000515CC84000BD0000083802407A58000804
:100E200000B5FFF7E7FF04490968C1F34231034AFF
:100E3000515CC84000BD0000083802407A580008E4
:100E40002DE9F047002400250026A146254800682A
:100E500000F00C0020B1042805D008283AD105E0A4
:100E6000DFF8849039E0DFF8849036E01D48001FF9
:100E7000006800F03F041B48001F006800F4800079
:100E800078B11A481749091F0968C1F38811A0FBF6
:100E900001700146224600233846FFF7EBF905466C
:100EA0000EE011480F49091F0968C1F38811A0FB22
:100EB00001700146224600233846FFF7DBF905465C
:100EC0000848001F0068C0F30140401C4600B5FB05
:100ED000F6F902E0DFF8109000BF00BF4846BDE819
:100EE000F0870000083802400024F40040787D01BB
:100EF000F8B504460CB90120F8BD207800F00100D7
:100F0000002874D0F948006800F00C0004280DD0C7
:100F1000F648006800F00C00082813D1F348001FC1
:100F2000006800F48000B0F5800F0BD1EF4808385E
:100F30000068C0F34040002859D06068002856D1AE
:100F40000120D9E700BF6068B0F5803F08D1E748CD
:100F50000838006840F48030E449083908601EE031
:100F60006068B0F5A02F0DD1E0480838006840F463
:100F70008020DE49083908600846006840F4803067
:100F800008600CE0D9480838006820F48030D74960
:100F9000083908600846006820F48020086000BF17
:100FA000606890B1FFF7A4FB054606E0FFF7A0FBE1
:100FB000401B642801D903209EE7CC48083800680C
:100FC000C0F340400028F1D011E0FFF791FB054647
:100FD00006E0FFF78DFB401B642801D903208BE757
:100FE000C24808380068C0F340400028F1D120789A
:100FF00000F0020002285FD1BC48006800F00C003D
:1010000058B1BA48006800F00C0008281CD1B74855
:10101000001F006800F48000B0B9B44808380068C8
:10102000C0F3400020B1E068012801D0012063E74F
:10103000AE480838006820F0F800216940EAC10095
:10104000AA490839086037E0E06800B30120A849E0
:101050000860FFF74DFB054606E0FFF749FB401B24
:10106000022801D9032047E7A04808380068C0F3E8
:1010700040000028F1D09D480838006820F0F800B2
:10108000216940EAC10099490839086014E000204C
:1010900097490860FFF72CFB054606E0FFF728FBA1
:1010A000401B022801D9032026E790480838006831
:1010B000C0F340000028F1D1207800F00800082893
:1010C0002CD16069A8B101208A490860FFF710FBA4
:1010D000054606E0FFF70CFB401B022801D9032060
:1010E0000AE782486C300068C0F340000028F1D065
:1010F00014E000207F490860FFF7FAFA054606E091
:10110000FFF7F6FA401B022801D90320F4E67748DE
:101110006C300068C0F340000028F1D1207800F066
:101120000400042870D1002770483830006800F0AF
:10113000805090B900BF002000906C4838300068A3
:1011400040F080506949383108600846006800F076
:101150008050009000BF00BF01276748006800F47E
:101160008070B0B96448006840F4807062490860DB
:10117000FFF7BEFA054606E0FFF7BAFA401B022861
:1011800001D90320B8E65C48006800F480700028AC
:10119000F2D000BFA068012808D154486830006828
:1011A00040F001005149683108601DE0A068052841
:1011B0000DD14E486830006840F004004B4968315A
:1011C00008600846006840F0010008600CE04748ED
:1011D0006830006820F00100444968310860084622
:1011E000006820F00400086000BFA068A8B1FFF705
:1011F0007FFA054609E0FFF77BFA401B41F2883190
:10120000884202D9032077E626E038486830006833
:10121000C0F340000028EED013E0FFF769FA05465E
:1012200008E0FFF765FA401B41F28831884201D996
:10123000032061E62D4868300068C0F340000028B4
:10124000EFD1012F07D129483830006820F08050B5
:1012500026493831086000BFA069002845D02348DE
:10126000006800F00C0008285DD0A069022845D174
:1012700000201F490866FFF73BFA054606E0FFF726
:1012800037FA401B022801D9032035E617480838F1
:101290000068C0F340600028F1D1D4E90701084399
:1012A000616A40EA81110122A06AC2EB500041EA62
:1012B00000412C20005D41EA00600C49091F0860D4
:1012C00001200B490866FFF713FA054606E0FFF711
:1012D0000FFA401B022801D903200DE60348083805
:1012E0000068C0F340600028F1D049E008380240AF
:1012F00000004742800E4742007000400020214914
:101300000866FFF7F5F9054606E0FFF7F1F9401B1F
:10131000022801D90320EFE51B480068C0F34060B4
:101320000028F2D12CE0A069012800D1E4E516489C
:10133000001D0668A069012820D006F48001E0693C
:1013400081421BD106F03F01206A814216D147F647
:10135000C0703040616AB0EB811F0FD106F440319C
:101360000122A06AC2EB5000B1EB004F06D106F09B
:1013700070612C20005DB1EB006F01D00120BBE556
:101380000020B9E5000047420038024070B504462D
:101390002546681EB0F1807F01D301200FE0681E52
:1013A0004FF0E02148610F214FF0FF3001F0E2FFE4
:1013B00000204FF0E021886107200861002070BD07
:1013C0007047704730B502460B4600BF92F83C00AC
:1013D000012801D1022030BD012082F83C0000BF6D
:1013E000022082F83D00106844681068816824F08B
:1013F00070041868044310684460144D1068A842D3
:1014000013D01068B0F1804F0FD0114D1068A84272
:101410000BD0104D1068A84207D00F4D1068A8429D
:1014200003D00E4D1068A84205D121F08001586804
:10143000014310688160012082F83D0000BF002058
:1014400082F83C0000BF00BFC5E70000000001407B
:101450000004004000080040000C00400040014033
:1014600010B504460CB9012010BD94F83D0028B910
:10147000002084F83C00204600F026F8022084F882
:101480003D00211D206801F03BFB012084F846004F
:1014900000BF84F83E0001213F2001554020015546
:1014A0004120015500BF00BF012084F842004320C5
:1014B0000155442001554520015500BF012084F805
:1014C0003D000020D0E7000038B5044627492068D9
:1014D000884218D100BF002000902548006840F0E5
:1014E0000100234908600846006800F001000090F0
:1014F00000BF00BF002211461920FFF767FB19202B
:10150000FFF754FB30E01B492068884218D100BF28
:10151000002000901648006840F40030144908602C
:101520000846006800F40030009000BF00BF0022B1
:1015300011461920FFF74AFB1920FFF737FB13E08C
:101540000D49206888420FD100BF00200090084854
:10155000006840F48020064908600846006800F4EE
:101560008020009000BF00BF38BD00000000014097
:10157000443802400044014000480140014691F8CF
:101580003D00012801D001207047022081F83D0074
:10159000164B0868984213D00868B0F1804F0FD0FE
:1015A000134B086898420BD0124B0868984207D03A
:1015B000114B0868984203D0104B086898420CD130
:1015C0000868806800F00702062A0CD008680068E6
:1015D00040F001000B68186005E00868006840F002
:1015E00001000B6818600020CEE7000000000140F9
:1015F0000004004000080040000C00400040014092
:10160000014691F83D00012801D0012070470220D9
:1016100081F83D000868C06840F001000B68D860A0
:10162000164B0868984213D00868B0F1804F0FD06D
:10163000134B086898420BD0124B0868984207D0A9
:10164000114B0868984203D0104B086898420CD19F
:101650000868806800F00702062A0CD00868006855
:1016600040F001000B68186005E00868006840F071
:1016700001000B6818600020C8E70000000001406E
:101680000004004000080040000C00400040014001
:101690002DE9F04104460D46002700BF94F83C00B8
:1016A000012802D10220BDE8F081012084F83C002D
:1016B00000BF022084F83D002068866826F0770687
:1016C00026F47F46206886602868502833D00CDCDA
:1016D000202850D004DC00284BD0102851D149E0FC
:1016E000302849D040284CD139E060282DD07028CE
:1016F00007D0B0F5805F03D0B0F5005F41D10DE0B9
:1017000041E0D5E902136A68206801F05CFA2068BC
:10171000866846F077062068866034E0D5E90213D3
:101720006A68206801F04FFA2068806840F48040C1
:101730002168886027E0EA686968206801F014FB86
:101740005021206801F04AFA1DE0EA6869682068C3
:1017500001F01DFB6021206801F040FA13E0EA6807
:101760006968206801F000FB4021206801F036FA2A
:1017700009E000BF00BF00BF2968206801F02EFA11
:1017800001E0012700BF00BF012084F83D0000BF39
:10179000002084F83C0000BF384684E7704710B54D
:1017A000044620680069C0F34000D8B12068C068D2
:1017B000C0F34000B0B16FF0020021680861012061
:1017C00020772068806900F0030018B12046FFF7F9
:1017D000E5FF05E0204600F0DDF8204600F091F935
:1017E0000020207720680069C0F38000D8B120680D
:1017F000C068C0F38000B0B16FF0040021680861D8
:10180000022020772068806900F4407018B12046DB
:10181000FFF7C4FF05E0204600F0BCF8204600F0CA
:1018200070F90020207720680069C0F3C000D8B1AB
:101830002068C068C0F3C000B0B16FF00800216834
:101840000861042020772068C06900F0030018B107
:101850002046FFF7A3FF05E0204600F09BF8204656
:1018600000F04FF90020207720680069C0F30010D5
:10187000D8B12068C068C0F30010B0B16FF010009C
:1018800021680861082020772068C06900F4407052
:1018900018B12046FFF782FF05E0204600F07AF8F5
:1018A000204600F02EF9002020772068006900F023
:1018B000010058B12068C06800F0010030B16FF03D
:1018C000010021680861204600F092F92068006953
:1018D000C0F3C01058B12068C068C0F3C01030B168
:1018E0006FF08000216808612046FFF769FD2068DD
:1018F0000069C0F3801058B12068C068C0F3801040
:1019000030B16FF0400021680861204600F072FAA3
:1019100020680069C0F3401058B12068C068C0F367
:10192000401030B16FF02000216808612046FFF7B9
:1019300048FD10BD10B586B00446142101A8FEF77D
:1019400010FD1149206888421CD100BF0020009082
:101950000E48006840F002000C4908600846006824
:1019600000F00200009000BF00BF88150190022027
:1019700002900020039004900320059001A90448E0
:10198000FEF7D2FD06B010BD0044014030380240E1
:101990000004024070472DE9F04104460D4616460A
:1019A000002700BF94F83C00012802D10220BDE8C6
:1019B000F081012084F83C0000BF36B1042E1BD01A
:1019C000082E31D00C2E5ED145E02946206801F06A
:1019D0000FF92068806940F008002168886120685C
:1019E000806920F004002168886120688069296985
:1019F00008432168886148E02946206801F028F9F9
:101A00002068806940F400602168886120688069EE
:101A100020F480602168886120688069296940EA33
:101A200001202168886130E02946206801F044F9EE
:101A30002068C06940F008002168C8612068C0695A
:101A400020F004002168C8612068C0692969084342
:101A50002168C86119E02946206801F061F9206811
:101A6000C06940F400602168C8612068C06920F442
:101A700080602168C8612068C069296940EA012046
:101A80002168C86101E0012700BF00BF00BF00203E
:101A900084F83C0000BF384689E710B504460CB90D
:101AA000012010BD94F83D0028B9002084F83C00C6
:101AB000204600F025F8022084F83D00211D206812
:101AC00001F01EF8012084F8460000BF84F83E00B3
:101AD00001213F200155402001554120015500BF03
:101AE00000BF012084F842004320015544200155E5
:101AF0004520015500BF012084F83D000020D0E7BB
:101B00007047704770B504460D4615B994F83E000D
:101B10000BE0042D02D13F20005D06E0082D02D12C
:101B20004020005D01E04120005D012801D001203E
:101B300070BD1DB9022084F83E000EE0042D03D1D3
:101B400002213F20015508E0082D03D10221402049
:101B5000015502E002214120015501222946206859
:101B600001F020F81D492068884201D1012000E0E1
:101B7000002028B12068406C40F40040216848648F
:101B800016492068884213D02068B0F1804F0FD0EA
:101B90001349206888420BD012492068884207D038
:101BA00011492068884203D01049206888420CD12E
:101BB0002068806800F00706062E0CD020680068B8
:101BC00040F001002168086005E02068006840F0EE
:101BD0000100216808600020AAE700000000014021
:101BE0000004004000080040000C0040004001409C
:101BF00070B52DED088B05466C4885427BD16C484D
:101C00000088401C6A490880084600884FF47A71B1
:101C100090FBF1F201FB120065490880084600883C
:101C20000A2190FBF1F201FB1200012850D103F0D0
:101C300053F86048008803F095FB41EC1B0B9FEDC7
:101C40005E0B53EC102B03F0C1F941EC1A0B9FED26
:101C50005C0B53EC102B03F099FB41EC190B9FED3F
:101C60005A0B53EC102B03F09BFC41EC180B03F0C8
:101C700035FB574908800846008803F073FB41ECA8
:101C8000190B9FED540B53EC102B03F07FFB41EC31
:101C9000180B03F023FBC0B250494D4A128821F8BB
:101CA00020204B48008803F05DFB41EC190B9FEDB1
:101CB000490B53EC102B03F069FB41EC180B03F0BC
:101CC0000DFBC0B2454901EB8000454909884180C0
:101CD00037480088322190FBF1F201FB1200012805
:101CE00032D140480078012806D1324800880A30B5
:101CF0003049088005E055E02E4800880A382D4913
:101D000008802C480088B0F5FA7F09DC4FF4FA709F
:101D1000284908803348007802F0D6FF314908701E
:101D20002448008840F6C411884208DB084621494F
:101D300008802C48007802F0C7FF2A4908701D4827
:101D4000008829490968486319480088C82190FB20
:101D5000F1F201FB1200012824D100F071FD0024F2
:101D60001AE01E4901EB8401488803F0FBFA41ECBC
:101D7000190B9FED1E0B53EC102B03F027F941ECD0
:101D8000180B03F0ABFA86B2144931F8240031463F
:101D900001F0C4FF601CC4B2642CE2DB02F02CF83A
:101DA00000F006FEBDEC088B70BD00007000002046
:101DB0001000002012000020000000000088D34026
:101DC0000000000000209C40000000000080464011
:101DD00018000020721CC7711CC7E13F18060020C4
:101DE0001A00002014000020B800002000000000AD
:101DF00000403F4070477047704700002DE9F84FA2
:101E00000446206805682068C668206847694FF066
:101E10000009CA4605F00F09B9F1000F0AD105F013
:101E2000200038B106F0200020B1204601F048F82B
:101E3000BDE8F88FB9F1000F7CD007F0010018B9A8
:101E400006F49070002875D005F0010030B106F45A
:101E5000807018B1206C40F00100206405F004008F
:101E600030B107F0010018B1206C40F0020020648E
:101E700005F0020030B107F0010018B1206C40F00D
:101E80000400206405F0080048B106F0200010B9F5
:101E900007F0010018B1206C40F008002064206CAD
:101EA000002846D005F0200028B106F0200010B12F
:101EB000204601F005F820684069C0F3801A206CC4
:101EC00000F0080010B9BAF1000F2DD0204600F044
:101ED0007CFF2068406900F04000402820D100BF0E
:101EE00000BF2168143151E8001F21F04000216833
:101EF000143141E80002002AF3D100BFA06B50B1B9
:101F00007548A16B0865A06BFEF7F9FA88B1A06B64
:101F1000016D88470DE02046FFF76EFF09E009E0FC
:101F20002046FFF769FF04E02046FFF765FF002029
:101F300020647DE7206B012876D105F01000002891
:101F400072D006F010000028FAD000BF00200090E8
:101F500020680068009020684068009000BF00BFC3
:101F60002068406900F0400040285ED1A06B006806
:101F700040681FFA80F8B8F1000F54D0A08D40459A
:101F800051DDA4F82E80A06BC069B0F5807F43D0EE
:101F900000BF00BF21680C3151E8001F21F48070A0
:101FA00021680C3141E80002002AF3D100BF00BFD4
:101FB00000BF2168143151E8001F21F001002168A1
:101FC000143141E80002002AF3D100BF00BF00BF76
:101FD0002168143151E8001F21F0400021681431BC
:101FE00041E80002002AF3D100BF202084F83E001F
:101FF0000020206300BF00BF21680C3151E8001FA2
:1020000021F0100021680C3141E80002002AF3D1D0
:1020100000BFA06BFEF71DFAA08DE28D801A81B281
:102020002046FFF7E8FE03E740E0A08DE18D401A6F
:102030001FFA80F8E08DC0B3B8F1000F35D000BFB3
:1020400000BF21680C3151E8001F21F49070216815
:102050000C3141E80002002AF3D100BF00BF00BFED
:102060002168143151E8001F21F00100216814316A
:1020700041E80002002AF3D100BF202084F83E008E
:102080000020206300BF00BF21680C3151E8001F11
:1020900021F0100021680C3141E80002002AF3D140
:1020A00000BF41462046FFF7A6FEC1E605F08000CE
:1020B00030B106F0800018B1204601F0B6F8B7E65E
:1020C00005F0400030B106F0400018B1204600F0A5
:1020D000B2FEADE600BFABE6B72D000810B5044672
:1020E0000CB9012010BDA06900B100E000BF94F858
:1020F0003D0028B9002084F83C00204600F028F874
:10210000242084F83D002068C06820F40050216835
:10211000C860204600F050FF2068006920F490401D
:10212000216808612068406920F02A002168486120
:102130002068C06840F400502168C8600020206416
:10214000202084F83D0084F83E000020CAE700000B
:1021500010B586B00446142101A8FEF702F91F4904
:102160002068884238D100BF002000901C480068D9
:1021700040F010001A4908600846006800F010009E
:10218000009000BF00BF00BF00200090144814382A
:10219000006840F0010012491439086008460068E0
:1021A00000F00100009000BF00BF4FF4C06001903C
:1021B0000220029000200390032004900720059045
:1021C00001A90848FEF7B0F9002211462520FEF7C4
:1021D000FDFC2520FEF7EAFC06B010BD0010014012
:1021E000443802400000024070B504460D461646D1
:1021F00094F83E00202816D105B10EB9012070BD1B
:1022000000BF94F83C00012801D10220F7E701202B
:1022100084F83C0000BF0020206332462946204657
:1022200000F0E0FFEBE70220E9E7000010B504460C
:102230000C48844215D10C4800780C490C4A12789D
:1022400088540B480078401C0949087008460078FB
:102250000B2801D100200870012203490148FFF733
:10226000C3FF10BD48010020150000200C0600200F
:10227000160000202DE9F84F04460E4617469946F1
:102280004FF0000A94F83D0020285AD106B117B942
:102290000120BDE8F88F00BF94F83C00012801D16F
:1022A0000220F6E7012084F83C0000BF00202064F3
:1022B000212084F83D00FEF71BFA8246A784E784BC
:1022C000A068B0F5805F04D1206910B90025B04640
:1022D00002E035464FF0000800BF002084F83C00C3
:1022E00000BF1BE05346002280212046CDF800901D
:1022F00000F0CBFF08B10320CBE745B9B8F80000E8
:10230000C0F308002168486008F1020803E028785B
:10231000216848606D1CE08C401EE084E08C002841
:10232000E0D15346002240212046CDF8009000F035
:10233000ACFF08B10320ACE7202084F83D0000206A
:10234000A7E70220A5E7704700BFFEE7014608683F
:102350004069C0F38020B0B16FF480600A685061BA
:1023600000200863202081F83D00002081F83E0015
:10237000086C40F00400086400BF002081F83C00B5
:1023800000BF012070470020FCE700002DE9F84362
:1023900004460D4617469846E66A082E04D0012EDC
:1023A00002D016F5803F06D12068006840F48070A6
:1023B0002168086008E0206B122805D120680068B9
:1023C00040F48070216808603B4600224FF0011104
:1023D0002046CDF8008000F067F860B12068006802
:1023E00000F48070B0F5807F02D14FF4007020645B
:1023F0000320BDE8F8832069B0F5804F04D105F0D3
:10240000FE002168086112E005F44070F02141EA05
:10241000E0102168086143463A460B49204600F027
:1024200086F808B10120E4E7E8B221680861434674
:102430003A460549891F204600F079F808B1012085
:10244000D7E70020D5E700000800010070B504467A
:102450000D46164620E02046FFF778FF08B1012020
:1024600070BD681CC0B1FEF743F9801BA84200D8BC
:1024700095B900202063202084F83D00002084F8D6
:102480003E00206C40F02000206400BF002084F853
:102490003C0000BF0120E3E720684069C0F38000F2
:1024A0000028D8D00020DBE72DE9F04104460D4696
:1024B00017461E46DDF818801CE0701CD0B1FEF7F0
:1024C00017F9A0EB0800B04200D89EB900202063A5
:1024D000202084F83D00002084F83E00206C40F06D
:1024E0002000206400BF002084F83C0000BF0120D1
:1024F000BDE8F081C5F3074001280AD12068406992
:10250000A9B20840A9B2884201D101200BE0002005
:1025100009E020688069A9B20840A9B2884201D1C7
:10252000012000E00020B842C7D00020E0E72DE9FC
:10253000F04104460D4616461F463DE020684069BE
:10254000C0F38020E8B12068006840F40070216882
:1025500008606FF4806021684861002020632020BB
:1025600084F83D00002084F83E00206C40F0040018
:10257000206400BF002084F83C0000BF0120BDE8BB
:10258000F081701CC0B1FEF7B3F8C01BB04200D898
:1025900096B900202063202084F83D00002084F8B4
:1025A0003E00206C40F02000206400BF002084F832
:1025B0003C0000BF0120E2E7C5F3074001280AD133
:1025C00020684069A9B20840A9B2884201D101201F
:1025D0000BE0002009E020688069A9B20840A9B298
:1025E000884201D1012000E000200028A6D0002070
:1025F000C5E770B504460D46164620E02046FFF7B5
:10260000A5FE08B1012070BD681CC0B1FEF770F8CE
:10261000801BA84200D895B900202063202084F8B0
:102620003D00002084F83E00206C40F02000206433
:1026300000BF002084F83C0000BF0120E3E72068D1
:102640004069C0F3C0100028D8D00020DBE70000AC
:1026500008B500BF002000901548006840F08000D9
:10266000134908600846006800F08000009000BF31
:1026700000BF00BF002000900846006840F0010045
:1026800008600846006800F00100009000BF00BF2D
:1026900000BF002000900846006840F0020008607B
:1026A0000846006800F00200009000BF00BF08BDAF
:1026B0003038024010B50B480B4908600B484860A1
:1026C000002109488160C1604FF48041016100210F
:1026D00041618161C1610162FEF710F808B1FDF747
:1026E000B5FE10BD005400401C000020801A0600FA
:1026F00000B587B01C216846FDF733FE1548164922
:1027000008604A20486000211348816044F61F6138
:10271000C160002101618161FEF7A2FE08B1FDF7F1
:1027200095FE0D48FFF7B9F908B1FDF78FFE60205F
:102730000090002001900290049000226946064813
:10274000FFF729F908B1FDF781FE0348FFF7F2F81A
:1027500007B000BD00440140B800002010B50A4891
:102760000A4908604A2048600021084881604FF605
:10277000FE71C160002101618161FEF771FE08B147
:10278000FDF764FE10BD000000480140000100207C
:1027900000B587B00020039004900590069001904A
:1027A00002901548154908604A20486000211348E6
:1027B000816040F2E731C1600021016141618161C6
:1027C000FEF74EFE08B1FDF741FE4FF48050039036
:1027D00003A90A48FEF75CFF08B1FDF737FE0020A9
:1027E0000190029001A90548FEF7ECFD08B1FDF744
:1027F0002DFE07B000BD0000000001407000002069
:1028000010B50B480B4908604FF4E13048600021D7
:1028100008488160C16001610C2141610021816132
:10282000C161FFF75BFC08B1FDF710FE10BD0000B1
:10283000001001404801002000BFFEE700BFFEE796
:1028400000200CE0002106E00022064B03EBC10350
:102850001A544A1CD1B28029F6DB421CD0B2082897
:10286000F0DB70478C01002070B513467F2801DC37
:102870003F2900DD70BD0D46CE1701EB5676C6F33D
:10288000C702CE1701EB5676F610A1EBC606F4B2DE
:10289000012B0BD10C4D05EBC005AD5C0126A6400C
:1028A0003543094E06EBC006B5540BE053B9064D4F
:1028B00005EBC005AD5C0126A640B543024E06EB14
:1028C000C006B55400BFD5E78C01002010B5AE217D
:1028D000002002F0DFF92021002002F0DBF90221C4
:1028E000002002F0D7F90021084602F0D3F91021A8
:1028F000002002F0CFF9B021002002F0CBF9A8218E
:10290000002002F0C7F93F21002002F0C3F9D321D3
:10291000002002F0BFF90021084602F0BBF9402177
:10292000002002F0B7F9A121002002F0B3F9C8217C
:10293000002002F0AFF9DA21002002F0ABF91221F9
:10294000002002F0A7F98121002002F0A3F9FF2165
:10295000002002F09FF9A421002002F09BF9A6219B
:10296000002002F097F9D521002002F093F9F02120
:10297000002002F08FF9D921002002F08BF92221EA
:10298000002002F087F9DB21002002F083F92021EA
:10299000002002F07FF98D21002002F07BF9142144
:1029A000002002F077F9AF21002002F073F910BD8A
:1029B00070B5002412E02146002000F015F8002533
:1029C00008E0084800EBC500015D012002F062F953
:1029D000681CC5B2802DF4DB601CC4B2082CEADB95
:1029E00070BD00008C01002070B504460D4605F155
:1029F000B000C1B2002002F04DF9102040EA1411DD
:102A0000002002F047F904F00F01002002F042F923
:102A100070BD7047704710B5FEF754F810BD000048
:102A200000B593B0302107A8FDF79BFC142102A844
:102A3000FDF797FC00BF002001902448006840F09B
:102A40008050224908600846006800F080500190DC
:102A500000BF00BF00BF002001901D48006820F4A7
:102A6000404040F400401A4908600846006800F4FD
:102A70004040019000BF00BF012007900004089073
:102A800002200D9041050E9110210F91C02110914F
:102A900004211191129107A8FEF72AFA08B1FDF757
:102AA000D5FC0F20029002200390002004904FF4E8
:102AB0008050059000200690022102A8FEF7D8F869
:102AC00008B1FDF7C3FC13B000BD00004038024060
:102AD000007000400348006840F47000014908603D
:102AE0007047000088ED00E010B50348FEF757FE80
:102AF0000248FEF754FE10BD70000020B800002010
:102B000010B50268204B98420BD0B0F1804F08D02E
:102B10001E4B984205D01E4B984202D01D4B984246
:102B200003D122F070024B681A43174B984214D01D
:102B3000B0F1804F11D0154B98420ED0144B9842F3
:102B40000BD0144B984208D0134B984205D0134B2E
:102B5000984202D0124B984203D122F44072CB68C3
:102B60001A4322F080034C6943EA040202608B6836
:102B7000C3620B688362044B984201D10B69036303
:102B80000123436110BD000000000140000400402B
:102B900000080040000C004000400140004401409B
:102BA0000048014030B501F01F05012404FA05F387
:102BB000046A9C430462046A01F01F0502FA05F5E9
:102BC0002C43046230BD30B50C46816821F47F414E
:102BD00042EA032525432943816030BD0A468168C6
:102BE00021F0700142F00703194381607047000033
:102BF00030B5056A25F001050562026A43688469FB
:102C000024F0700424F003040D682C4322F0020227
:102C10008D682A430D4DA84206D100BF22F008025C
:102C2000CD682A4322F00402084DA84207D123F4BC
:102C3000807323F400734D692B438D692B434360EC
:102C400084614D684563026230BD000000000140B0
:102C500030B5056A25F010050562026A436884698B
:102C600024F4E04424F440740D6844EA052422F07E
:102C700020028D6842EA05120E4DA84207D100BF1E
:102C800022F08002CD6842EA051222F04002094D8E
:102C9000A84209D123F4806323F400634D6943EA19
:102CA00085038D6943EA8503436084614D688563CC
:102CB000026230BD0000014030B5056A25F4807520
:102CC0000562026A4368C46924F0700424F00304B6
:102CD0000D682C4322F400728D6842EA05220F4DE4
:102CE000A84207D100BF22F40062CD6842EA052263
:102CF00022F48062094DA84209D123F4805323F4C1
:102D000000534D6943EA05138D6943EA0513436097
:102D1000C4614D68C563026230BD0000000001401F
:102D200030B5056A25F480550562036A4468C269B6
:102D300022F4E04222F440720D6842EA052223F4B4
:102D400000538D6843EA0533064DA84204D124F4AC
:102D500080444D6944EA85144460C2614D6805644D
:102D6000036230BD0000014030B50B461446026AD4
:102D7000056A25F001050562816921F0F00141EA4B
:102D8000041122F00A021A438161026230BD30B59B
:102D90000B461446056A25F0100505628169026A32
:102DA00021F4704141EA043122F0A00242EA031208
:102DB0008161026230BD70B50546AC6B0020E085D4
:102DC000E0842046FFF718F870BD00BF00BF02681E
:102DD0000C3252E8002F22F4907102680C3242E863
:102DE0000013002BF3D100BF00BF00BF02681432F4
:102DF00052E8002F22F001010268143242E8001369
:102E0000002BF3D100BF016B01290ED100BF00BF21
:102E100002680C3252E8002F22F0100102680C32D6
:102E200042E80013002BF3D100BF202180F83E10B0
:102E300000210163704710B504462068C06820F087
:102E400040002168C860202084F83D002046FFF73C
:102E50007AFA002010BD000008B5014614488142EE
:102E600025D100680068C0F3001000B300BF002047
:102E700000900F480068006800900D4800684068A6
:102E8000009000BF00BF0B48407A0A4A127A40EA1D
:102E90000220094A10800020084A107000BF04E098
:102EA0000022044B1A54421CD0B20B28F8DB08BD98
:102EB000480100200C0600201A0000201600002007
:102EC000F8B5044694F83E00222873D1A068B0F506
:102ED000805F0CD1206950B90025A66A206840683F
:102EE000C0F308003080A06A801CA06215E0A56ACB
:102EF0000026A068B0F5805F03D0A06828B92069DB
:102F000018B920684068287004E02068406800F024
:102F10007F002870A06A401CA062E08D401E80B235
:102F2000E085002844D12068C06820F02000216896
:102F3000C8602068C06820F480702168C86020687C
:102F4000406920F0010021684861202084F83E009B
:102F5000206B012826D10020206300BF00BF21681C
:102F60000C3151E8001F21F0100021680C3141E8BC
:102F70000002002AF3D100BF2068006800F01000B2
:102F800010280AD100BF002000902068006800903F
:102F900020684068009000BF00BFA18D2046FEF76A
:102FA0002AFF02E02046FFF741F90020F8BD01E0CA
:102FB0000020FBE70220F9E72DE9F84F04462068DE
:102FC000006920F44050E1680843216808612169E4
:102FD000A068084361690843E169084300902068DC
:102FE000C06849F20C618843009908432168C860B1
:102FF0002068406920F44070A16908432168486155
:1030000076492068884203D075492068884203D1F8
:10301000FDF706FF814602E0FDF7F2FE8146E0691A
:10302000B0F5004F6CD102206168A0FB015003464F
:103030001920A9FB007001462A463846FDF71AF907
:103040006421B0FBF1F04FEA001A02206168A0FB96
:1030500001510B461920A9FB00712A463846FDF79D
:1030600009F9834602206168A0FB0150034619203C
:10307000A9FB00712A463846FDF7FCF86421B0FB35
:10308000F1F000EBC00101EB0010ABEB800032214E
:1030900001EBC0006421B0FBF1F000F0F8000AEB96
:1030A000400A02206168A0FB015003461920A9FBD9
:1030B000007001462A463846FDF7DCF883460220B8
:1030C0006168A0FB015003461920A9FB00712A4644
:1030D0003846FDF7CFF86421B0FBF1F000EBC001FA
:1030E00001EB0010ABEB8000322101EBC00064214A
:1030F000B0FBF1F000F007005044216888606AE0FE
:1031000004206168A0FB015003461920A9FB007050
:1031100001462A463846FDF7ADF88246042061682C
:10312000A0FB015003461920A9FB007001462A4666
:103130003846FDF79FF86421B0FBF1F000EBC001C9
:1031400001EB0010AAEB8000322101EB001064219A
:10315000B0FBF1F000F0F00A04206168A0FB017000
:1031600003461920A9FB00513A462846FDF782F88C
:103170006421B0FBF1F00AEB001A04206168A0FBA7
:1031800001510B461920A9FB00712A463846FDF76C
:1031900071F8834604206168A0FB015003461920A2
:1031A000A9FB007001462A463846FDF763F8642102
:1031B000B0FBF1F000EBC00101EB0010ABEB8000C5
:1031C000322101EB00106421B0FBF1F000F00F00A0
:1031D000504421688860BDE8F88F0000001001406D
:1031E0000014014010B5034699629A85DA850020E3
:1031F0001864222083F83E0000BF002083F83C00C2
:1032000000BF1868C06840F480701C68E0601868EF
:10321000406940F001001C6860611868C06840F0B7
:1032200020001C68E060002010BD014691F83D00C0
:10323000212828D18868B0F5805F0BD1086948B98A
:103240000A6A1088C0F308000B685860086A801C7E
:10325000086205E00B6A581C086218780B68586011
:10326000C88C401E80B2C88458B90868C06820F075
:1032700080000B68D8600868C06840F040000B68A8
:10328000D860002070470220FCE72DE9F041044699
:103290000D4617469846069E34E0701C88B32EB142
:1032A000FDF726FAA0EB0800B0422BD900BF00BF03
:1032B00021680C3151E8001F21F4D07021680C31D5
:1032C00041E80002002AF3D100BF00BF00BF21681F
:1032D000143151E8001F21F001002168143141E848
:1032E0000002002AF3D100BF202084F83D0084F8BA
:1032F0003E0000BF002084F83C0000BF0320BDE872
:10330000F081FFE7206800682840A84201D1012031
:1033100000E00020B842C0D00020F0E710B503481C
:10332000FEF76CFD0148FFF797FD10BD4801002036
:1033300000BFFEE703B401984100009850EAC120A5
:1033400018BF04204A0D18BF40F0010040F2FF7280
:10335000B2EB515F08BF40F00200012808BF052012
:1033600002B0704702480068C0F3022070470000B6
:103370000CED00E010B5002804DB0A07130E054A27
:10338000135406E00A07140E034A00F00F031B1F34
:10339000D45410BD00E400E018ED00E0000000008F
:1033A00010B51D499FED1A1B2DED020B84B0059839
:1033B00020F000408842DCBF01209DED040B21DDA0
:1033C0001649884209D1049840B94FF00100FCF732
:1033D000F7FF00F071FC06B010BD05DB9DED040B9E
:1033E00000F05EFC06B010BD68469DED040B00F0D9
:1033F00017F800F001000121A1EB40009DED021B38
:103400009DED000B00F0A4FA06B010BD0000000016
:103410000000000000000000FB21E93F0000F07FF9
:103420002DE9F14F04462DED020B2DED088B8AB0EE
:103430009FEDE70B80ED020B139EE74826F0004559
:1034400085420ADC9DED120B002084ED000B0AB0D2
:10345000BDEC088B03B0BDE8F08FE0489FEDE0AB1A
:103460009FEDE1BBA84247DDE14F9FEDE39B9FED60
:10347000E48B9DED120B53EC1A2B51EC100B002E2C
:103480001CDD02F08DF841EC100BBD4208D053EC6E
:103490001B2B51EC100B02F083F8C4E900010BE088
:1034A00053EC192B51EC100B02F07AF853EC182B5B
:1034B00002F076F8C4E900010120C8E701F0DEFC63
:1034C00041EC100BBD4208D053EC1B2B51EC100B00
:1034D00001F0D4FCC4E900010BE053EC192B51ECD2
:1034E000100B01F0CBFC53EC182B01F0C7FCC4E926
:1034F00000014FF0FF30AAE7C348A84279DB9DEDF9
:10350000120B51EC100B01F081FB41EC180B9FEDFD
:10351000C00B53EC102B01F039FF9FEDBF1B53EC98
:10352000112B01F0ABFC01F0A9FE074601F003FFEF
:1035300041EC190B53EC1A2B01F028FF53EC182B1C
:1035400002F022F841EC180B53EC1B2B51EC190B39
:1035500001F01CFFDFF8C8A241EC100B4FEA155830
:103560000125FA4453EC102B51EC180B02F018F81B
:10357000032DC4E900013DD0C1F30A5005EB45110C
:10358000A8EB00001139814234DA0AEB051BB0EEDA
:1035900048AA9BED000BF0EE68AA53EC102B51ECFF
:1035A000190B01F0F3FE41EC1B0B51EC1A0B53EC21
:1035B0001B2B01F0F5FF41EC180B51EC1A0B53ECEF
:1035C000182B01F0EDFF53EC1B2B01F0E9FF9BEDF5
:1035D000020B41EC1A0B53EC102B51EC190B01F0C0
:1035E000D5FE53EC1A2B01F0DBFF41EC100B6D1CE8
:1035F000B8E70EE0002EA8BF3846BFF628AF94ED1E
:10360000000B51EC100B01F0FBFBC4E90001784208
:103610001DE7C6F3130040F4801EC6F30A50A0F263
:10362000F530471100F01F05C5F12000DDF848B066
:1036300008900020069007900520EC467949002D5F
:1036400007EB0002794408BF51F8221009D051F865
:10365000223001EB8201AB404A68089922FA01F15D
:103660001943A1FB0E26A1FB0B131A449A4234BF47
:103670000123002303EB06080CEB8003D3E901A62A
:103680000E448E4234BF0121002192448A4411B17C
:10369000924502D903E0924501D2012100E00021C8
:1036A000C3E901A641444CF82010011EA0F101001D
:1036B000C4DC029800F10050850F0298DDE9036731
:1036C0008000DDF8148001F036FE41EC1A0B304624
:1036D00001F048FE9FED541B53EC112B01F056FEF8
:1036E00041EC1B0B384601F03DFE9FED511B53ECA6
:1036F000112B01F04BFE41EC180B404601F032FE5D
:103700009FED4D1B53EC112B01F040FE41EC190BCA
:1037100051EC180B53EC192B01F0B0FB53EC1B2BA5
:1037200001F0ACFB53EC1A2B01F0A8FBCDE908012A
:10373000002008909DED080B53EC1A2B51EC100B58
:1037400001F02EFF53EC1B2B01F02AFF53EC182B3A
:1037500001F026FF53EC192B01F016FF9FED381BEB
:1037600053EC112B01F012FE9FED370B41EC180BBF
:1037700053EC102B9DED080B51EC100B01F006FEE5
:1037800053EC182B01F07AFB9FED310B41EC180B39
:1037900053EC102B9DED080B51EC100B01F0F6FDD6
:1037A00053EC182B01F06AFB41EC100B139810F04E
:1037B000004F06D06D4251EC100B01F021FB41ECA3
:1037C000100B284684ED000B41E6000000000000CD
:1037D0000000000000000000FB21E93F7CD902400E
:1037E00000004054FB21F93F3163621A61B4D03DBF
:1037F000FB21F93F000000000000601A61B4D03DD9
:103800007370032E8A19A33BFB213941000000008D
:1038100083C8C96D305FE43F000000000000E03F56
:103820002223000070220000000000000000103E73
:10383000000000000000103C000000000000103AF2
:10384000182D4454FB21F93D3326A611460B113C9B
:1038500000000054FB21F93D70B504462DED028BAC
:103860004D1E00EBC500B0EE408AF0EE608A90ED90
:10387000000B35F0060017D053EC182B51EC100B51
:1038800001F084FD41EC100B6D1E04EBC50090EDC2
:10389000001B51EC100B53EC112B01F0EFFA41EC33
:1038A000100B35F00600E7D1022D36D0042D1CD0C8
:1038B000062D1CBFBDEC028B70BD53EC182B51ECD8
:1038C000100B01F063FD94ED0A1B53EC112B01F07A
:1038D000D5FA53EC182B01F059FD94ED081B53EC6D
:1038E000112B01F0CBFA41EC100B53EC182B51ECDF
:1038F000100B01F04BFD94ED061B53EC112B01F066
:10390000BDFA53EC182B01F041FD94ED040B53EC80
:10391000102B01F0B3FA41EC100B53EC182B51ECC7
:10392000100B01F033FD94ED021B53EC112B01F051
:10393000A5FA53EC182B01F029FD94ED001B53EC74
:10394000112B01F09BFABDEC028B41EC100B70BD0A
:10395000F1B506462DED040BBD482DED0C8B8AB05C
:10396000B0EE418AF0EE618A179D25F000449FED8C
:10397000BABB9FEDBBCB844208DA9DED160B51EC30
:10398000100B01F07BFC002800F0E980B64FA74245
:1039900031DC002D0DDA9DED160B51EC100B01F012
:1039A0002FFACDE9160151EC180B01F029FA41EC80
:1039B000180B9FEDAF0B53EC102B9DED160B51EC3C
:1039C000100B01F0E1FD53EC182B9FEDAB0BCDE993
:1039D000040151EC100B01F0E3FD41EC100B53EC32
:1039E000102B9DED040B51EC100B01F047FA9FEDED
:1039F000A48BCDE916019DED160B53EC102B51EC69
:103A0000100B01F0C3FCCDE904019DED040B53EC58
:103A1000102B51EC100B01F0B9FC41EC190B9A483A
:103A20000621B0EE490AF0EE690A7844FFF714FF68
:103A30009648B0EE40DAF0EE60DAB0EE490AF0EE09
:103A4000690A06217844FFF707FF9DED041B51EC3E
:103A5000100B53EC112B01F099FC9DED040B41EC84
:103A60001A0B53EC102B9DED160B51EC100B01F0C3
:103A70008DFC41EC190B53EC1A2B51EC1D0B01F092
:103A8000FDF953EC192B01F081FC53EC182B01F0DC
:103A9000F5F99DED041B53EC112B01F077FC53EC71
:103AA000182B01F0EBF941EC180B9FED790B51EC61
:103AB000190B53EC102B01F069FC53EC182B01F09F
:103AC000DDF941EC190B9DED160B53EC192B51EC64
:103AD000100B01F0D3F941EC180BA74269DC30461A
:103AE00001F029FC41EC1A0B51EC180B53EC1A2B8A
:103AF00001F0C4F941EC1B0B53EC182B51EC180BE3
:103B000001F044FC53EC1B2B01F060FA53EC192B31
:103B100001F046FD9DED161B53EC112B01F034FD19
:103B20009FED5D1B53EC112B01F030FC53EC1A2B75
:103B300001F02AFD41EC180B022000EAA570C0F14B
:103B4000010001F0F8FB53EC182B01F01FFC00BF43
:103B500041EC100B0AB0BDEC0C8B05B0F0BD711C34
:103B60001698214308430CD09DED160B012E1CBF67
:103B700053EC102B51EC1C0B10D000BF01F026FAB7
:103B8000E6E79DED160B51EC100B01F03FF841EC10
:103B9000100B51EC1B0B53EC102BEFE751EC100BFF
:103BA000FFF7C8FB042808BF00F096F89DED160B40
:103BB000D0E7012E04BFB0EE480AF0EE680AC9D083
:103BC0008DED048B002404949DED040B53EC102B1D
:103BD0009DED160B51EC100B01F0D6FC53EC192B9C
:103BE00001F0D2FC41EC190B53EC182B51EC1C0BDF
:103BF00001F0ECF941EC180B8DED008B00949DED7C
:103C0000040B53EC102B9DED000B51EC100B01F04D
:103C1000BDFB53EC1B2B01F031F99DED000B41EC8A
:103C20001A0B53EC192B51EC100B01F0AFFB53ECBA
:103C30001A2B01F023F953EC182B01F0A7FB9DED93
:103C4000001B53EC112B01F019F981E70000000073
:103C50000000303E00000000000000000000F03FC7
:103C6000000000000000F0BF2894E53F00000000C5
:103C7000182D4454FB21E93F075C143326A6813CF0
:103C80000000000000000000221F0000381F00009C
:103C9000635555555555D53F0000000000000040C4
:103CA00010B553EC102B51EC100B01F0E7F841EC80
:103CB000100B10BD000000009FED050B10B553EC7C
:103CC000102B51EC100B01F081F941EC100B10BDE1
:103CD00000000000000000009FED050B10B553EC44
:103CE000102B51EC100B01F051FB41EC100B10BDEF
:103CF000000000000000001002460B4600210846AC
:103D0000511A73EB000006DA00200146D2EB0000E6
:103D100061EB0301704710461946FBE72DE9F041BE
:103D200006460F46002461E000255BE0A4F1400058
:103D30004043A5F140018C4601FB0C0007FB170036
:103D4000C1170246FFF7D8FF23230022181A8A4121
:103D500046DB701C00EE100AB8EEC00A00F0E2FF6D
:103D6000A5F1400000EE900AF8EEE00A80EE801A1D
:103D70009FED200A31EE000AF2EE040A70EE600AAE
:103D800000EE104AB8EE400AF4EEC00AF1EE10FA66
:103D900026D8701E00EE900AF8EEE00AB0EE600A37
:103DA00000F0C0FFA5F1400000EE900AF8EEE00A36
:103DB00080EE801A9FED0F0A31EE000AF2EE040A3F
:103DC00070EE200A00EE104AB8EE400AF4EEC00A87
:103DD000F1EE10FA04DB012229462046FEF744FDED
:103DE000681CC5B2402DA1DB601CC4B2802C9BDBDB
:103DF000BDE8F0810000804210B501223B21002087
:103E0000FEF732FD01223C210020FEF72DFD0122AC
:103E10003D210020FEF728FD01223E210020FEF773
:103E200023FD01223F210020FEF71EFD0122342147
:103E30001046FEF719FD012235211046FEF714FD4C
:103E4000012236211046FEF70FFD0122302102200B
:103E5000FEF70AFD012231210220FEF705FD0122B5
:103E60002C210320FEF700FD01222D210320FEF767
:103E7000FBFC01222A210420FEF7F6FC0122272167
:103E80000520FEF7F1FC012225210620FEF7ECFCBF
:103E9000012223210720FEF7E7FC0122212108202F
:103EA000FEF7E2FC01221F210920FEF7DDFC0122C2
:103EB0001E210A20FEF7D8FC01221C210B20FEF750
:103EC000D3FC01221B210C20FEF7CEFC012219217C
:103ED0000D20FEF7C9FC012218210E20FEF7C4FCBC
:103EE000012217210F20FEF7BFFC0122162110200E
:103EF000FEF7BAFC012210211620FEF7B5FC0122C4
:103F00000F211720FEF7B0FC01220E211820FEF72A
:103F1000ABFC01220D211920FEF7A6FC01220C2189
:103F20001B20FEF7A1FC01220B211C20FEF79CFCAC
:103F300001220A211E20FEF797FC012209211F20E1
:103F4000FEF792FC012208212120FEF78DFC0122C0
:103F500007212320FEF788FC012206212520FEF7F9
:103F600083FC012205212720FEF77EFC012204218B
:103F70002A20FEF779FC012203212C20FEF774FC95
:103F8000012203212D20FEF76FFC012202213020A7
:103F9000FEF76AFC012202213120FEF765FC0122B6
:103FA00011463420FEF760FC012211463520FEF751
:103FB0005BFC012211463620FEF756FC012200214F
:103FC0003B20FEF751FC012200213C20FEF74CFC77
:103FD000012200213D20FEF747FC012200213E2066
:103FE000FEF742FC012200213F20FEF73DFC0122AA
:103FF00000214020FEF738FC012200214120FEF77D
:1040000033FC012200214220FEF72EFC0122002178
:104010004320FEF729FC012200214420FEF724FC66
:10402000012200214520FEF71FFC012211464A20F3
:10403000FEF71AFC012211464B20FEF715FC012267
:1040400011464C20FEF710FC012202214F20FEF702
:104050000BFC012202215020FEF706FC0122032165
:104060005320FEF701FC012203215420FEF7FCFB44
:10407000012204215620FEF7F7FB012205215920D9
:10408000FEF7F2FB012206215B20FEF7EDFB012289
:1040900007215D20FEF7E8FB012208215F20FEF7E3
:1040A000E3FB012209216120FEF7DEFB01220A2148
:1040B0006220FEF7D9FB01220B216420FEF7D4FB1E
:1040C00001220C216520FEF7CFFB01220D21672084
:1040D000FEF7CAFB01220E216820FEF7C5FB012274
:1040E0000F216920FEF7C0FB012210216A20FEF794
:1040F000BBFB012216217020FEF7B6FB012217211F
:104100007120FEF7B1FB012218217220FEF7ACFBF3
:10411000012219217320FEF7A7FB01221B21742025
:10412000FEF7A2FB01221C217520FEF79DFB012258
:104130001E217620FEF798FB01221F217720FEF733
:1041400093FB012221217820FEF78EFB01222321FF
:104150007920FEF789FB012225217A20FEF784FBD6
:10416000012227217B20FEF77FFB01222A217C20D0
:10417000FEF77AFB01222C217D20FEF775FB012240
:104180002D217D20FEF770FB012230217E20FEF7DD
:104190006BFB012231217E20FEF766FB01223421D8
:1041A0007F20FEF761FB012235217F20FEF75CFBBB
:1041B000012236217F20FEF757FB01223C212020DF
:1041C000FEF752FB01223D212020FEF74DFB01228C
:1041D0003E212020FEF748FB01223F212020FEF750
:1041E00043FB012237212120FEF73EFB012238212B
:1041F0002120FEF739FB012239212120FEF734FB73
:10420000012234212220FEF72FFB0122352122201A
:10421000FEF72AFB012232212320FEF725FB012293
:1042200033212320FEF720FB012230212420FEF73A
:104230001BFB012231212420FEF716FB01222F2136
:104240002520FEF711FB01222D212620FEF70CFB75
:1042500001222C212720FEF707FB01222B212820F9
:10426000FEF702FB01222A212920FEF7FDFA012296
:1042700029212A20FEF7F8FA012228212B20FEF717
:10428000F3FA012227212C20FEF7EEFA0122262143
:104290002D20FEF7E9FA012225212F20FEF7E4FA6E
:1042A000012224213020FEF7DFFA012224213120CF
:1042B000FEF7DAFA012223213220FEF7D5FA012295
:1042C00023213320FEF7D0FA012222213420FEF7E9
:1042D000CBFA012222213520FEF7C6FA0122212144
:1042E0003720FEF7C1FA012221213820FEF7BCFA5F
:1042F000012221213920FEF7B7FA012220213C209A
:10430000FEF7B2FA012220213D20FEF7ADFA01228C
:1043100020213E20FEF7A8FA012220213F20FEF7AF
:10432000A3FA012220214020FEF79EFA012220213B
:104330004120FEF799FA012220214220FEF794FA4B
:10434000012220214320FEF78FFA01222021442060
:10435000FEF78AFA012221214720FEF785FA012281
:1043600021214820FEF780FA012221214920FEF771
:104370007BFA012222214B20FEF776FA012222212C
:104380004C20FEF771FA012223214D20FEF76CFA32
:10439000012223214E20FEF767FA012224214F201B
:1043A000FEF762FA012224215020FEF75DFA012275
:1043B00025215120FEF758FA012226215320FEF72D
:1043C00053FA012227215420FEF74EFA0122282118
:1043D0005520FEF749FA012229215620FEF744FA1A
:1043E00001222A215720FEF73FFA01222B215820D3
:1043F000FEF73AFA01222C215920FEF735FA012264
:104400002D215A20FEF730FA01222F215B20FEF7E2
:104410002BFA012230215C20FEF726FA01223121FD
:104420005C20FEF721FA012232215D20FEF71CFA02
:10443000012233215D20FEF717FA012234215E208C
:10444000FEF712FA012235215E20FEF70DFA012255
:1044500037215F20FEF708FA012238215F20FEF79E
:1044600003FA012239215F20FEF7FEF901223C21E7
:104470006020FEF7F9F901223D216020FEF7F4F9F2
:1044800001223E216020FEF7EFF901223F2160204A
:10449000FEF7EAF9012200210846FEF7E5F90122BC
:1044A00011461046FEF7E0F9012202210846FEF708
:1044B000DBF9012203210846FEF7D6F90122042187
:1044C0000846FEF7D1F9012205210846FEF7CCF98E
:1044D000012206210846FEF7C7F9012207210846F6
:1044E000FEF7C2F9012208210846FEF7BDF90122B4
:1044F00009210846FEF7B8F901220A210846FEF70D
:10450000B3F901220B210846FEF7AEF901220C2176
:104510000846FEF7A9F901220D210846FEF7A4F985
:1045200001220E210846FEF79FF901220F210846BD
:10453000FEF79AF9012210210846FEF795F90122AB
:1045400011210846FEF790F9012212210846FEF7D4
:104550008BF9012213210846FEF786F90122142166
:104560000846FEF781F9012215210846FEF77CF97D
:10457000012216210846FEF777F901221721084685
:10458000FEF772F9012218210846FEF76DF90122A3
:1045900019210846FEF768F901221A210846FEF79C
:1045A00063F901221B210846FEF75EF901221C2156
:1045B0000846FEF759F901221D210846FEF754F975
:1045C00001221E210846FEF74FF901221F2108464D
:1045D000FEF74AF9012220210846FEF745F901229B
:1045E00021210846FEF740F9012222210846FEF764
:1045F0003BF9012223210846FEF736F90122242146
:104600000846FEF731F9012225210846FEF72CF96C
:10461000012226210846FEF727F901222721084614
:10462000FEF722F9012228210846FEF71DF9012292
:1046300029210846FEF718F901222A210846FEF72B
:1046400013F901222B210846FEF70EF901222C2135
:104650000846FEF709F901222D210846FEF704F964
:1046600001222E210846FEF7FFF801222F210846DD
:10467000FEF7FAF8012230210846FEF7F5F801228C
:1046800031210846FEF7F0F8012232210846FEF7F4
:10469000EBF8012233210846FEF7E6F80122342127
:1046A0000846FEF7E1F8012235210846FEF7DCF85E
:1046B000012236210846FEF7D7F8012237210846A5
:1046C000FEF7D2F8012238210846FEF7CDF8012284
:1046D00039210846FEF7C8F801223A210846FEF7BC
:1046E000C3F801223B210846FEF7BEF801223C2117
:1046F0000846FEF7B9F801223D210846FEF7B4F856
:1047000001223E210846FEF7AFF801223F2108466C
:10471000FEF7AAF801223F214120FEF7A5F8012269
:104720003E214220FEF7A0F801223D214320FEF762
:104730009BF801223C214420FEF796F801223B2100
:104740004520FEF791F801223A214620FEF78CF829
:10475000012239214720FEF787F80122382148201D
:10476000FEF782F8012237214920FEF77DF8012269
:1047700036214A20FEF778F8012235214B20FEF73A
:1047800073F8012234214C20FEF76EF80122332108
:104790004D20FEF769F8012232214E20FEF764F821
:1047A000012231214F20FEF75FF8012230215020F5
:1047B000FEF75AF801222F215120FEF755F8012269
:1047C0002E215220FEF750F801222D215320FEF712
:1047D0004BF801222C215420FEF746F801222B2110
:1047E0005520FEF741F801222A215620FEF73CF819
:1047F000012229215720FEF737F8012228215820CD
:10480000FEF732F8012227215920FEF72DF8012268
:1048100026215A20FEF728F8012225215B20FEF7E9
:1048200023F8012224215C20FEF71EF80122232117
:104830005D20FEF719F8012222215E20FEF714F810
:10484000012221215F20FEF70FF8012220216020A4
:10485000FEF70AF801221F216120FEF705F8012268
:104860001E216220FEF700F801221D216320FDF7C2
:10487000FBFF01221C216420FDF7F6FF01221B2112
:104880006520FDF7F1FF01221A216620FDF7ECFFFC
:10489000012219216720FDF7E7FF01221821682076
:1048A000FDF7E2FF012217216920FDF7DDFF01225C
:1048B00016216A20FDF7D8FF012215216B20FDF794
:1048C000D3FF012214216C20FDF7CEFF012213211A
:1048D0006D20FDF7C9FF012212216E20FDF7C4FFF4
:1048E000012211216F20FDF7BFFF0122102170204E
:1048F000FDF7BAFF01220F217120FDF7B5FF01225C
:104900000E217220FDF7B0FF01220D217320FDF76B
:10491000ABFF01220C217420FDF7A6FF01220B2121
:104920007520FDF7A1FF01220A217620FDF79CFFEB
:10493000012209217720FDF797FF01220821782025
:10494000FDF792FF012207217920FDF78DFF01225B
:1049500006217A20FDF788FF012205217B20FDF743
:1049600083FF012204217C20FDF77EFF0122032129
:104970007D20FDF779FF012202217E20FDF774FFE3
:10498000012211467F20FDF76FFF01220021402008
:10499000FDF76AFF012211464020FDF765FF012265
:1049A00002214020FDF760FF012203214020FDF796
:1049B0005BFF012204214020FDF756FF0122052163
:1049C0004020FDF751FF012206214020FDF74CFF5A
:1049D000012207214020FDF747FF01220821402046
:1049E000FDF742FF012209214020FDF73DFF012292
:1049F0000A214020FDF738FF01220B214020FDF75E
:104A000033FF01220C214020FDF72EFF01220D2152
:104A10004020FDF729FF01220E214020FDF724FF51
:104A200001220F214020FDF71FFF0122102140200D
:104A3000FDF71AFF012211214020FDF715FF012289
:104A400012214020FDF710FF012213214020FDF725
:104A50000BFF012214214020FDF706FF0122152142
:104A60004020FDF701FF012216214020FDF7FCFE4A
:104A7000012217214020FDF7F7FE012218214020D6
:104A8000FDF7F2FE012219214020FDF7EDFE012283
:104A90001A214020FDF7E8FE01221B214020FDF7EE
:104AA000E3FE01221C214020FDF7DEFE01221D2134
:104AB0004020FDF7D9FE01221E214020FDF7D4FE43
:104AC00001221F214020FDF7CFFE0122202140209E
:104AD000FDF7CAFE012221214020FDF7C5FE01227B
:104AE00022214020FDF7C0FE012223214020FDF7B6
:104AF000BBFE012224214020FDF7B6FE0122252124
:104B00004020FDF7B1FE012226214020FDF7ACFE3A
:104B1000012227214020FDF7A7FE01222821402065
:104B2000FDF7A2FE012229214020FDF79DFE012272
:104B30002A214020FDF798FE01222B214020FDF77D
:104B400093FE01222C214020FDF78EFE01222D2113
:104B50004020FDF789FE01222E214020FDF784FE32
:104B600001222F214020FDF77FFE0122302140202D
:104B7000FDF77AFE012231214020FDF775FE01226A
:104B800032214020FDF770FE012233214020FDF745
:104B90006BFE012234214020FDF766FE0122352103
:104BA0004020FDF761FE012236214020FDF75CFE2A
:104BB000012237214020FDF757FE012238214020F5
:104BC000FDF752FE012239214020FDF74DFE012262
:104BD0003A214020FDF748FE01223B214020FDF70D
:104BE00043FE01223C214020FDF73EFE01223D21F3
:104BF0004020FDF739FE01223E214020FDF734FE22
:104C000001223F214020FDF72FFE10BD82B0CDE9EB
:104C1000000121F0004001909DED000B02B051EC2D
:104C2000100B7047FBF75AFFFDF7FAFEFDF710FD7A
:104C3000FDF794FDFDF7ACFDFDF7E2FDFDF73AFD54
:104C4000FDF756FD0E48FCF7DBFC0E48FCF796FC22
:104C500000210C48FCF756FF0B48FCF78FFC0122A3
:104C60000A490B48FDF7C0FA09480068C06840F0DF
:104C7000100007490968C860FDF728FE00BFFEE77D
:104C800070000020B8000020000100201500002066
:104C9000480100207CB504460D461CB900208DF863
:104CA000040004E0012C02D140208DF804008DF8AE
:104CB00005506420022301AA782100900148FBF7E7
:104CC00005FE7CBD1C0000200146012901D1002009
:104CD00070470120FCE700000EB551208DF8000060
:104CE0000B208DF8010000208DF8020001208DF8C6
:104CF000030000208DF8040005208DF80500022037
:104D00008DF8060000208DF8070064208DF808005B
:104D100040F6FF73092269460148FDF7ABFA0EBD64
:104D20004801002010B52DED088BB0EE408A9FEDB4
:104D30002B0AB4EE408AF1EE10FA04D19FED280A56
:104D4000BDEC088B10BDB0EE000AB4EEC08AF1EEE7
:104D500010FA0ED29FED230BFEF722FBB0EE409A25
:104D6000F0EE609A51EC190B00F056F800EE100AC4
:104D7000E6E79FED1E0AB4EEC08AF1EE10FA0EDDF2
:104D80009FED1B0BFEF70CFBB0EE409AF0EE609A25
:104D900051EC190B00F040F800EE100AD0E718EEC5
:104DA000100A00F0E7FC41EC1B0B9FED130B53ECDA
:104DB000102B00F0EBFA41EC1A0BB0EE4A0AF0EEC1
:104DC0006A0AFEF7EDFAB0EE409AF0EE609A51EC06
:104DD000190B00F021F800EE100AB1E70000B44210
:104DE000F9021550399D52A246DFA13F000032431F
:104DF000A3E2BA397EDA0840399D52A246DF913FDC
:104E000081F00041704780F00040704721F0004180
:104E1000704720F00040704721F00042A2F160523C
:104E2000B2F5801F01F0004328BFD2F17F6C0BD98F
:104E30005FEA001C43EAC20242EB507018BF7047A1
:104E400028BF20F001007047B2F5801FBCBF184694
:104E500070474FEA410C1CF5001F02D2084600F0D3
:104E6000FFBC70B500F03CFB00000089FFF7F6BF07
:104E70004FF00040A0F580007047000010B591EAA7
:104E8000030F48BF83F0004300F19283841A71EB53
:104E9000030C05D2121943EB0C03001B61EB0C0150
:104EA000DFF824E14FEA1154A4EB135C1EEA430F30
:104EB00018BF9EEA445F73D023EA0E03DCF1200E94
:104EC00021EA045143F4801332D322FA0CFE10EB92
:104ED0000E0023FA0CFE41EB0E01CCF1200E03FA7A
:104EE0000EFE10EB0E0051F10001B1F5801FCCF168
:104EF000200E32D201EB045112FA0EF2BDE810403E
:104F000058BF7047401C38BF5FEA420218BF704765
:104F1000002814BF20F0010041F100014FEA4103D5
:104F200013F5001F38BF7047A1F1C04100F026BB48
:104F3000012A43EB0302ACF1200CDCF11F0E32BF5F
:104F40004FF0000E23FA0CF310EB030041EB045179
:104F5000B4EB115FD0D0A1EB045101F580114908E9
:104F60005FEA300001EB04510ED350F1000038BF6E
:104F700012FA0EFE08D1BDE81040C9E7401C38BF48
:104F80005FEA4202CAD1C3E7BDE810404FEA4103DD
:104F900013F5001F38BF7047A1F1C04100F0EEBA11
:104FA0009EEA445F08D011EA5E0FBDE8104004BFDE
:104FB00001F0004100207047BDE8104070B500F0DE
:104FC0008FFA00BF64FBBE3E0000E0FF2DE9C04148
:104FD00030B4DFF8A0C23CEA111418BF3CEA131445
:104FE00000F0EC8081EA03051CEA111444EAD57450
:104FF00018BF1CEA131500F0C780A4EB05044FF09E
:10500000004545EAC12145EAC32341EA505143EA3C
:10501000525304F17F74994204F500344FEAC020E2
:105020004FEAC22208BF904200F09C804FEA13650D
:105030000FF24016765D4FEA134506FB05F7C7F100
:10504000807706FB07F74FEAD737A7FB036876425E
:10505000C8F58038A7FB06CE38BFA8F1010807FBCA
:1050600008E64FF0000EA6FB028CE6FB03CEDCF157
:10507000000CCEF1004E38BFAEF1010EA6FB0C586D
:105080004FF000074FF00005E6FB0E87A1FB08C6B6
:10509000A0FB07CE16EB0E0645F10005E1FB076508
:1050A00015F1E04E7EBFA4F580345FEA46066D41FF
:1050B00016F1800745F100054FEA17274FEA06660B
:1050C00047EA0567A6F1DE46B6F1805F4FEA15258F
:1050D0001FD9384624F0010C05EBC471BCF1FE6FFA
:1050E00001EB0C1102D8F0BCBDE8008124425CBF8A
:1050F00001F5801E9EEAC47F02D4F0BCBDE80081A9
:10510000244238D4F0BCA1F1C041BDE8004100F018
:1051100035BA4FEAD22242EA43524FEAD323A7FBE1
:1051200002864FEAD02040EA415007FB03661EEAA0
:105130000E0F4FEAD12105FB026658BFA6EB0056C1
:10514000B6EB00564FEA520E4EEAC37E18EB0E0E37
:1051500056EB530EBDD518EB02085E417F1C55F18E
:105160000005B6E74FF480154FF000074FF000063A
:105170004FF00008ADE7F0BC4FF0000001F1C04176
:1051800001F00041BDE8008111EA0C1F0CEA131583
:1051900000D00CE013EA0C1F00F025804FF0000057
:1051A000F0BC81EA030101F00041BDE80081F0BCE0
:1051B000BDE8004181EA030100F0E0B9F0BCBDE8C0
:1051C000004170B500F08CF9097EFC3E00F007B894
:1051D00081EA03014FF0000001F00041704781EACD
:1051E000030100F0CBB9F0BCBDE800414FF0000076
:1051F00021497047FFFDFBF9F7F5F4F2F0EEEDEB16
:10520000E9E8E6E4E3E1E0DEDDDBDAD8D7D5D4D3C4
:10521000D1D0CFCDCCCBCAC8C7C6C5C4C2C1C0BF10
:10522000BEBDBCBBBAB9B8B7B6B5B4B3B2B1B0AF16
:10523000AEADACABAAA9A8A8A7A6A5A4A3A3A2A1FA
:10524000A09F9F9E9D9C9C9B9A99999897979695B5
:1052500095949393929191908F8F8E8E8D8C8C8B51
:105260008B8A8989888887878685858484838382D9
:10527000828181800000FF070000F87F4FEA410330
:105280004FEA5353A3F58063D3F11E03C8BFD3F194
:10529000210C0CDD4FF0004242EAC12242EA50529A
:1052A00032FA03FC8CEAE17CACEBE1707047102B26
:1052B000C4BF0020704703F5787CBCF1FF3F04D0E9
:1052C0006FF0004282EA2100704770B500F008F9E3
:1052D0004992248000207047F2E700004FEA115302
:1052E000A3F58063D3F11E03A8BFD3F1200C08DB24
:1052F0004FF0004242EAC12252EA505232FA03F021
:10530000704709420BD4102BC4BF0020704703F52F
:10531000787CBCF1FF3F05D04FF0FF3070474FF075
:105320000000704770B500F0DBF800BF49922480A0
:1053300000207047F0E710F0004248BF4042B0FA4A
:1053400080F310FA03F10AD0C3F11D0303F5806363
:105350004FEA415002EB035202EBD12170474FF06C
:1053600000007047B0FA80F310FA03F10AD0C3F1DD
:105370001D0303F580634FEA41504FEA035202EBED
:10538000D12170474FF0000070470000DFF848C19E
:1053900070B51CEA111E1EBF1CEA13159EEA0C0F05
:1053A00095EA0C0F00F06F8081EA030423EA4C13A6
:1053B0004EEAD47E21EA4C1141F4801143F480136B
:1053C000AE44A1FB024CA0FB0365AEF17F7E361913
:1053D00055EB0C05A1FB034C4CF10003A0FB021C98
:1053E00016EB0C06654153F10003094218BF46F065
:1053F000010613F4007F0BD14FEA03314FEA053069
:10540000340341EA155140EA16506FF003020AE0F6
:105410004FEAC3214FEAC520F40241EA555140EA60
:1054200056506FF0020202EB2E4201EB025585EA64
:10543000CE710AD05FEA440C18BF24F0004450F14A
:10544000000041F1000120EAD47040F2FE7C624588
:1054500000D270BDA84214BF4FF080444FF04044CA
:10546000002E08BF0024BEF1806FA8BFA1F1C0418B
:10547000BDE8704080F282804FF0000001F1C04131
:1054800001F0004170479EEA0C0F0CEA131518BF9B
:1054900095EA0C0F06D04FF0000081EA030E0EF0E3
:1054A000004170BD00F01CF88900013E00F007B813
:1054B00000F009B84FEA430C5FEA5C5C08D081EA6F
:1054C000030100F05BB84FEA410C5FEA5C5CF6D187
:1054D0004FF00000014970470000FF070000F87F0F
:1054E0000EF1020E2EF0030E5EF8046B364205D468
:1054F000012A43EB030515F5001F12D8012841EBE3
:10550000010C1CF5001F0CD80ED14FEAD17C15F50B
:10551000001F0CEB4C0C0CF1020C08BF4CEBD37CC5
:1055200004E04FF0080C01E04FEAD37C0CEB4C0593
:1055300026FA05F606F00706B6F1040C06D20EEBC5
:10554000860CBDE870404CF0010C6047DFE80CF0C1
:10555000090B02024FF000414FF00000A1F50021BD
:1055600070BD19461046012851EB010418BFD4F54F
:10557000001484BF002001F0004170BD0808A0F5B0
:1055800000114FEA3101704791EA030F10B581F025
:1055900000413FF57BAC83F0004300F009B8000008
:1055A00010B591EA030F48BF83F000433FF56EAC9E
:1055B000841A71EB030C07D212198CF0004C43EBE8
:1055C0000C03001B61EB0C01DFF8A4E14FEA11545E
:1055D000A4EB135C1EEA430F18BF9EEA445F00F081
:1055E000B08023EA6E03524221EA0451C3EB6E03FA
:1055F00038BF5B1EDCF1200E25D322FA0CFE10EB27
:105600000E0043FA0CFE41EB0E01CCF1200E03FA22
:105610000EFE10EB0E0051F10001CCF1200E29D44A
:1056200012FA0EF201EB0451BDE8104058BF70476A
:10563000401C1CBFB2F1004F704700280CBF491C32
:1056400020F00100704712EB020E43EB030218BF7B
:105650004FF0010E4EEA4202ACF1200CDCF11E0EBE
:1056600054D943FA0CFE10EB0E0051F1FF31CCF18E
:105670001E0ED5D50EF1010E12FA0EFE404141EB81
:10568000010101EB445C5FEA5C5C10D910EBDE7059
:1056900001EB045138BFBEF1004FBDE8104018BF08
:1056A000704700280CBF491C20F00100704730D221
:1056B0004FEAD42C11F5001124F400641BD0B1FA88
:1056C00081F20B3AA41AA41ED2F12003914030FAC1
:1056D00003F31943904001EBCC71002C01EB045112
:1056E000BDE81040A8BF704701F1C0414FF0000075
:1056F00001F000417047B0FA80F310FA03F100D1D5
:1057000010BDE41A173C4805C90AE4E701EB04514F
:1057100010BD491001EB0451BDE810404FEA3000C4
:1057200002E04FF0000170474A0008BF0042F8D085
:10573000B2F5001F28BF704701F000414FF0000094
:1057400070479EEA445F07D011EA5E0FBDE8104043
:1057500004BF002100207047BDE8104070B5FFF77E
:10576000BFFE00BF40DFF63E83F0004110467047A9
:105770000000E0FF43004FEAD30C4FEA3C0C4340EB
:105780001FBF40070CF1605113F0FE4F70471CF033
:10579000006F03D100200CF0004170470CF0004373
:1057A00043EA507010B540EACC0000F00EF800BF9C
:1057B000000000924FEA0001FFF7E0BE4FF0004109
:1057C0004FF00000A1F5002170470EF1020E2EF0FF
:1057D000030E5EF8044B244204D44FEA4102B2F1B6
:1057E0007F4F11D84FEA4003B3F17F4F0CD80ED151
:1057F0004FEAD07CB2F17F4F0CEB4C0C0CF1020C59
:1058000008BF4CEBD17C04E04FF0080C01E04FEAFC
:10581000D17C0CEB4C0324FA03F404F00704B4F13C
:10582000040C06D20EEB840CBDE810404CF0010CC9
:105830006047DFE80CF0070802024FF00040A0F5D7
:10584000800010BD0846420018BFD2F1807288BFA8
:1058500000F0004010BD4FF04070E1EE100A7047BC
:10586000FF2141EAD050C005704700000000000051
:1058700000000102030406070809000000000102FD
:10588000030400000000000000004054FB21F93F29
:105890003163621A61B4D03D0000601A61B4D03D3A
:1058A0007370032E8A19A33B0000002E8A19A33BB4
:1058B000C14920259A837B390000000000000000C8
:1058C0006E83F9A22915444ED15727FCC0DD34F56B
:1058D000999562DB4190433CAB6351FE61C5BBDEF1
:1058E0003A6E24B7E0D24D42EA2E49061C92D10905
:1058F0001CEB1DFE3EA729B1F53582E88444BB2E82
:1059000026709CE9417E5FB439D69139F4395383CE
:105910008B5F849C3B28F9BDFF97F81F0F9805DE2D
:105920008B112FEF1F6D0A5ACF7E366DB709CB272B
:10593000663F464F2DEA5F9EC7BA27757BF1E5EBC0
:10594000F739073DEA92528AB15FFB6B085D8D1F04
:105950007AFE10111111C13F37D60684F464963FC8
:10596000280356C9226D6D3F0165F2F2D844433FCA
:10597000A69237A0887E143F735360DBCB75F3BECD
:10598000FE41B31BBAA1AB3F93846EE9E326823F8D
:105990001583E0FEC8DB573F68108D1AF726303FAD
:1059A000E9A7F0320FB8123FD47ABF74702AFB3ED9
:1059B000D0590008000000201C000000D0010008A1
:1059C000EC5900081C000020EC0D0000EC01000860
:1059D0000000000010000000010000000024F4009E
:0C59E0000000F4010100000000000000C5
:040000050800019559
:00000001FF
