:020000040800F2
:10000000F807002035020008B5260008C1210008C5
:10001000B12600082B04000801320008000000008F
:10002000000000000000000000000000E5280008BB
:100030002F04000800000000E3280008E72800085B
:100040004F0200084F0200084F0200084F0200084C
:100050004F0200084F0200084F0200084F0200083C
:100060004F0200084F0200084F0200084F0200082C
:100070004F0200084F0200084F0200084F0200081C
:100080004F0200084F0200084F0200080000000065
:100090000000000000000000000000004F02000807
:1000A0004F020008B92900084F0200084F0200085B
:1000B0004F0200084F0200084F0200084F020008DC
:1000C0004F0200084F0200084F0200084F020008CC
:1000D0004F020008ED3100084F0200080000000048
:1000E0004F0200084F0200084F0200080000000005
:1000F0000000000000000000000000004F020008A7
:10010000000000004F0200084F0200084F020008E4
:1001100000000000000000000000000000000000DF
:100120004F0200084F0200084F0200084F0200086B
:100130004F02000800000000000000000000000066
:100140000000000000000000000000004F02000856
:100150004F0200084F0200084F0200084F0200083B
:100160004F0200084F0200080000000000000000DD
:10017000000000000000000000000000000000007F
:10018000000000004F020008000000000000000016
:100190004F02000800F002F800F03CF80AA090E8D6
:1001A000000C82448344AAF10107DA4501D100F032
:1001B00031F8AFF2090EBAE80F0013F0010F18BFC3
:1001C000FB1A43F001031847643B0000843B000026
:1001D000103A24BF78C878C1FAD8520724BF30C873
:1001E00030C144BF04680C60704700000023002445
:1001F00000250026103A28BF78C1FBD8520728BF37
:1002000030C148BF0B6070471FB503F091F81FBDA8
:1002100010B510BD00F0CFF81146FFF7F5FF03F061
:100220000DF800F0EDF803B4FFF7F2FF03BC00F0A7
:10023000F5F800000948804709480047FEE7FEE757
:10024000FEE7FEE7FEE7FEE7FEE7FEE7FEE7FEE786
:1002500004480549054A064B70470000A5290008D7
:1002600095010008F8010020F8070020F80300209D
:10027000F803002053EA020C00F069802DE9F04BEE
:100280004FF00006002B1FBFB3FA83F503FA05F405
:1002900024FA05F65E4012BF1643B2FA82F502FA5E
:1002A00005F4C5F120051EBF22FA05FC44EA0C0442
:1002B000203556EA044C4FEA144418BF641C4FF032
:1002C00000084FF00009904271EB030C39D300296C
:1002D00019BFB1FA81F701FA07F6B0FA80F700FA10
:1002E00007F6C7F120071EBF20FA07FC46EA0C06F6
:1002F0002037B6FBF4FCA7EB0507103F07F01F0BF8
:10030000CBF120060CFA0BFB2CFA06F644BFB346E1
:100310000026202FA4BF5E464FF0000B5BEA060CC0
:1003200008BF4FF0010B19EB0B09ABFB027C48EB4C
:100330000608C01B06FB02CC0BFB03CC71EB0C01C7
:10034000C1E70B46024641464846BDE8F08B13B56F
:100350004FF000004FF00001AFF30080BDE81C40FB
:1003600070474FF0000200B5134694469646203978
:1003700022BFA0E80C50A0E80C50B1F12001BFF45E
:10038000F7AF090728BFA0E80C5048BF0CC05DF8C4
:1003900004EB890028BF40F8042B08BF704748BF12
:1003A00020F8022B11F0804F18BF00F8012B704786
:1003B000704770477047754600F02CF8AE46050050
:1003C0006946534620F00700854618B020B5FFF770
:1003D0003FFFBDE820404FF000064FF000074FF010
:1003E00000084FF0000B21F00701AC46ACE8C00953
:1003F000ACE8C009ACE8C009ACE8C0098D4670475C
:1004000010B50446AFF300802046BDE81040FFF76A
:100410000ABF0000004870479401002001491820DD
:10042000ABBEFEE726000200704700BFFEE7704744
:1004300072B600BFFEE770B50446A56D00F04AF93C
:10044000064694F83500022808D08020606500BF79
:10045000002084F8340000BF012070BD20680068CF
:1004600020F01600216808602068406920F08000B4
:1004700021684861206C08B9A06C28B12068006828
:1004800020F00800216808602068006820F0010062
:100490002168086010E000F01DF9801B05280BD9C9
:1004A00020206065032084F8350000BF002084F818
:1004B000340000BF0320D0E72068006800F001008E
:1004C0000028E8D194F85C103F208840A860012003
:1004D00084F8350000BF002084F8340000BF00BF5E
:1004E000BBE7014691F83500022803D0802048651B
:1004F00001207047052081F835000868006820F069
:1005000001000A6810600020F3E70000F8B5024619
:100510000B460025002400200021C6E0012606FA33
:1005200001F51E6806EA0504AC4274D11E7906F096
:100530000306012E04D01E7906F00306022E13D105
:1005400090684F000326BE40B0434F00DE68BE40B7
:1005500030439060506801268E40B0431E79C6F348
:1005600000168E40304350601E7906F00306032EBD
:1005700009D0D0684F000326BE40B0434F009E68AC
:10058000BE403043D0601E7906F00306022E13D120
:10059000CF0802F1200656F827004E07F70E0F2667
:1005A000BE40B0434F07FF0E1E69BE403043CF0828
:1005B00002F1200646F8270010684F000326BE40CF
:1005C000B0431E7906F003064F00BE403043106072
:1005D0005E6806F44036002E66D000BF0026009606
:1005E000344E366846F48046324F3E603E463668AA
:1005F00006F48046009600BF00BF2F4E8F0856F8C5
:1006000027008E07370F0F26BE40B0432B4EB24255
:1006100002D1002615E047E0294EB24201D1012661
:100620000FE0284EB24201D102260AE0264EB24225
:1006300001D1032605E0254EB24201D1042600E097
:1006400007268F073F0FBE4030431B4E8F0846F8EA
:1006500027001F4E3068A0435E6806F4803606B15E
:1006600020431B4E3060361D3068A0435E6806F4A0
:10067000003606B12043164E361D3060361D3068F8
:10068000A0435E6806F4801606B12043104E08367B
:100690003060361D3068A0435E6806F4001606B16F
:1006A00020430B4E0C363060491C1029FFF436AF46
:1006B000F8BD000044380240083801400000024004
:1006C0000004024000080240000C024000100240FA
:1006D000003C014001480068704700000000002015
:1006E00070B504460CB9012070BD94F83D0028B9DE
:1006F000002084F83C00204600F092F9242084F881
:100700003D002068006820F0010021680860206832
:10071000006840F40040216808602068006820F408
:1007200000402168086000F05DFB05465C49606898
:10073000884206D85B48854201D2012007E00020AC
:1007400005E05948854201D2012000E0002001283F
:1007500000D1C9E75548B5FBF0F62068406820F0A5
:100760003F003043216848604D496068884201D8A5
:10077000701C07E04FF4967070434FF47A71B0FB31
:10078000F1F0401C2168096A21F03F01084321680B
:10079000086243496068884214D8681E616849004D
:1007A000B0FBF1F0401CC0F30B00042801D2042080
:1007B0003DE0681E61684900B0FBF1F0401CC0F3E9
:1007C0000B0034E0A06838B9681E616801EB410194
:1007D000B0FBF1F0401C0AE0681E616801EBC10249
:1007E00002EB0111B0FBF1F0401C40F48040C0F37B
:1007F0000B0008B901201AE0A06848B9681E6168BA
:1008000001EB4101B0FBF1F0401CC0F30B000CE028
:10081000681E616801EBC10202EB0111B0FBF1F04F
:10082000401CC0F30B0040F4804040F400402168BD
:10083000C9694CF6FF72914308432168C861D4E945
:10084000070108432168096821F0C00108432168B5
:100850000860D4E9031008432168896848F2FF3230
:100860009143084321688860D4E905010843216861
:10087000C96821F0FF0108432168C860206800684A
:1008800040F001002168086000202064202084F8E6
:100890003D000020206384F83E0000BF24E70000F4
:1008A000A086010080841E0000093D0040420F0028
:1008B0002DE9F8430446894616461F46DDF8208098
:1008C000FFF708FF054694F83D0020287ED1192344
:1008D000012251492046009501F022FD10B102206D
:1008E000BDE8F88300BF94F83C00012801D1022044
:1008F000F6E7012084F83C0000BF2068006800F0A3
:10090000010028B92068006840F0010021680860F3
:100910002068006820F4006021680860212084F8C5
:100920003D00102084F83E00002020646662678548
:10093000608D20853948E0622B4642464946204674
:1009400001F060FC08B10120CAE700BF0020009060
:1009500020684069009020688069009000BF00BF57
:1009600044E02A464146204601F07FFD50B1206C0C
:10097000042805D12068006840F4007021680860F0
:100980000120ADE7606A007821680861606A401C58
:100990006062608D401E6085208D401E208520682D
:1009A0004069C0F3800070B1208D60B1606A00784A
:1009B00021680861606A401C6062608D401E60852D
:1009C000208D401E20852A46414600E022E0204638
:1009D00001F078FC50B1206C042805D12068006833
:1009E00040F4007021680860012079E7208D00281C
:1009F000B7D12068006840F40070216808602020AA
:100A000084F83D00002084F83E0000BF84F83C00DC
:100A100000BF65E7022063E7020010000000FFFF4F
:100A200010B586B00446142101A8FFF79AFC1B49B3
:100A3000206888422FD100BF00200090184800682D
:100A400040F00200164908600846006800F0020005
:100A5000009000BF00BFC020019012200290002033
:100A60000390032004900420059001A90D48FFF78E
:100A70004DFD00BF0020009009481030006840F490
:100A800000100749103108600846006800F40010A3
:100A9000009000BF00BF06B010BD00000054004031
:100AA00030380240000402400348006803490978D6
:100AB0000844014908607047000000200800002039
:100AC00010B50D48006840F400700B4908600846F6
:100AD000006840F4806008600846006840F4807058
:100AE0000860032000F0A2F80F2000F007F800F0E3
:100AF0002BF8002010BD0000003C024070B50446F9
:100B00000E4800784FF47A71B1FBF0F00C49096897
:100B1000B1FBF0F5284600F02BFC08B1012070BDB8
:100B2000102C07D200222146501E00F041F8054843
:100B3000046001E00120F2E70020F0E70800002057
:100B40000C0000200400002008B500BF0020009029
:100B50000E48006840F480400C4908600846006870
:100B600000F48040009000BF00BF00BF0020009054
:100B7000081F006840F08050091F086008460068A0
:100B800000F08050009000BF00BF08BD4438024014
:100B900001460846002809DB00F01F0301229A40A5
:100BA00043099B0003F1E023C3F8002100BF704715
:100BB0002DE9F05F80460D461646002702F022FB25
:100BC000074639462A46334601F00700C0F1070AB6
:100BD000BAF1040F02D94FF0040A01E0C0F1070A8C
:100BE000D14600F1040ABAF1070F02D24FF0000A11
:100BF00001E0A0F1030AD4464FF0010A0AFA09FA0B
:100C0000AAF1010A0AEA020A0AFA0CFA4FF0010BE9
:100C10000BFA0CFBABF1010B0BEA030B4AEA0B04DA
:100C20002146404602F0F6FABDE8F09F00BF00F012
:100C30000702064B19684FF6FF031940044B0B439C
:100C400043EA0221014B196000BF70470CED00E040
:100C50000000FA0570B504460D460CB9012070BDC0
:100C60005848006800F00700A84209D255490D70A5
:100C70000846006800F00700A84201D00120EEE716
:100C8000207800F0020002281DD1207800F0040036
:100C9000042805D14C48006840F4E0504A490860F7
:100CA000207800F00800082805D14748006840F483
:100CB0006040454908604448006820F0F000A168A1
:100CC000084341490860207800F00100A8B360683B
:100CD000012807D13C4808380068C0F34040B8B943
:100CE0000120BCE76068022802D06068032807D1B1
:100CF000354808380068C0F3406048B90120AEE7C5
:100D0000314808380068C0F3400008B90120A6E760
:100D10002D48006820F00300616808432A490860F4
:100D2000FFF7D8FC064609E0FFF7D4FC801B41F230
:100D30008831884202D9032091E707E02248006801
:100D400000F00C006168B0EB810FEDD11D48006828
:100D500000F00700A84209D91A490D70084600683A
:100D600000F00700A84201D0012078E7207800F0C9
:100D70000400042807D11448006820F4E050E1681A
:100D8000084311490860207800F00800082808D1BD
:100D90000D48006820F46040216940EAC1000A491A
:100DA000086000F03FF808490968C1F30311074AD9
:100DB000515CC8400649086006480068FFF79EFE7F
:100DC00000204CE7003C0240083802403A3300085B
:100DD0000C0000200400002001480068704700005B
:100DE0000C00002000B5FFF7F7FF04490968C1F3C4
:100DF0008221034A515CC84000BD0000083802400F
:100E00004A33000800B5FFF7E7FF04490968C1F35A
:100E10004231034A515CC84000BD0000083802401E
:100E20004A3300082DE9F047002400250026A1469A
:100E30002548006800F00C0020B1042805D00828DF
:100E40003AD105E0DFF8849039E0DFF8849036E0AD
:100E50001D48001F006800F03F041B48001F006889
:100E600000F4800078B11A481749091F0968C1F3D6
:100E70008811A0FB01700146224600233846FFF787
:100E8000F9F905460EE011480F49091F0968C1F339
:100E90008811A0FB01700146224600233846FFF767
:100EA000E9F905460848001F0068C0F30140401CEE
:100EB0004600B5FBF6F902E0DFF8109000BF00BF76
:100EC0004846BDE8F0870000083802400024F400DE
:100ED00040787D01F8B504460CB90120F8BD2078B2
:100EE00000F00100002874D0F948006800F00C0000
:100EF00004280DD0F648006800F00C00082813D133
:100F0000F348001F006800F48000B0F5800F0BD19B
:100F1000EF4808380068C0F34040002859D06068A6
:100F2000002856D10120D9E700BF6068B0F5803FA6
:100F300008D1E7480838006840F48030E4490839AF
:100F400008601EE06068B0F5A02F0DD1E0480838B9
:100F5000006840F48020DE490839086008460068CF
:100F600040F4803008600CE0D9480838006820F46C
:100F70008030D749083908600846006820F480208E
:100F8000086000BF606890B1FFF7A4FB054606E06B
:100F9000FFF7A0FB401B642801D903209EE7CC4843
:100FA00008380068C0F340400028F1D011E0FFF796
:100FB00091FB054606E0FFF78DFB401B642801D935
:100FC00003208BE7C24808380068C0F3404000287F
:100FD000F1D1207800F0020002285FD1BC480068FF
:100FE00000F00C0058B1BA48006800F00C00082866
:100FF0001CD1B748001F006800F48000B0B9B448A5
:1010000008380068C0F3400020B1E068012801D032
:10101000012063E7AE480838006820F0F800216935
:1010200040EAC100AA490839086037E0E06800B327
:101030000120A8490860FFF74DFB054606E0FFF7D1
:1010400049FB401B022801D9032047E7A048083884
:101050000068C0F340000028F1D09D4808380068BF
:1010600020F0F800216940EAC10099490839086078
:1010700014E0002097490860FFF72CFB054606E0C6
:10108000FFF728FB401B022801D9032026E79048E0
:1010900008380068C0F340000028F1D1207800F043
:1010A000080008282CD16069A8B101208A4908608D
:1010B000FFF710FB054606E0FFF70CFB401B02287C
:1010C00001D903200AE782486C300068C0F3400071
:1010D0000028F1D014E000207F490860FFF7FAFAF9
:1010E000054606E0FFF7F6FA401B022801D9032067
:1010F000F4E677486C300068C0F340000028F1D176
:10110000207800F00400042870D10027704838309F
:10111000006800F0805090B900BF002000906C483B
:101120003830006840F0805069493831086008461E
:10113000006800F08050009000BF00BF01276748A2
:10114000006800F48070B0B96448006840F48070B2
:1011500062490860FFF7BEFA054606E0FFF7BAFAF3
:10116000401B022801D90320B8E65C48006800F45F
:1011700080700028F2D000BFA068012808D1544830
:101180006830006840F001005149683108601DE096
:10119000A06805280DD14E486830006840F0040072
:1011A0004B49683108600846006840F0010008605B
:1011B0000CE047486830006820F00100444968317D
:1011C00008600846006820F00400086000BFA068BE
:1011D000A8B1FFF77FFA054609E0FFF77BFA401B4D
:1011E00041F28831884202D9032077E626E0384868
:1011F00068300068C0F340000028EED013E0FFF72D
:1012000069FA054608E0FFF765FA401B41F28831AC
:10121000884201D9032061E62D4868300068C0F398
:1012200040000028EFD1012F07D12948383000684D
:1012300020F0805026493831086000BFA06900289E
:1012400045D02348006800F00C0008285DD0A06954
:10125000022845D100201F490866FFF73BFA0546E2
:1012600006E0FFF737FA401B022801D9032035E6D4
:10127000174808380068C0F340600028F1D1D4E96D
:1012800007010843616A40EA81110122A06AC2EBAA
:10129000500041EA00412C20005D41EA00600C4909
:1012A000091F086001200B490866FFF713FA05467D
:1012B00006E0FFF70FFA401B022801D903200DE6D4
:1012C000034808380068C0F340600028F1D049E0C6
:1012D0000838024000004742800E4742007000403C
:1012E000002021490866FFF7F5F9054606E0FFF7FB
:1012F000F1F9401B022801D90320EFE51B480068E3
:10130000C0F340600028F2D12CE0A069012800D190
:10131000E4E51648001D0668A069012820D006F4FF
:101320008001E06981421BD106F03F01206A8142C1
:1013300016D147F6C0703040616AB0EB811F0FD103
:1013400006F440310122A06AC2EB5000B1EB004F1D
:1013500006D106F070612C20005DB1EB006F01D06A
:101360000120BBE50020B9E50000474200380240FB
:1013700070B504462546681EB0F1807F01D3012078
:101380000FE0681E4FF0E02148610F214FF0FF3061
:1013900001F040FF00204FF0E02188610720086144
:1013A000002070BD7047704730B502460B4600BF45
:1013B00092F83C00012801D1022030BD012082F8C2
:1013C0003C0000BF022082F83D00106844681068AD
:1013D000816824F070041868044310684460144D58
:1013E0001068A84213D01068B0F1804F0FD0114D93
:1013F0001068A8420BD0104D1068A84207D00F4DBE
:101400001068A84203D00E4D1068A84205D121F003
:1014100080015868014310688160012082F83D0016
:1014200000BF002082F83C0000BF00BFC5E70000FD
:10143000000001400004004000080040000C004093
:101440000040014010B504460CB9012010BD94F8CD
:101450003D0028B9002084F83C00204600F026F822
:10146000022084F83D00211D206801F0B1FA01201E
:1014700084F8460000BF84F83E0001213F2001555A
:10148000402001554120015500BF00BF012084F8D4
:10149000420043200155442001554520015500BF1D
:1014A000012084F83D000020D0E7000038B5044654
:1014B00027492068884218D100BF002000902548A5
:1014C000006840F00100234908600846006800F009
:1014D0000100009000BF00BF002211461920FFF755
:1014E00067FB1920FFF754FB30E01B492068884256
:1014F00018D100BF002000901648006840F400306A
:10150000144908600846006800F40030009000BFED
:1015100000BF002211461920FFF74AFB1920FFF7F0
:1015200037FB13E00D49206888420FD100BF00202F
:1015300000900848006840F480200649086008468A
:10154000006800F48020009000BF00BF38BD00009C
:10155000000001404438024000440140004801407E
:10156000014691F83D00012801D00120704702207A
:1015700081F83D00164B0868984213D00868B0F116
:10158000804F0FD0134B086898420BD0124B08685D
:10159000984207D0114B0868984203D0104B086856
:1015A00098420CD10868806800F00702062A0CD027
:1015B0000868006840F001000B68186005E00868E2
:1015C000006840F001000B6818600020CEE70000C2
:1015D000000001400004004000080040000C0040F2
:1015E00000400140014691F83D00012801D0012052
:1015F0007047022081F83D000868C06840F0010093
:101600000B68D860164B0868984213D00868B0F190
:10161000804F0FD0134B086898420BD0124B0868CC
:10162000984207D0114B0868984203D0104B0868C5
:1016300098420CD10868806800F00702062A0CD096
:101640000868006840F001000B68186005E0086851
:10165000006840F001000B6818600020C8E7000037
:10166000000001400004004000080040000C004061
:10167000004001402DE9F04104460D46002700BF1F
:1016800094F83C00012802D10220BDE8F08101203D
:1016900084F83C0000BF022084F83D002068866882
:1016A00026F0770626F47F46206886602868502852
:1016B00033D00CDC202850D004DC00284BD010287C
:1016C00051D149E0302849D040284CD139E0602838
:1016D0002DD0702807D0B0F5805F03D0B0F5005F43
:1016E00041D10DE041E0D5E902136A68206801F0BC
:1016F000D2F92068866846F077062068866034E074
:10170000D5E902136A68206801F0C5F9206880688D
:1017100040F480402168886027E0EA6869682068B2
:1017200001F08AFA5021206801F0C0F91DE0EA6852
:101730006968206801F093FA6021206801F0B6F929
:1017400013E0EA686968206801F076FA40212068B1
:1017500001F0ACF909E000BF00BF00BF29682068B4
:1017600001F0A4F901E0012700BF00BF012084F8C7
:101770003D0000BF002084F83C0000BF384684E7ED
:10178000704710B5044620680069C0F34000D8B126
:101790002068C068C0F34000B0B16FF0020021685B
:1017A0000861012020772068806900F0030018B1EB
:1017B0002046FFF7E5FF05E0204600F0DDF8204673
:1017C00000F091F90020207720680069C0F38000C4
:1017D000D8B12068C068C0F38000B0B16FF00400D9
:1017E00021680861022020772068806900F4407039
:1017F00018B12046FFF7C4FF05E0204600F0BCF812
:10180000204600F070F90020207720680069C0F3BE
:10181000C000D8B12068C068C0F3C000B0B16FF09C
:10182000080021680861042020772068C06900F062
:10183000030018B12046FFF7A3FF05E0204600F0A3
:101840009BF8204600F04FF90020207720680069BF
:10185000C0F30010D8B12068C068C0F30010B0B168
:101860006FF0100021680861082020772068C069A7
:1018700000F4407018B12046FFF782FF05E02046D3
:1018800000F07AF8204600F02EF90020207720683A
:10189000006900F0010058B12068C06800F0010044
:1018A00030B16FF0010021680861204600F092F924
:1018B00020680069C0F3C01058B12068C068C0F348
:1018C000C01030B16FF08000216808612046FFF73A
:1018D00069FD20680069C0F3801058B12068C068B5
:1018E000C0F3801030B16FF04000216808612046DD
:1018F00000F0BCF920680069C0F3401058B12068BE
:10190000C068C0F3401030B16FF02000216808615A
:101910002046FFF748FD10BD10B586B004461421DF
:1019200001A8FEF71EFD1149206888421CD100BFA6
:10193000002000900E48006840F002000C4908604A
:101940000846006800F00200009000BF00BF881544
:101950000190022002900020039004900320059043
:1019600001A90448FEF7D2FD06B010BD00440140B5
:10197000303802400004024070472DE9F04104462F
:101980000D461646002700BF94F83C00012802D1FE
:101990000220BDE8F081012084F83C0000BF36B190
:1019A000042E1BD0082E31D00C2E5ED145E02946E6
:1019B000206801F085F82068806940F008002168FF
:1019C00088612068806920F00400216888612068AF
:1019D0008069296908432168886148E029462068B0
:1019E00001F09EF82068806940F4006021688861F9
:1019F0002068806920F4806021688861206880699F
:101A0000296940EA01202168886130E02946206880
:101A100001F0BAF82068C06940F008002168C86188
:101A20002068C06920F004002168C8612068C0698E
:101A3000296908432168C86119E02946206801F036
:101A4000D7F82068C06940F400602168C861206848
:101A5000C06920F480602168C8612068C069296974
:101A600040EA01202168C86101E0012700BF00BFF2
:101A700000BF002084F83C0000BF384689E710B55D
:101A800004460CB9012010BD94F83D0028B900208F
:101A900084F83C00204600F025F8022084F83D0040
:101AA000211D206800F094FF012084F8460000BF4B
:101AB00084F83E0001213F2001554020015541207E
:101AC000015500BF00BF012084F8420043200155AA
:101AD000442001554520015500BF012084F83D00F8
:101AE0000020D0E77047704770B504460D4615B921
:101AF00094F83E000BE0042D02D13F20005D06E08B
:101B0000082D02D14020005D01E04120005D012848
:101B100001D0012070BD1DB9022084F83E000EE006
:101B2000042D03D102213F20015508E0082D03D1E7
:101B300002214020015502E00221412001550122ED
:101B40002946206800F096FF1D492068884201D18F
:101B5000012000E0002028B12068406C40F40040E3
:101B60002168486416492068884213D02068B0F183
:101B7000804F0FD01349206888420BD0124920684B
:101B8000884207D011492068884203D01049206854
:101B900088420CD12068806800F00706062E0CD021
:101BA0002068006840F001002168086005E02068B6
:101BB000006840F00100216808600020AAE70000EA
:101BC000000001400004004000080040000C0040FC
:101BD0000040014010B50446194884422ED11948EE
:101BE0000088401C17490880084600884FF47A7125
:101BF00090FBF1F201FB12001249088008460088B0
:101C00000A2190FBF1F201FB1200012801D101F041
:101C100069FB0C480088C82190FBF1F201FB12001F
:101C200001280BD1082308A20021084600F03CFE41
:101C3000082309A20221002000F036FE10BD00009A
:101C40006C0000201000002064657369676E656495
:101C5000206279207A737900756E646572206465FC
:101C600076656C6F70696E672E2E2E007047704718
:101C7000704700002DE9F84F044620680568206889
:101C8000C668206847694FF00009CA4605F00F0989
:101C9000B9F1000F0AD105F0200038B106F020009C
:101CA00020B1204601F074F8BDE8F88FB9F1000FBB
:101CB0007CD007F0010018B906F49070002875D0A8
:101CC00005F0010030B106F4807018B1206C40F0CE
:101CD0000100206405F0040030B107F0010018B1E4
:101CE000206C40F00200206405F0020030B107F0E3
:101CF000010018B1206C40F00400206405F00800D9
:101D000048B106F0200010B907F0010018B1206CAE
:101D100040F008002064206C002846D005F0200028
:101D200028B106F0200010B1204601F031F82068FB
:101D30004069C0F3801A206C00F0080010B9BAF1B5
:101D4000000F2DD0204600F0A8FF2068406900F069
:101D50004000402820D100BF00BF2168143151E865
:101D6000001F21F040002168143141E80002002AE0
:101D7000F3D100BFA06B50B17548A16B0865A06B93
:101D8000FEF7AFFB88B1A06B016D88470DE02046E0
:101D9000FFF76EFF09E009E02046FFF769FF04E066
:101DA0002046FFF765FF002020647DE7206B0128B7
:101DB00076D105F01000002872D006F0100000283F
:101DC000FAD000BF002000902068006800902068D2
:101DD0004068009000BF00BF2068406900F04000EC
:101DE00040285ED1A06B006840681FFA80F8B8F107
:101DF000000F54D0A08D404551DDA4F82E80A06B7B
:101E0000C069B0F5807F43D000BF00BF21680C31AE
:101E100051E8001F21F4807021680C3141E8000274
:101E2000002AF3D100BF00BF00BF2168143151E880
:101E3000001F21F001002168143141E80002002A4E
:101E4000F3D100BF00BF00BF2168143151E8001F6B
:101E500021F040002168143141E80002002AF3D14A
:101E600000BF202084F83E000020206300BF00BF98
:101E700021680C3151E8001F21F0100021680C315D
:101E800041E80002002AF3D100BFA06BFEF7D3FAAD
:101E9000A08DE28D801A81B22046FFF7E8FE03E7AD
:101EA00040E0A08DE18D401A1FFA80F8E08DC0B3AC
:101EB000B8F1000F35D000BF00BF21680C3151E8E8
:101EC000001F21F4907021680C3141E80002002AC3
:101ED000F3D100BF00BF00BF2168143151E8001FDB
:101EE00021F001002168143141E80002002AF3D1F9
:101EF00000BF202084F83E000020206300BF00BF08
:101F000021680C3151E8001F21F0100021680C31CC
:101F100041E80002002AF3D100BF41462046FFF706
:101F2000A6FEC1E605F0800030B106F0800018B1D1
:101F3000204601F0E2F8B7E605F0400030B106F0C7
:101F4000400018B1204600F0DEFEADE600BFABE673
:101F5000872C000810B504460CB9012010BDA069FB
:101F600000B100E000BF94F83D0028B9002084F8DB
:101F70003C00204600F028F8242084F83D0020682A
:101F8000C06820F400502168C860204600F07CFF43
:101F90002068006920F49040216808612068406949
:101FA00020F02A00216848612068C06840F4005091
:101FB0002168C86000202064202084F83D0084F857
:101FC0003E000020CAE7000010B586B00446142188
:101FD00001A8FEF7C6F91F492068884238D100BF22
:101FE000002000901C48006840F010001A4908606A
:101FF0000846006800F01000009000BF00BF00BF5E
:102000000020009014481438006840F00100124984
:10201000143908600846006800F00100009000BF15
:1020200000BF4FF4C0600190022002900020039096
:10203000032004900720059001A90848FEF766FADE
:10204000002211462520FEF7B3FD2520FEF7A0FD56
:1020500006B010BD001001404438024000000240AC
:1020600070B504460D46164694F83E00202816D159
:1020700005B10EB9012070BD00BF94F83C000128E5
:1020800001D10220F7E7012084F83C0000BF0020C6
:10209000206332462946204601F00CF8EBE7022087
:1020A000E9E7000010B504460C48844215D10C48FD
:1020B00000780C490C4A127888540B480078401C70
:1020C00009490870084600780B2801D100200870E3
:1020D000012203490148FFF7C3FF10BD440100205E
:1020E0001200002088010020130000202DE9F84F85
:1020F00004460E46174699464FF0000A94F83D00F4
:1021000020285AD106B117B90120BDE8F88F00BFC9
:1021100094F83C00012801D10220F6E7012084F860
:102120003C0000BF00202064212084F83D00FEF721
:10213000D1FA8246A784E784A068B0F5805F04D115
:10214000206910B90025B04602E035464FF000087E
:1021500000BF002084F83C0000BF1BE05346002273
:1021600080212046CDF8009000F0F7FF08B1032051
:10217000CBE745B9B8F80000C0F308002168486013
:1021800008F1020803E02878216848606D1CE08CA3
:10219000401EE084E08C0028E0D15346002240211C
:1021A0002046CDF8009000F0D8FF08B10320ACE73E
:1021B000202084F83D000020A7E70220A5E7704713
:1021C00000BFFEE7014608684069C0F38020B0B157
:1021D0006FF480600A68506100200863202081F855
:1021E0003D00002081F83E00086C40F004000864C7
:1021F00000BF002081F83C0000BF01207047002094
:10220000FCE700002DE9F84304460D4617469846C2
:10221000E66A082E04D0012E02D016F5803F06D1C2
:102220002068006840F480702168086008E0206B36
:10223000122805D12068006840F480702168086089
:102240003B4600224FF001112046CDF8008000F0FF
:1022500067F860B12068006800F48070B0F5807F96
:1022600002D14FF4007020640320BDE8F883206998
:10227000B0F5804F04D105F0FE002168086112E03E
:1022800005F44070F02141EAE010216808614346FE
:102290003A460B49204600F086F808B10120E4E7F1
:1022A000E8B22168086143463A460549891F20463D
:1022B00000F079F808B10120D7E70020D5E7000049
:1022C0000800010070B504460D46164620E0204681
:1022D000FFF778FF08B1012070BD681CC0B1FEF7A0
:1022E000F9F9801BA84200D895B90020206320206E
:1022F00084F83D00002084F83E00206C40F020006F
:10230000206400BF002084F83C0000BF0120E3E708
:1023100020684069C0F380000028D8D00020DBE7A7
:102320002DE9F04104460D4617461E46DDF818809B
:102330001CE0701CD0B1FEF7CDF9A0EB0800B04254
:1023400000D89EB900202063202084F83D000020A2
:1023500084F83E00206C40F02000206400BF002084
:1023600084F83C0000BF0120BDE8F081C5F30740C0
:1023700001280AD120684069A9B20840A9B2884260
:1023800001D101200BE0002009E020688069A9B29A
:102390000840A9B2884201D1012000E00020B842E3
:1023A000C7D00020E0E72DE9F04104460D4616466F
:1023B0001F463DE020684069C0F38020E8B12068F6
:1023C000006840F40070216808606FF48060216844
:1023D000486100202063202084F83D00002084F81C
:1023E0003E00206C40F00400206400BF002084F810
:1023F0003C0000BF0120BDE8F081701CC0B1FEF7B9
:1024000069F9C01BB04200D896B900202063202093
:1024100084F83D00002084F83E00206C40F020004D
:10242000206400BF002084F83C0000BF0120E2E7E8
:10243000C5F3074001280AD120684069A9B20840C5
:10244000A9B2884201D101200BE0002009E02068F8
:102450008069A9B20840A9B2884201D1012000E0F8
:1024600000200028A6D00020C5E770B504460D4620
:10247000164620E02046FFF7A5FE08B1012070BDFA
:10248000681CC0B1FEF726F9801BA84200D895B998
:1024900000202063202084F83D00002084F83E00C6
:1024A000206C40F02000206400BF002084F83C0035
:1024B00000BF0120E3E720684069C0F3C010002896
:1024C000D8D00020DBE7000008B500BF0020009056
:1024D0001548006840F0800013490860084600680D
:1024E00000F08000009000BF00BF00BF00200090FF
:1024F0000846006840F0010008600846006800F0E7
:102500000100009000BF00BF00BF002000900846FF
:10251000006840F0020008600846006800F0020011
:10252000009000BF00BF08BD3038024010B50B4816
:102530000B4908600B484860002109488160C16070
:102540004FF480410161002141618161C1610162FB
:10255000FEF7C6F808B1FDF76BFF10BD0054004050
:1025600018000020801A060000B587B01C216846BC
:10257000FDF7F7FE1548164908604A20486000211B
:102580001348816044F61F61C160002101618161CF
:10259000FEF758FF08B1FDF74BFF0D48FFF76FFA44
:1025A00008B1FDF745FF60200090002001900290E7
:1025B0000490002269460648FFF7DFF908B1FDF7ED
:1025C00037FF0348FFF7A8F907B000BD00440140FA
:1025D000B400002010B50A480A4908604A20486043
:1025E0000021084881604FF6FE71C1600021016141
:1025F0008161FEF727FF08B1FDF71AFF10BD00004B
:1026000000480140FC00002000B587B00020039086
:1026100004900590069001900290154815490860B5
:102620004A20486000211348816040F2E731C160D0
:102630000021016141618161FEF704FF08B1FDF7EE
:10264000F7FE4FF48050039003A90A48FFF712F8F1
:1026500008B1FDF7EDFE00200190029001A90548A8
:10266000FEF7A2FE08B1FDF7E3FE07B000BD0000D3
:10267000000001406C00002010B50B480B490860B9
:102680004FF4E1304860002108488160C160016179
:102690000C21416100218161C161FFF75BFC08B140
:1026A000FDF7C6FE10BD00000010014044010020EF
:1026B00000BFFEE700BFFEE770B5002419E004F19B
:1026C000B000C1B2002000F0F1FD0021084600F08A
:1026D000EDFD1021002000F0E9FD002505E00021BE
:1026E000012000F0E3FD681CC5B2802DF7DB601C03
:1026F000C4B2082CE3DB70BD10B5AE21002000F0A1
:10270000D5FD0021084600F0D1FD1021002000F089
:10271000CDFD4021002000F0C9FDB021002000F0D7
:10272000C5FD8121002000F0C1FDFF21002000F047
:10273000BDFDA121002000F0B9FDA621002000F080
:10274000B5FDA821002000F0B1FD3F21002000F0E0
:10275000ADFDC821002000F0A9FDD321002000F02C
:10276000A5FD0021084600F0A1FDD521002000F0C4
:102770009DFD8021002000F099FDD821002000F06F
:1027800095FD0521002000F091FDD921002000F0E9
:102790008DFDF121002000F089FDDA21002000F0FC
:1027A00085FD1221002000F081FDDB21002000F0DA
:1027B0007DFD3021002000F079FD8D21002000F00A
:1027C00075FD1421002000F071FDAF21002000F004
:1027D0006DFDFFF771FF10BD70B504460D4605F1A4
:1027E000B000C1B2002000F061FD102040EA1411D9
:1027F000002000F05BFD04F00F01002000F056FD0A
:1028000070BD00002DE9F04707460E4690469946F8
:1028100000250024A8F12000C5B27F2F02DD00278B
:10282000B01CC6B2B9F1100F25D131463846FFF7BA
:10283000D3FF002408E004EB0510194A115C0120C5
:1028400000F034FD601CC4B2082CF4DB701CC1B273
:102850003846FFF7C1FF00240AE0082000EB05100E
:1028600020440F4A115C012000F020FD601CC4B21E
:10287000082CF2DB12E031463846FFF7ADFF0024AA
:102880000AE005EB4500074A02EB4000015D01202C
:1028900000F00CFD601CC4B2062CF2DBBDE8F08732
:1028A0007A350008523300082DE9F04104460F46FE
:1028B0001546984600260FE0AA5D43463946204655
:1028C000FFF7A0FF04F10800C4B2782C02DD002459
:1028D000B81CC7B2701CC6B2A85D0028ECD1BDE818
:1028E000F0817047704710B5FEF7DEF810BD0000AC
:1028F00000B593B0302107A8FDF733FD142102A8DD
:10290000FDF72FFD00BF002001902448006840F033
:102910008050224908600846006800F0805001900D
:1029200000BF00BF00BF002001901D48006820F4D8
:10293000404040F400401A4908600846006800F42E
:102940004040019000BF00BF0120079000040890A4
:1029500002200D9041050E9110210F91C021109180
:1029600004211191129107A8FEF7B4FA08B1FDF7FE
:102970005FFD0F20029002200390002004904FF48E
:102980008050059000200690022102A8FEF762F90F
:1029900008B1FDF74DFD13B000BD00004038024006
:1029A000007000400348006840F47000014908606E
:1029B0007047000088ED00E010B50348FEF7E1FE27
:1029C0000248FEF7DEFE10BD6C000020B4000020BF
:1029D00010B50268204B98420BD0B0F1804F08D060
:1029E0001E4B984205D01E4B984202D01D4B984278
:1029F00003D122F070024B681A43174B984214D04F
:102A0000B0F1804F11D0154B98420ED0144B984224
:102A10000BD0144B984208D0134B984205D0134B5F
:102A2000984202D0124B984203D122F44072CB68F4
:102A30001A4322F080034C6943EA040202608B6867
:102A4000C3620B688362044B984201D10B69036334
:102A50000123436110BD000000000140000400405C
:102A600000080040000C00400040014000440140CC
:102A70000048014030B501F01F05012404FA05F3B8
:102A8000046A9C430462046A01F01F0502FA05F51A
:102A90002C43046230BD30B50C46816821F47F417F
:102AA00042EA032525432943816030BD0A468168F7
:102AB00021F0700142F00703194381607047000064
:102AC00030B5056A25F001050562026A436884692C
:102AD00024F0700424F003040D682C4322F0020259
:102AE0008D682A430D4DA84206D100BF22F008028E
:102AF000CD682A4322F00402084DA84207D123F4EE
:102B0000807323F400734D692B438D692B4343601D
:102B100084614D684563026230BD000000000140E1
:102B200030B5056A25F010050562026A43688469BC
:102B300024F4E04424F440740D6844EA052422F0AF
:102B400020028D6842EA05120E4DA84207D100BF4F
:102B500022F08002CD6842EA051222F04002094DBF
:102B6000A84209D123F4806323F400634D6943EA4A
:102B700085038D6943EA8503436084614D688563FD
:102B8000026230BD0000014030B5056A25F4807551
:102B90000562026A4368C46924F0700424F00304E7
:102BA0000D682C4322F400728D6842EA05220F4D15
:102BB000A84207D100BF22F40062CD6842EA052294
:102BC00022F48062094DA84209D123F4805323F4F2
:102BD00000534D6943EA05138D6943EA05134360C9
:102BE000C4614D68C563026230BD00000000014051
:102BF00030B5056A25F480550562036A4468C269E8
:102C000022F4E04222F440720D6842EA052223F4E5
:102C100000538D6843EA0533064DA84204D124F4DD
:102C200080444D6944EA85144460C2614D6805647E
:102C3000036230BD0000014030B50B461446026A05
:102C4000056A25F001050562816921F0F00141EA7C
:102C5000041122F00A021A438161026230BD30B5CC
:102C60000B461446056A25F0100505628169026A63
:102C700021F4704141EA043122F0A00242EA031239
:102C80008161026230BD70B50546AC6B0020E08505
:102C9000E0842046FEF7ECFF70BD00BF00BF026875
:102CA0000C3252E8002F22F4907102680C3242E894
:102CB0000013002BF3D100BF00BF00BF0268143225
:102CC00052E8002F22F001010268143242E800139A
:102CD000002BF3D100BF016B01290ED100BF00BF53
:102CE00002680C3252E8002F22F0100102680C3208
:102CF00042E80013002BF3D100BF202180F83E10E2
:102D000000210163704710B504462068C06820F0B8
:102D100040002168C860202084F83D002046FFF76D
:102D20004EFA002010BD000008B50146144881424B
:102D300025D100680068C0F3001000B300BF002078
:102D400000900F480068006800900D4800684068D7
:102D5000009000BF00BF0B48407A0A4A127A40EA4E
:102D60000220094A10800020084A107000BF04E0C9
:102D70000022044B1A54421CD0B20B28F8DB08BDC9
:102D800044010020880100201400002013000020CE
:102D9000F8B5044694F83E00222873D1A068B0F537
:102DA000805F0CD1206950B90025A66A2068406870
:102DB000C0F308003080A06A801CA06215E0A56AFC
:102DC0000026A068B0F5805F03D0A06828B920690C
:102DD00018B920684068287004E02068406800F056
:102DE0007F002870A06A401CA062E08D401E80B267
:102DF000E085002844D12068C06820F020002168C8
:102E0000C8602068C06820F480702168C8602068AD
:102E1000406920F0010021684861202084F83E00CC
:102E2000206B012826D10020206300BF00BF21684D
:102E30000C3151E8001F21F0100021680C3141E8ED
:102E40000002002AF3D100BF2068006800F01000E3
:102E500010280AD100BF0020009020680068009070
:102E600020684068009000BF00BFA18D2046FEF79B
:102E7000FEFE02E02046FFF715F90020F8BD01E054
:102E80000020FBE70220F9E72DE9F84F044620680F
:102E9000006920F44050E168084321680861216915
:102EA000A068084361690843E1690843009020680D
:102EB000C06849F20C618843009908432168C860E2
:102EC0002068406920F44070A16908432168486186
:102ED00076492068884203D075492068884203D12A
:102EE000FDF790FF814602E0FDF77CFF8146E06937
:102EF000B0F5004F6CD102206168A0FB0150034681
:102F00001920A9FB007001462A463846FDF7B2F9A0
:102F10006421B0FBF1F04FEA001A02206168A0FBC7
:102F200001510B461920A9FB00712A463846FDF7CE
:102F3000A1F9834602206168A0FB015003461920D5
:102F4000A9FB00712A463846FDF794F96421B0FBCD
:102F5000F1F000EBC00101EB0010ABEB800032217F
:102F600001EBC0006421B0FBF1F000F0F8000AEBC7
:102F7000400A02206168A0FB015003461920A9FB0A
:102F8000007001462A463846FDF774F98346022050
:102F90006168A0FB015003461920A9FB00712A4675
:102FA0003846FDF767F96421B0FBF1F000EBC00192
:102FB00001EB0010ABEB8000322101EBC00064217B
:102FC000B0FBF1F000F007005044216888606AE02F
:102FD00004206168A0FB015003461920A9FB007082
:102FE00001462A463846FDF745F9824604206168C5
:102FF000A0FB015003461920A9FB007001462A4698
:103000003846FDF737F96421B0FBF1F000EBC00161
:1030100001EB0010AAEB8000322101EB00106421CB
:10302000B0FBF1F000F0F00A04206168A0FB017031
:1030300003461920A9FB00513A462846FDF71AF924
:103040006421B0FBF1F00AEB001A04206168A0FBD8
:1030500001510B461920A9FB00712A463846FDF79D
:1030600009F9834604206168A0FB0150034619203A
:10307000A9FB007001462A463846FDF7FBF864219B
:10308000B0FBF1F000EBC00101EB0010ABEB8000F6
:10309000322101EB00106421B0FBF1F000F00F00D1
:1030A000504421688860BDE8F88F0000001001409E
:1030B0000014014010B5034699629A85DA85002014
:1030C0001864222083F83E0000BF002083F83C00F3
:1030D00000BF1868C06840F480701C68E060186821
:1030E000406940F001001C6860611868C06840F0E9
:1030F00020001C68E060002010BD014691F83D00F2
:10310000212828D18868B0F5805F0BD1086948B9BB
:103110000A6A1088C0F308000B685860086A801CAF
:10312000086205E00B6A581C086218780B68586042
:10313000C88C401E80B2C88458B90868C06820F0A6
:1031400080000B68D8600868C06840F040000B68D9
:10315000D860002070470220FCE72DE9F0410446CA
:103160000D4617469846069E34E0701C88B32EB173
:10317000FDF7B0FAA0EB0800B0422BD900BF00BFAA
:1031800021680C3151E8001F21F4D07021680C3106
:1031900041E80002002AF3D100BF00BF00BF216850
:1031A000143151E8001F21F001002168143141E879
:1031B0000002002AF3D100BF202084F83D0084F8EB
:1031C0003E0000BF002084F83C0000BF0320BDE8A3
:1031D000F081FFE7206800682840A84201D1012063
:1031E00000E00020B842C0D00020F0E710B503484E
:1031F000FEF740FD0148FFF797FD10BD4401002098
:1032000000BFFEE702480068C0F3022070470000DC
:103210000CED00E010B5002804DB0A07130E054A88
:10322000135406E00A07140E034A00F00F031B1F95
:10323000D45410BD00E400E018ED00E0FDF740FCC0
:10324000FFF756FBFFF740F9FFF7C4F9FFF7DCF98A
:10325000FFF712FAFFF76AF9FFF786F90E48FEF753
:10326000C1F90E48FEF77CF900210C48FEF73CFC42
:103270000B48FEF775F901220A490B48FEF7F0FEEC
:1032800009480068C06840F0100007490968C86034
:10329000FFF732FA00BFFEE76C000020B400002008
:1032A000FC00002012000020440100207CB50446F0
:1032B0000D461CB900208DF8040004E0012C02D159
:1032C00040208DF804008DF8055040F2FF100223D5
:1032D00001AA782100900248FDF7EAFA7CBD0000BF
:1032E000180000200EB551208DF800000B208DF83D
:1032F000010000208DF8020001208DF8030000205D
:103300008DF8040005208DF8050002208DF80600D8
:1033100000208DF8070064208DF8080040F6FF7348
:10332000092269460148FEF7E1FE0EBD4401002076
:103330004FF04070E1EE100A7047000000000000FE
:103340000000010203040607080900000000010252
:1033500003040000000000000000002F0000000037
:103360000700070000147F147F1400242A7F2A120C
:1033700000626408132300364955225000000503FB
:10338000000000001C224100000041221C0000142B
:10339000083E08140008083E0808000000A060006D
:1033A00000080808080800006060000000201008FD
:1033B0000402003E5149453E0000427F4000004269
:1033C00061514946002141454B31001814127F10CC
:1033D000002745454539003C4A49493000017109FB
:1033E000050300364949493600064949291E0000AF
:1033F0003636000000005636000000081422410056
:103400000014141414140000412214080002015185
:10341000090600324959513E007C1211127C007F8E
:1034200049494936003E41414122007F4141221C29
:10343000007F49494941007F09090901003E41498E
:10344000497A007F0808087F0000417F4100002082
:1034500040413F01007F08142241007F404040402E
:10346000007F020C027F007F0408107F003E414174
:10347000413E007F09090906003E4151215E007F5F
:10348000091929460046494949310001017F0101D6
:10349000003F4040403F001F2040201F003F403879
:1034A000403F0063140814630007087008070061B8
:1034B0005149454300007F41410000552A552A5596
:1034C000000041417F00000402010204004040402E
:1034D0004040000001020400002054545478007F52
:1034E0004844443800384444442000384444487F29
:1034F00000385454541800087E0901020018A4A48E
:10350000A47C007F080404780000447D4000004053
:1035100080847D00007F102844000000417F40002F
:10352000007C04180478007C0804047800384444C3
:10353000443800FC242424180018242418FC007C9F
:103540000804040800485454542000043F44402018
:10355000003C4040207C001C2040201C003C4030AF
:10356000403C004428102844001CA0A0A07C00443B
:1035700064544C441414141414140000000000008B
:1035800000000000000000000000000000F8000043
:103590000000000000333000000000100C06100C8A
:1035A0000600000000000000000040C07840C07825
:1035B0004000043F04043F040400007088FC08300D
:1035C0000000001820FF211E0000F008F000E018A5
:1035D000000000211C031E211E0000F0088870005E
:1035E00000001E2123241927211010160E000000B0
:1035F00000000000000000000000000000E01804CF
:103600000200000000071820400000020418E0003B
:1036100000000040201807000000404080F080407B
:1036200040000202010F01020200000000F0000051
:1036300000000101011F0101010000000000000065
:10364000000080B0700000000000000000000000DA
:103650000000000101010101010100000000000063
:10366000000000303000000000000000000080601A
:103670001804006018060100000000E0100808109F
:10368000E000000F102020100F00001010F80000C4
:1036900000000020203F202000000070080808885B
:1036A000700000302824222130000030088888482B
:1036B00030000018202020110E000000C02010F85B
:1036C000000000070424243F240000F8088888082C
:1036D00008000019212020110E0000E01088881831
:1036E0000000000F112020110E0000380808C83813
:1036F00008000000003F00000000007088080888F3
:103700007000001C222121221C0000E0100808107B
:10371000E0000000312222110F00000000C0C000B4
:1037200000000000003030000000000000800000B9
:1037300000000000806000000000000080402010B9
:1037400008000001020408102000404040404040B2
:103750004000040404040404040000081020408015
:10376000000000201008040201000070480808084A
:10377000F0000000003036010000C030C828E8101A
:10378000E0000718272423140B000000C038E000D5
:103790000000203C23020227382008F8888888701F
:1037A0000000203F202020110E00C030080808082B
:1037B0003800071820202010080008F80808081012
:1037C000E000203F202020100F0008F88888E8083B
:1037D0001000203F20202320180008F88888E808DF
:1037E0001000203F200003000000C0300808083807
:1037F000000007182020221E020008F80800000818
:10380000F808203F210101213F20000808F808089E
:1038100000000020203F2020000000000808F808D9
:103820000800C08080807F00000008F888C0281849
:103830000800203F20012638200008F8080000007A
:103840000000203F20202020300008F8F800F8F881
:103850000800203F003F003F200008F830C000086B
:10386000F808203F200007183F00E0100808081063
:10387000E0000F10202020100F0008F808080808AA
:10388000F000203F210101010000E01008080810AD
:10389000E0000F18242438504F0008F888888888E2
:1038A0007000203F2000030C3020007088080808BA
:1038B00038000038202121221C00180808F80808C8
:1038C00018000000203F2000000008F80800000851
:1038D000F808001F202020201F000878880000C85A
:1038E0003808000007380E010000F80800F800084A
:1038F000F800033C0700073C030008186880806854
:10390000180820302C03032C30200838C800C83891
:1039100008000000203F2000000010080808C838F8
:1039200008002038262120201800000000FE020296
:1039300002000000007F40404000000C30C000004A
:103940000000000000010638C00000020202FE0074
:103950000000004040407F0000000000040202021E
:103960000400000000000000000000000000000053
:10397000000080808080808080800002020400003F
:103980000000000000000000000000008080808037
:1039900000000019242222223F2008F80080800025
:1039A0000000003F112020110E00000000808080E8
:1039B0000000000E112020201100000000808088EF
:1039C000F800000E112020103F2000008080808031
:1039D0000000001F222222221300008080F088882D
:1039E00088180020203F2020000000008080808078
:1039F0008000006B94949493600008F800808080AD
:103A00000000203F210000203F2000809898000007
:103A100000000020203F2020000000000080989837
:103A2000000000C08080807F000008F800008080D7
:103A30008000203F24022D302000000808F80000FC
:103A400000000020203F20200000808080808080B7
:103A50008000203F20003F20003F80800080808049
:103A60000000203F210000203F2000008080808057
:103A70000000001F202020201F0080800080800088
:103A8000000080FFA12020110E0000000080808037
:103A90008000000E112020A0FF80808080008080A8
:103AA000800020203F2120000100000080808080D5
:103AB00080000033242424241900008080E08080CA
:103AC00000000000001F2020000080800000008017
:103AD0008000001F202020103F2080808000008078
:103AE000808000010E300806010080800080008088
:103AF00080800F300C030C300F000080800080802D
:103B000080000020312E0E31200080808000008057
:103B1000808080818E701806010000808080808007
:103B200080000021302C2221300000000000807C29
:103B3000020200000000003F404000000000FF00C3
:103B4000000000000000FF0000000002027C800076
:103B500000000040403F000000000006010102029A
:103B60000404000000000000000002020AEAAAAA01
:103B7000AAAFAAAAAAEA0A020200000000000000F6
:103B800000000000000000000000824A2A1E0B4ACC
:103B90008A7A02FA4B4A4AFA02000000000000004A
:103BA000000000000000000000004020589724C4DE
:103BB0003C1010D03FD01214100000000000000094
:103BC000000000000000000000008068040221C026
:103BD000080423C0000023C4080000000000000007
:103BE000000000000000000000008080402010085D
:103BF00024C3040810204080800000000000000062
:103C000000000000000000000000000000020202AE
:103C1000028242221A06000000000000000000009C
:103C2000000000000000000000004040424242420C
:103C300042FE42424242424040000000000000007A
:103C40000000000000000000000080804020100CF8
:103C50000300030C102040808000000000000000E2
:103C60000000000000000000000000FC0404FC2034
:103C7000104C4B484848C8080800000000000000ED
:103C800000000000000000000000000F04040F000E
:103C900030484442424140407000000000000000B3
:103CA00000000000000000000000008060F80740F5
:103CB00040404040FF404040400000000000000005
:103CC00000000000000000000000010000FF0000F4
:103CD00000000000FF0000000000000000000000E5
:103CE00000000000000000000000000080402010E4
:103CF0000C03C030000000000000000000000000C5
:103D000000000000000000000000000120702824D6
:103D10002221202024283060000000000000000044
:103D20000000000000000000000000004C3D000802
:103D30000000002018000000D0010008643D0008C9
:103D400018000020E0070000EC010008000000005F
:103D500010000000010000000024F400000000003A
:043D6000000000005F
:040000050800019559
:00000001FF
