:020000040800F2
:10000000100E0020E102000829410008353C0008DC
:1000100025410008FF1C00081D4D000800000000DD
:100020000000000000000000000000000344000881
:10003000031D0008000000000144000805440008FA
:10004000FB020008FB020008FB020008FB0200089C
:10005000FB020008FB020008FB020008FB0200088C
:10006000FB020008FB020008FB020008FB0200087C
:10007000FB020008FB020008FB020008FB0200086C
:10008000FB020008FB020008FB0200080000000061
:10009000000000000000000000000000FB0200085B
:1000A000FB020008D5440008FB020008FB02000820
:1000B000FB020008FB020008FB020008FB0200082C
:1000C000FB020008FB020008FB020008FB0200081C
:1000D000FB020008094D0008FB02000800000000B8
:1000E000FB020008FB020008FB0200080000000001
:1000F000000000000000000000000000FB020008FB
:1001000000000000FB020008FB020008FB020008E0
:1001100000000000000000000000000000000000DF
:10012000FB020008FB020008FB020008FB020008BB
:10013000FB020008000000000000000000000000BA
:10014000000000000000000000000000FB020008AA
:10015000FB020008FB020008FB020008FB0200088B
:10016000FB020008FB020008000000000000000085
:10017000000000000000000000000000000000007F
:1001800000000000FB02000800000000000000006A
:10019000FB02000800F002F800F092F80AA090E8D4
:1001A000000C82448344AAF10107DA4501D100F032
:1001B00087F8AFF2090EBAE80F0013F0010F18BF6D
:1001C000FB1A43F001031847AC830000CC83000006
:1001D000103A24BF78C878C1FAD8520724BF30C873
:1001E00030C144BF04680C60704700000023002445
:1001F00000250026103A28BF78C1FBD8520728BF37
:1002000030C148BF0B6070476E2900F0038370292E
:1002100000F05586662907F05080652907F04D806B
:10022000672907F04A80612907F0498003681B0AA3
:1002300028BF41F08001692900F0FC80642900F0AA
:10024000F980752900F0F6806F2900F0E2857829A1
:1002500000F02186E92900F07D85E42900F07A8507
:10026000F52900F07785EF2900F0DF85F82900F007
:1002700020860368DB0928BF41F08001632901F073
:100280003F80732901F04480E32901F04F80F32976
:1002900001F05480002070471FB507F004F800F00B
:1002A00019FE04000020002106F0BCFA401C60602A
:1002B0000020002106F0A0FAE0601FBD10B510BDBF
:1002C00001F0D6F81146FFF7E7FF06F0A7F901F0B5
:1002D000FDF803B4FFF7F2FF03BC01F041F90000A1
:1002E0000948804709480047FEE7FEE7FEE7FEE7CA
:1002F000FEE7FEE7FEE7FEE7FEE7FEE70448054906
:10030000054A064B70470000C144000895010008EB
:1003100010080020100E0020100A0020100A0020F3
:1003200053EA020C00F069802DE9F04B4FF0000613
:10033000002B1FBFB3FA83F503FA05F424FA05F680
:100340005E4012BF1643B2FA82F502FA05F4C5F117
:1003500020051EBF22FA05FC44EA0C04203556EAAB
:10036000044C4FEA144418BF641C4FF000084FF0CF
:100370000009904271EB030C39D3002919BFB1FA7F
:1003800081F701FA07F6B0FA80F700FA07F6C7F12D
:1003900020071EBF20FA07FC46EA0C062037B6FBF2
:1003A000F4FCA7EB0507103F07F01F0BCBF120066D
:1003B0000CFA0BFB2CFA06F644BFB3460026202F9E
:1003C000A4BF5E464FF0000B5BEA060C08BF4FF07F
:1003D000010B19EB0B09ABFB027C48EB0608C01BB9
:1003E00006FB02CC0BFB03CC71EB0C01C1E70B4607
:1003F000024641464846BDE8F08B13B54FF0000079
:100400004FF00001AFF30080BDE81C4070470000D2
:100410001CB50C46064B7B4469460090204600F014
:1004200022FC04460020694600F030FC20461CBD3A
:10043000730800002DE9F041064600241068752974
:10044000314616A510D000F051F9002802DA4042DA
:1004500013A507E031688A0701D512A502E0490714
:1004600004D511A5012401E000F049F900210A2278
:1004700006F1240709E0B0FBF2FCB0FBF2F302FB4B
:100480001C00303078541846491C0028F3D123460C
:100490002A463046BDE8F04100F063B90000000094
:1004A0002D0000002B000000200000002DE9F05F6F
:1004B000894604464FF0000ADFF874B1FB44C0F8E7
:1004C00020A02046E1688847002874D0252806D05F
:1004D000D4E901219047206A401C2062F1E7002600
:1004E0005F462046E16888472028054607DB312D16
:1004F00005D2781910F8200C08B10643F1E7B007CF
:1005000001D526F00406C4F81CA00027C4F818A0E2
:100510002A2D09D0284605F0E3F838B304EB870804
:10052000303DC8F8185019E059F8041B204604EB78
:1005300087029161E1688847012F054618D1E0697B
:10054000002820DA26F020061DE0D8F8180000EB7D
:10055000800005EB40003038C8F818002046E168FC
:100560008847054605F0BCF80028EED1012F0AD0D7
:100570002E2D08D12046E16888477F1C0546022FB2
:1005800046F02006C4DBA069002803DA404246F0AA
:100590000106A061F00701D026F010066C2D0BD0EB
:1005A000682D09D04C2D39D06A2D35D0742D35D019
:1005B0007A2D33D016E038E0E1682F462046884790
:1005C000B842054609D16C2F26D04FF48060E1680F
:1005D000064320468847054604E06C2F1AD04FF4A6
:1005E000807006430DB3A5F14100192802D82035CB
:1005F00046F400664A462946204626604E46FFF7E6
:1006000003FE80B101280BD0F61D26F0070000F193
:10061000080956E74020E4E78020D8E70020D6E725
:1006200006F104094DE7284652E7206ABDE8F09F2D
:100630008E7E00004FF0000200B5134694469646A9
:10064000203922BFA0E80C50A0E80C50B1F12001E5
:10065000BFF4F7AF090728BFA0E80C5048BF0CC093
:100660005DF804EB890028BF40F8042B08BF7047F1
:1006700048BF20F8022B11F0804F18BF00F8012B63
:10068000704770477047704710B500F027FC00684E
:1006900010BD10B5044600F021FC046010BD70B51B
:1006A000044685690068C10601D5302600E0202691
:1006B000C00707D070BDD4E9012130469047206AB9
:1006C000401C20626D1EF6D570BD70B5044685696C
:1006D0000078C00707D170BDD4E9012120209047E0
:1006E000206A401C20626D1EF6D570BD09684A055F
:1006F00001D540B27047C905FCD500B27047096802
:100700004A0501D5C0B27047C905FCD580B2704713
:1007100070B50C460546012A05D02878800600D51C
:10072000EA69002302E0012305E05B1C934202D248
:10073000E05C0028F9D1A869E618C01AA861286A07
:10074000184428622846FFF7AAFF04E0D5E90121F2
:1007500014F8010B9047B442F8D32846FFF7B5FFD1
:1007600070BD2DE9F0470D4699469246044600F1CA
:1007700024080168880604D5E06921F01001216091
:1007800000E00120A84201DD471B00E00027A1692D
:100790007A1902EB0900081AA0612078C00602D479
:1007A0002046FFF77CFF002608E0D4E901211AF873
:1007B00006009047206A401C761C20624E45F4DB00
:1007C0002078C0060AD52046FFF769FF06E0D4E985
:1007D000012130209047206A401C2062381EA7F17A
:1007E0000107F4DC07E0D4E9012118F8050090477F
:1007F000206A401C2062281EA5F10105F3DC20467A
:10080000FFF763FF2078000602D50220BDE8F087DD
:100810000120FBE711680268006A530501D50870E2
:100820000AE0D30501D5088006E0130603D5C217F8
:10083000C1E9000200E008600120704770472DE91F
:10084000FF4F0C461E464FF0FF378BB0D2E9000138
:10085000DDF860800A908A46C1F30A5505B93D4625
:10086000002108464FF00000BAF1000F00F44000EC
:1008700005DA00EB80004FF4400101EA50004FEA36
:100880009059B9F1010F00DDB9460A9850EA4A00C3
:100890000ED044F61050A5F2FF3545432F14B8F1A1
:1008A000000F1ED07542291E1EDDC9F100021CE09A
:1008B000B8F1010F4FF0000001D0302103E0F24306
:1008C00005E02154401CB042FBDB304600220021F1
:1008D00021540B99C1F80880C1E900200FB0BDE890
:1008E000F08FBD1B6D1CDEE74A4600DA694206A8A0
:1008F00000F028FD06AB93E8070003AB83E8070090
:1009000050460A9900F033FE8DE80700A0F500502C
:100910001F3800900398002D0ADD42F21F014A465D
:100920000844002303A90390684601F09CF809E0FD
:10093000A0F500504A461F38002303A903906846DB
:1009400001F0A6F88DE807000004000C03D04FF07A
:10095000FF30410800E01046B8F1000F03D000223C
:10096000009215461EE0751E05D400F0BBFA303229
:1009700062556D1EF9D5B3460122084302D000220C
:100980007F1C04E02078302801D100227F1E002A3D
:10099000099784D01DE0112D07DA00F0A3FA303258
:1009A00062556D1C50EA0102F5D1084302D000984F
:1009B000C8B10EE00021681E05E0235C625C635450
:1009C0002254401E491C8142F7DBAB46A81B401E47
:1009D0000990002004F80B000B98099AC0F80880D1
:1009E000C0E9002B7AE711264FF0000857E72DE900
:1009F000F04F88460446D21D22F0070191B0D1E99C
:100A00000001CDE90A0104F08BF902460B98C00FF2
:100A100001D02D2007E02068810701D52B2002E0BE
:100A2000202101EAC000032A099001D0072A05DB32
:100A300003464146204600F019FC0BE12078800671
:100A400001D5E06900E00620B8F1650F814606D0C7
:100A5000B8F1660F18D0B8F1670F70D131E00020FF
:100A6000B9F1110F009001DB112301E009F101033D
:100A70000AAA01A90CA8FFF7E2FEDDE90C70002626
:100A800009F10105834647E001204B4600904FF0F5
:100A900000470AAA01A90CA8FFF7D1FEDDE90DB0B5
:100AA0000C995D46002610B909F101000D18B9EB4B
:100AB000050003D4C0F1FF3609F10105A5EB0900DB
:100AC0002BE0B9F1010F01DA4FF001090020B9F173
:100AD000110F0090484601DD112300E003460AAAE9
:100AE00001A90CA8FFF7ABFEDDE90C704D4600260E
:100AF0008346207800070AD4AB4500DA5D4601A89A
:100B0000012D04DD411911F8011C302907D04F4592
:100B100002DA17F1040F04DA012082460FE06D1E9D
:100B2000EEE7002F02DCED1B3E4403E0781CA842F8
:100B300000DD7D1CB81B00F1010A4FF00047207852
:100B4000000703D4AA4501DB4FF0FF3A0021B7F1BB
:100B5000004F0DF143088DF8431024D002202B23C1
:100B6000002F01DA7F422D230A21021EA0F101008D
:100B700000DC5FB197FBF1FC97FBF1F201FB1C7C01
:100B800017460CF1300C08F801CDEEE7A8F1010092
:100B900003702188090501D5452100E06521A0F1F8
:100BA000010800F8011C09980FA9A1EB0807FF1D17
:100BB00000B10120411901EBEA70A1693844081A1B
:100BC000401EA0612078C00602D42046FFF767FDD2
:100BD000099828B1D4E901219047206A401C20627D
:100BE0002078C00622D52046FFF759FD1EE0002ED2
:100BF00004DBB34502DD01A8805D00E03020D4E9CC
:100C000001219047206A401C2062761CAAF1010055
:100C10005FEA000A0AD100F05DF9C0680168405C33
:100C2000D4E901219047206A401C2062281EA5F1CA
:100C30000105DCDC07E0D4E9012118F8010B90473D
:100C4000206A401C2062381EA7F10107F3DC204611
:100C5000FFF73BFD032011B041E6000001694A1C8B
:100C600002610878704700B58FB0CDE901310021ED
:100C7000059105497944CDE9031011466846FFF70F
:100C800015FC0FB000BD0000E5FFFFFF0A6802F889
:100C9000010B0A60704700002DE9FF5F15468A4688
:100CA0000446DFF8AC80F8440027D8E900103E463F
:100CB000CDE9001010E03AF816106A4602A800F0DC
:100CC000B3FB411C07D02178890603D5E2693918A6
:100CD00091420DD80744761C2078800602D5E06941
:100CE000B84205DDAE42E6DB3AF816000028E2D154
:100CF000A069C01BA0612046FFF7D1FCD8E9001015
:100D0000CDE90010002017E03AF818106A4602A852
:100D100000F08AFBB0F1FF3F81460BD000250DF1BA
:100D2000080B05E0D4E901211BF8050090476D1C74
:100D30004D45F7D308F10100B0428046E4DB206A5C
:100D4000384420622046FFF7C0FCBDE8FF9F00004A
:100D5000B67600002DE9F0418046D21D22F0070250
:100D60000025D2E90002F52915A614D0011E72F162
:100D7000000106DA0023D0EB030063EB020211A6A8
:100D800008E0D8F800108B0701D50FA602E049074C
:100D900001D50EA601251146002408F1240704E020
:100DA00000F0A0F830323A55641C50EA0102F7D145
:100DB0002B46324621464046BDE8F041FFF7D1BC04
:100DC000000000002D0000002B00000020000000AB
:100DD00030B4002100F1240408E002F00705D20835
:100DE000303542EA4372DB086554491C52EA030578
:100DF000F3D10468002310A2250707D5A40600D468
:100E000021B1C46901230DA2641EC46130BCFFF787
:100E1000A8BC10B5044621461068FFF770FC0246D6
:100E20002046BDE810400023D2E7D21D22F0070182
:100E3000D1E90023CCE700000000000030000000F2
:100E4000F0B40D460188090502D5214C7C4402E02E
:100E50001F4C7C440E34002100F1240608E002F00F
:100E60000F071209E75D42EA03721B097754491C18
:100E700052EA0307F3D102780023120704D5702D3C
:100E800006D009B1022311342246F0BCFFF769BC39
:100E900001231034F8E770B504460D46214610686A
:100EA000FFF72DFC024629462046BDE8704000238E
:100EB000C6E7D21D22F00703D3E90023C0E7036889
:100EC000126843F0200303600823C3610023B7E7DF
:100ED0001875000000487047D00700200048704790
:100EE000B007002030B5B0F10A024FEA900E71F160
:100EF00000034EEA817EB0EB0E0061EB91014FEAF8
:100F0000101E4EEA017E10EB0E0041EB11114FEA6C
:100F1000102E4EEA016E10EB0E0041EB11214FEA4C
:100F2000104E4EEA014E10EB0E0041EB11414018FD
:100F300041F100014FEAD00040EA41704FEAD1018F
:100F400010EB80054FEA810444EA907444EB0104FD
:100F50006D1944EB0404521BA3414FF0000348BF3A
:100F60000A3200D530BD401C41F1000130BD000007
:100F70002DE9F04F04460D46D21D22F0070089B03E
:100F8000D0E900974846394603F0CAFE0246F80FFA
:100F900001D02D2307E02068810701D52B2302E033
:100FA000202101EAC0038DF820300BB1012000E0C0
:100FB0000020032A824601D0072A04DB2946204666
:100FC00000F054F93FE12078800601D40D2500E0BF
:100FD000E569C7F30A560D2D49DA00214FEA175B80
:100FE00008464FF00000002F00F4400007DA00EB45
:100FF00080004FF4400100EBD07001EA60008115E1
:10100000012901DD4FF0FF3100224FEA850CBCF1D0
:10101000180F06D31346ACF118004FF08052C240AF
:1010200003E04FF4801323FA0CF30CF10C0CBCF129
:10103000200F04D3ACF1200C09FA0CF001E007FA00
:101040000CF000294FF0004801DD18B90FE00ED177
:1010500040450CD319EB02095F4121B9404502D14B
:101060009F4329EA0209BBEB175F00D0761C20885A
:10107000000502D57B48784402E07A487844193864
:1010800008AA302302F80A30037C0AF10101002E7D
:101090000AF1020A53546A4602DC4FF0300101E0C3
:1010A0004FF031014FF001088DF8001002D0A6F288
:1010B000FF3603E059EA470100D06B4E002D02DCF9
:1010C0002178090704D54FF002082E218DF8011070
:1010D000C44600210BE0C7F303433F01C35C491C36
:1010E0006D1E02F80830052908F1010801DA002D0B
:1010F000F1DC00210CE000EB1973491C1B786D1E1C
:10110000082902F808304FEA091908F1010801DA44
:10111000002DF0DC21688B0602D516E0A8F101084D
:10112000E04505DD02EB080313F8013C302BF5D058
:10113000B8F1000F09DD02EB080313F8013C2E2B78
:1011400003D1090701D4A8F10108002D05DD3E21D6
:1011500002F808106D1E08F10108407C002E02F80C
:10116000080008F1010804DA2D20764202F8080090
:1011700002E02B2002F808000A214FF47A70864220
:1011800008F101080BDB96FBF0F3303302F808306E
:1011900096FBF0F308F1010800FB136601E0642EF2
:1011A0000CDB642096FBF0F3303302F8083096FB3A
:1011B000F0F308F1010800FB136601E00A2E06DBDC
:1011C00096FBF1F0303002F8080008F1010896FBB8
:1011D000F1F001FB1060303002F80800A16908F15D
:1011E000010808EB050202EB0A00081AA06120784A
:1011F000C00602D42046FFF752FA216A08AE01EB7E
:101200000A00206204E0D4E9012116F8010B90479E
:10121000BAF1010AF7D22078C00602D52046FFF7BE
:101220003EFA6E4609E016F8010B3E280FD0D4E9CD
:1012300001219047206A401C2062B8F10108F2D2D7
:101240002046FFF742FA09B00320BDE8F08F206A7C
:101250002844206203E0D4E90121302090476D1E2C
:10126000EBD3F8E75174000002FCFFFF2DE9F041D9
:101270001F46044603260168072A01F4006004DBC8
:1012800008B116A505E016A503E008B115A500E014
:1012900015A521F010002060A069C01EA0610FB14B
:1012A000401EA0612046FFF7FAF94FB1D4E90121B1
:1012B00038469047206A401C2062C01C206206E02D
:1012C000206AFAE7D4E9012115F8010B9047761E50
:1012D000F8D22046FFF7F9F9BDE8F0814E414E0003
:1012E0006E616E00494E4600696E660010B5436936
:1012F00013B1AFF3008001E0FFF70AFA012010BD3F
:10130000127800F124010A7000224A700122EDE7F0
:1013100011684FF0FF32E9E710B5436913B1AFF33D
:10132000008001E0FFF7B8FC012010BD128800F139
:10133000240182840022C2840122EDE711684FF06B
:10134000FF32E9E72DE9F047814616468AB0354875
:1013500078440DC88DE80D0032487844801C03ACF9
:101360000DC884E80D0041F69B300844372190FBFE
:10137000F1F290FBF1F5A5F1800501FB12041B3C95
:1013800002D56442012000E00020DFF898A08046EA
:101390000027FA44AAF1BE0A0EE0E0070AD032465E
:1013A000684607EB470101230AEB810100F070FB5F
:1013B0008DE8070064107F1C002CEED1194F7F448C
:1013C000AE3F19E0E80715D007EB04100DF1180A3D
:1013D00090E80E008AE80E00C068F04201D198192A
:1013E00008903246012306A903A800F051FB03AB85
:1013F00083E807006D10641C002DE3D14FF001035A
:1014000032466946B8F1000F03A802D000F02BFB6A
:1014100001E000F03DFBC9E90001C9F808200AB06D
:10142000BDE8F0870872000070B516460C46054608
:1014300000F044F8036893F80101012806D0FF2C5E
:101440000FD8185D68B101202C7070BDD3F807016A
:101450003246214603F2071303442846BDE8704094
:1014600018474FF0FF3070BD00487047B0070020AC
:101470007546FFF7F9FFAE4605006946534620F072
:101480000700854618B020B5FEF738FFBDE82040BC
:101490004FF000064FF000074FF000084FF0000B30
:1014A00021F00701AC46ACE8C009ACE8C009ACE8E3
:1014B000C009ACE8C0098D467047000010B5FFF7C1
:1014C00009FD001D10BD00BF5D53000010B50446AE
:1014D000AFF300802046BDE81040FEF7FABE0000E2
:1014E0004FF0013C50F8042B51F8043B9A4221D1B3
:1014F000A2EB0C03934313EACC1317D150F8042B3F
:1015000051F8043B9A4215D1A2EB0C03934313EA22
:10151000CC130BD150F8042B51F8043B9A4209D15B
:10152000A2EB0C03934313EACC13DBD04FF0000083
:10153000704700BFD01A01BAB1FA81F101F0180169
:1015400022FA01F0CB40C1F12001DBB2C0B2C01AD7
:101550002CFA01F3D11A914311EAC311E6D1704775
:1015600001491820ABBEFEE72600020070475FEA83
:10157000400C08BF91F0000F4FEA8C234FEAC122C4
:1015800043EA51514FEA1C5018BF00F5F0404FEAB2
:10159000300018BF41F000415FEA6C5C00F0298028
:1015A000BCF1FF3F08BF40F080407047130C06BFFE
:1015B00012044FF0100C4FF0000C130E04BF120277
:1015C0000CF1080C130F04BF12010CF1040C930F63
:1015D00004BF92000CF1020CD30F04BF52000CF1B7
:1015E000010C11464FF00002A0F11F00A0EB0C000F
:1015F000704711F0004F08BF704731F000413FF4D1
:10160000D5AF0B0C06BF09044FF0100C4FF0000CC7
:101610000B0E04BF09020CF1080C0B0F04BF0901EB
:101620000CF1040C8B0F04BF89000CF1020CCB0FE2
:1016300004BF49000CF1010CCCF12003A0EB0C001D
:1016400022FA03F302FA0CF241EA030100F101006D
:10165000704720F07F4C80EA030023F07F47ACEB1B
:10166000070303F57C5300F0004003F1FF032DE96D
:1016700080494FEA154B09B44FEA144325EA0B4E53
:1016800024EA03480FF2042606EB132749083E78A4
:101690005FEA320203FB0667C7F5000707FB06F6A1
:1016A0004FEA54374FEAD64606F1020607FB066CAE
:1016B000CCF1005C4FEA1C472CEA074C07FB06F410
:1016C0000CFB06F504EB15464FEA961634BF0020D6
:1016D0004FF000404FEAD13706FB07FC4FEA1C4CA5
:1016E0000CFB0BF7D21B03FB0CF761EB07010CFBA8
:1016F0000EF7B0EB074072EB17420CFB08F734BF54
:10170000A2EB0742B2EB074261EB17414FEA0C44F0
:101710004FEA910706FB07FC4FEA1C4C0CFB0BF74A
:10172000B0EBC74072EB573203FB0CF734BFA2EBB0
:10173000C742B2EBC74261EB57310CFB0EF7B0EB7F
:10174000C70072EB57720CFB08F734BFA2EBC7025D
:10175000B2EBC70261EB5771039F4FEA816141EA27
:10176000921104EBCC044FEAD1374FEA826206FBB8
:1017700007FC42EA90124FEA80604FEA1C4C0CFBD7
:101780000BF7D21B03FB0CF761EB07010CFB0EF709
:10179000B0EB074072EB17420CFB08F734BFA2EB2B
:1017A0000742B2EB074261EB17414FEA8C554FEA13
:1017B000910704EB9C2406FB07FC4FEA1C4C0CFB36
:1017C0000BF7B0EBC74072EB573203FB0CF734BF9B
:1017D000A2EBC742B2EBC74261EB57310CFB0EF7ED
:1017E000B0EBC70072EB57720CFB08F734BFA2EBEB
:1017F000C702B2EBC70261EB577115EB4C254FEAFC
:10180000816141EA92114FEA82624FEAD13742EA9E
:10181000901206FB07FC44F100044FEA80604FEA97
:101820001C4C0CFB0BF7D21B03FB0CF761EB070105
:101830000CFB0EF7B0EB074072EB17420CFB08F7FE
:1018400034BFA2EB0742B2EB074261EB174115EB45
:101850001C154FEA813141EA92414FEA823242EA55
:1018600090424FEA80304FEA0C7644F1000448EA97
:1018700003434EEA0B484FF0000EB2EB080C71EB3D
:10188000030724BF624639464EEB0E0E4FF0000BA5
:101890000018524149414BEB0B0BB2EB080C71EBBA
:1018A00003077BF1000B24BF624639464EEB0E0E58
:1018B0004FF0000B0018524149414BEB0B0BB2EBC0
:1018C000080C71EB03077BF1000B24BF624639461D
:1018D0004EEB0E0E51EA020718BF46F0010616EB5A
:1018E0000E7655F1000254F1000103D5BDE88901DF
:1018F000BDE80088BDE88901BDE80048B61952413D
:1019000041EB0101A3F10103704780807F7E7D7C64
:101910007B7A7978777676757473727171706F6E81
:101920006E6D6C6C6B6A6A6968686766666564642C
:10193000636362616160605F5F5E5E5D5D5C5C5BB6
:101940005B5A5A5959585857575656555555545425
:10195000535352525251515050504F4F4F4E4E4D83
:101960004D4D4C4C4C4B4B4B4A4A4A4949494848CF
:10197000484747474746464645454544444444430F
:1019800043434342424242414141002B9C4630D4B2
:1019900077002BD01CB54FEA370703B44FF0100087
:1019A0004FF01001BAF1000F06D0BCF1000FDCBF00
:1019B00040F0080040F008014FF000000FBCBDE807
:1019C00010400BF1010BBBF1010F08BF5FEA1707D5
:1019D00022BF12F1010211F101014FF0004143F168
:1019E000000300F0004043EA00007047F9D35708B5
:1019F000D0E746EA064613F1400F4FEA16461FDDD0
:101A000013F1200FDFBF16430A46002120335B424B
:101A1000BED0C3F1200746EA064602FA07F74FEAAE
:101A2000164646EA0706C3F1200722FA03F201FA36
:101A300007F721FA03F14FF0000342EA0702A7E794
:101A400046EA020646EA06464FEA164646EA010616
:101A5000BCBF46EA0646360C4FF000034FF00002CA
:101A60004FF0000194E72DE9804C9A46934670B4FC
:101A700091E8380007C831EA400C48BF34EA430C0B
:101A800003D5FFF7E6FDFFF780FFF0BCBDE8008C53
:101A90002DE9804C9A46934670B491E8380007C807
:101AA00010F0804F08BF13F0804F03D100F005F80D
:101AB000FFF76BFFF0BCBDE8008C20F07F4780EAA9
:101AC000030023F07F4C07EB0C03A3F57C5300F0DD
:101AD0000040A3F1FE0392F0000F00F0B38095F0F8
:101AE000000F00F077802DE901494FEA11404FEADD
:101AF000144621EA004800FB06FC24EA064708FBDE
:101B000006F607FB08F800FB07F718EB06484CEB56
:101B1000164C4FEA124B18EB07484FEA15464CEBB0
:101B2000174022EA0B4E0BFB06FC25EA06470EFB8C
:101B300006F607FB0EFE0BFB07F71EEB064E4CEB03
:101B4000164C4FF000061EEB074E4CEB174B18EBF4
:101B50000B0840F1000018EB0E0B58EB000840F1A9
:101B600000008F1A4FF000013CBFC943661B14BF31
:101B7000B5EB040C00213CBFC943F61B4FEA1744E8
:101B80004EEA8E0E27EA04454FEA1C4704FB076223
:101B90002CEA074C05FB07F70CFB05F604FB0CFCD5
:101BA00016EB074642EB174216EB0C4642EB1C4283
:101BB0001BEB060658EB0202414146EA9E0601D5A0
:101BC000BDE80189B619524141EB0101A3F10103BE
:101BD000BDE801894FEA14454FEA114724EA05465A
:101BE00021EA074C05FB07F406FB07F70CFB06F19F
:101BF00005FB0CFC11EB074144EB17444FEA12477D
:101C000011EB0C4144EB1C4422EA074C05FB07F2A4
:101C100006FB07F70CFB06F605FB0CFC16EB07466C
:101C200042EB174216EB0C4642EB1C456A1854F186
:101C3000000148BF7047B619524141EB0101A3F1C1
:101C40000103704795F0000F37D04FEA11424FEA79
:101C5000144721EA024624EA074C02FB07F106FB7F
:101C600007F70CFB06F402FB0CFC14EB074441EBFA
:101C700017414FEA154714EB0C4441EB1C4125EA90
:101C8000074C02FB07F506FB07F70CFB06F602FB09
:101C90000CFC16EB074645EB174516EB0C4645EBDF
:101CA0001C42121951F1000148BF7047B619524148
:101CB00041EB0101A3F1010370474FEA14454FEADC
:101CC000114724EA054621EA074C05FB07F106FB0C
:101CD00007F70CFB06F24FF0000605FB0CFC12EBBD
:101CE000074241EB174112EB0C4251EB1C4148BF3C
:101CF0007047921841EB0101A3F10103704700BF47
:101D0000FEE7704772B600BFFEE770B50446A56DEA
:101D100000F04AF9064694F83500022808D08020E1
:101D2000606500BF002084F8340000BF012070BD52
:101D30002068006820F0160021680860206840696B
:101D400020F0800021684861206C08B9A06C28B19F
:101D50002068006820F0080021680860206800689A
:101D600020F001002168086010E000F01DF9801BE0
:101D700005280BD920206065032084F8350000BFBA
:101D8000002084F8340000BF0320D0E720680068FA
:101D900000F001000028E8D194F85C103F20884052
:101DA000A860012084F8350000BF002084F83400CA
:101DB00000BF00BFBBE7014691F83500022803D001
:101DC0008020486501207047052081F835000868AB
:101DD000006820F001000A6810600020F3E70000AE
:101DE000F8B502460B460025002400200021C6E07D
:101DF000012606FA01F51E6806EA0504AC4274D114
:101E00001E7906F00306012E04D01E7906F00306A3
:101E1000022E13D190684F000326BE40B0434F00FE
:101E2000DE68BE4030439060506801268E40B0436B
:101E30001E79C6F300168E40304350601E7906F0BE
:101E40000306032E09D0D0684F000326BE40B043DE
:101E50004F009E68BE403043D0601E7906F00306F6
:101E6000022E13D1CF0802F1200656F827004E07A4
:101E7000F70E0F26BE40B0434F07FF0E1E69BE404F
:101E80003043CF0802F1200646F8270010684F00C3
:101E90000326BE40B0431E7906F003064F00BE4045
:101EA000304310605E6806F44036002E66D000BFF6
:101EB00000260096344E366846F48046324F3E6027
:101EC0003E46366806F48046009600BF00BF2F4E9F
:101ED0008F0856F827008E07370F0F26BE40B043F5
:101EE0002B4EB24202D1002615E047E0294EB24205
:101EF00001D101260FE0284EB24201D102260AE0AC
:101F0000264EB24201D1032605E0254EB24201D150
:101F1000042600E007268F073F0FBE4030431B4ECC
:101F20008F0846F827001F4E3068A0435E6806F40D
:101F3000803606B120431B4E3060361D3068A0430A
:101F40005E6806F4003606B12043164E361D30603A
:101F5000361D3068A0435E6806F4801606B1204343
:101F6000104E08363060361D3068A0435E6806F4B7
:101F7000001606B120430B4E0C363060491C102968
:101F8000FFF436AFF8BD0000443802400838014085
:101F9000000002400004024000080240000C024021
:101FA00000100240003C01400148006870470000FA
:101FB0000000002070B504460CB9012070BD94F8F3
:101FC0003D0028B9002084F83C00204600F092F93A
:101FD000242084F83D002068006820F0010021687A
:101FE00008602068006840F40040216808602068AC
:101FF000006820F400402168086000F05DFB0546A1
:102000005C496068884206D85B48854201D201205D
:1020100007E0002005E05948854201D2012000E098
:102020000020012800D1C9E75548B5FBF0F620682B
:10203000406820F03F003043216848604D496068A7
:10204000884201D8701C07E04FF4967070434FF43B
:102050007A71B0FBF1F0401C2168096A21F03F0160
:1020600008432168086243496068884214D8681EA2
:1020700061684900B0FBF1F0401CC0F30B0004287C
:1020800001D204203DE0681E61684900B0FBF1F018
:10209000401CC0F30B0034E0A06838B9681E6168CA
:1020A00001EB4101B0FBF1F0401C0AE0681E6168E1
:1020B00001EBC10202EB0111B0FBF1F0401C40F456
:1020C0008040C0F30B0008B901201AE0A06848B9AD
:1020D000681E616801EB4101B0FBF1F0401CC0F3E8
:1020E0000B000CE0681E616801EBC10202EB0111FC
:1020F000B0FBF1F0401CC0F30B0040F4804040F412
:1021000000402168C9694CF6FF7291430843216879
:10211000C861D4E9070108432168096821F0C001BA
:10212000084321680860D4E90310084321688968DE
:1021300048F2FF329143084321688860D4E90501E1
:1021400008432168C96821F0FF0108432168C8607D
:102150002068006840F001002168086000202064C9
:10216000202084F83D000020206384F83E0000BF5A
:1021700024E70000A086010080841E0000093D00C5
:1021800040420F002DE9F8430446894616461F4693
:10219000DDF82080FFF708FF054694F83D00202871
:1021A0007ED11923012251492046009501F0F2FD0C
:1021B00010B10220BDE8F88300BF94F83C0001286C
:1021C00001D10220F6E7012084F83C0000BF20681E
:1021D000006800F0010028B92068006840F00100A4
:1021E000216808602068006820F4006021680860A9
:1021F000212084F83D00102084F83E000020206457
:1022000066626785608D20853948E0622B464246CC
:102210004946204601F030FD08B10120CAE700BF61
:10222000002000902068406900902068806900903C
:1022300000BF00BF44E02A464146204601F04FFE61
:1022400050B1206C042805D12068006840F400706B
:10225000216808600120ADE7606A007821680861A4
:10226000606A401C6062608D401E6085208D401E4B
:10227000208520684069C0F3800070B1208D60B176
:10228000606A007821680861606A401C6062608D45
:10229000401E6085208D401E20852A46414600E074
:1022A00022E0204601F048FD50B1206C042805D101
:1022B0002068006840F4007021680860012079E718
:1022C000208D0028B7D12068006840F40070216894
:1022D0000860202084F83D00002084F83E0000BF04
:1022E00084F83C0000BF65E7022063E702001000AD
:1022F0000000FFFF10B586B00446142101A8FEF7C8
:1023000099F91B49206888422FD100BF0020009016
:102310001848006840F00200164908600846006846
:1023200000F00200009000BF00BFC020019012200A
:10233000029000200390032004900420059001A93E
:102340000D48FFF74DFD00BF0020009009481030F8
:10235000006840F400100749103108600846006822
:1023600000F40010009000BF00BF06B010BD0000D8
:102370000054004030380240000402400348006826
:1023800003490978084401490860704700000020AB
:102390000800002010B50D48006840F400700B499B
:1023A00008600846006840F48060086008460068DD
:1023B00040F480700860032000F0A2F80F2000F0C5
:1023C00007F800F02BF8002010BD0000003C024090
:1023D00070B504460E4800784FF47A71B1FBF0F006
:1023E0000C490968B1FBF0F5284600F02BFC08B158
:1023F000012070BD102C07D200222146501E00F093
:1024000041F80548046001E00120F2E70020F0E710
:10241000080000200C0000200400002008B500BFC8
:10242000002000900E48006840F480400C4908608D
:102430000846006800F48040009000BF00BF00BF65
:1024400000200090081F006840F08050091F0860BD
:102450000846006800F08050009000BF00BF08BD33
:102460004438024001460846002809DB00F01F03FB
:1024700001229A4043099B0003F1E023C3F80021A5
:1024800000BF70472DE9F05F80460D4616460027D5
:1024900002F05EFC074639462A46334601F0070043
:1024A000C0F1070ABAF1040F02D94FF0040A01E0A3
:1024B000C0F1070AD14600F1040ABAF1070F02D2AF
:1024C0004FF0000A01E0A0F1030AD4464FF0010AE0
:1024D0000AFA09FAAAF1010A0AEA020A0AFA0CFA45
:1024E0004FF0010B0BFA0CFBABF1010B0BEA030BEA
:1024F0004AEA0B042146404602F032FCBDE8F09F58
:1025000000BF00F00702064B19684FF6FF031940A1
:10251000044B0B4343EA0221014B196000BF704793
:102520000CED00E00000FA0570B504460D460CB94C
:10253000012070BD5848006800F00700A84209D289
:1025400055490D700846006800F00700A84201D008
:102550000120EEE7207800F0020002281DD120784B
:1025600000F00400042805D14C48006840F4E05015
:102570004A490860207800F00800082805D147483B
:10258000006840F46040454908604448006820F015
:10259000F000A168084341490860207800F001007C
:1025A000A8B36068012807D13C4808380068C0F328
:1025B0004040B8B90120BCE76068022802D06068DA
:1025C000032807D1354808380068C0F3406048B98F
:1025D0000120AEE7314808380068C0F3400008B970
:1025E0000120A6E72D48006820F003006168084339
:1025F0002A490860FFF7D8FC064609E0FFF7D4FC3B
:10260000801B41F28831884202D9032091E707E01C
:102610002248006800F00C006168B0EB810FEDD13A
:102620001D48006800F00700A84209D91A490D703A
:102630000846006800F00700A84201D0012078E7B2
:10264000207800F00400042807D11448006820F422
:10265000E050E168084311490860207800F0080064
:10266000082808D10D48006820F46040216940EA3C
:10267000C1000A49086000F03FF808490968C1F341
:102680000311074A515CC8400649086006480068C3
:10269000FFF79EFE00204CE7003C02400838024055
:1026A000C27200080C0000200400002001480068ED
:1026B000704700000C00002000B5FFF7F7FF044949
:1026C0000968C1F38221034A515CC84000BD000083
:1026D00008380240D272000800B5FFF7E7FF04494E
:1026E0000968C1F34231034A515CC84000BD000093
:1026F00008380240D27200082DE9F0470024002576
:102700000026A1462548006800F00C0020B10428EE
:1027100005D008283AD105E0DFF8849039E0DFF8E9
:10272000849036E01D48001F006800F03F041B48FD
:10273000001F006800F4800078B11A481749091F8B
:102740000968C1F38811A0FB0170014622460023ED
:102750003846FDF7E5FD05460EE011480F49091F13
:102760000968C1F38811A0FB0170014622460023CD
:102770003846FDF7D5FD05460848001F0068C0F340
:102780000140401C4600B5FBF6F902E0DFF810906E
:1027900000BF00BF4846BDE8F0870000083802408F
:1027A0000024F40040787D01F8B504460CB90120FE
:1027B000F8BD207800F00100002874D0F9480068C6
:1027C00000F00C0004280DD0F648006800F00C0062
:1027D000082813D1F348001F006800F48000B0F50A
:1027E000800F0BD1EF4808380068C0F34040002844
:1027F00059D06068002856D10120D9E700BF606831
:10280000B0F5803F08D1E7480838006840F48030D0
:10281000E449083908601EE06068B0F5A02F0DD1CA
:10282000E0480838006840F48020DE490839086034
:102830000846006840F4803008600CE0D948083849
:10284000006820F48030D7490839086008460068DD
:1028500020F48020086000BF606890B1FFF7A4FBFF
:10286000054606E0FFF7A0FB401B642801D90320C2
:102870009EE7CC4808380068C0F340400028F1D0FB
:1028800011E0FFF791FB054606E0FFF78DFB401BCB
:10289000642801D903208BE7C24808380068C0F3D8
:1028A00040400028F1D1207800F0020002285FD1DA
:1028B000BC48006800F00C0058B1BA48006800F04D
:1028C0000C0008281CD1B748001F006800F48000E5
:1028D000B0B9B44808380068C0F3400020B1E068DF
:1028E000012801D0012063E7AE480838006820F0D5
:1028F000F800216940EAC100AA490839086037E0B8
:10290000E06800B30120A8490860FFF74DFB0546C9
:1029100006E0FFF749FB401B022801D9032047E7E7
:10292000A04808380068C0F340000028F1D09D4856
:102930000838006820F0F800216940EAC100994990
:102940000839086014E0002097490860FFF72CFB65
:10295000054606E0FFF728FB401B022801D90320AB
:1029600026E7904808380068C0F340000028F1D1FD
:10297000207800F0080008282CD16069A8B1012057
:102980008A490860FFF710FB054606E0FFF70CFBDD
:10299000401B022801D903200AE782486C300068F6
:1029A000C0F340000028F1D014E000207F49086007
:1029B000FFF7FAFA054606E0FFF7F6FA401B022891
:1029C00001D90320F4E677486C300068C0F340007A
:1029D0000028F1D1207800F00400042870D10027ED
:1029E00070483830006800F0805090B900BF002077
:1029F00000906C483830006840F0805069493831A8
:102A000008600846006800F08050009000BF00BFDA
:102A100001276748006800F48070B0B96448006816
:102A200040F4807062490860FFF7BEFA054606E090
:102A3000FFF7BAFA401B022801D90320B8E65C4828
:102A4000006800F480700028F2D000BFA068012860
:102A500008D154486830006840F00100514968319D
:102A600008601DE0A06805280DD14E486830006858
:102A700040F004004B49683108600846006840F0A7
:102A8000010008600CE047486830006820F0010051
:102A90004449683108600846006820F00400086076
:102AA00000BFA068A8B1FFF77FFA054609E0FFF76D
:102AB0007BFA401B41F28831884202D9032077E635
:102AC00026E0384868300068C0F340000028EED0A7
:102AD00013E0FFF769FA054608E0FFF765FA401BC7
:102AE00041F28831884201D9032061E62D486830DF
:102AF0000068C0F340000028EFD1012F07D129481A
:102B00003830006820F0805026493831086000BF16
:102B1000A069002845D02348006800F00C00082870
:102B20005DD0A069022845D100201F490866FFF743
:102B30003BFA054606E0FFF737FA401B022801D9A9
:102B4000032035E6174808380068C0F340600028C5
:102B5000F1D1D4E907010843616A40EA81110122F9
:102B6000A06AC2EB500041EA00412C20005D41EA1E
:102B700000600C49091F086001200B490866FFF737
:102B800013FA054606E0FFF70FFA401B022801D9A9
:102B900003200DE6034808380068C0F340600028B1
:102BA000F1D049E00838024000004742800E474219
:102BB00000700040002021490866FFF7F5F905463E
:102BC00006E0FFF7F1F9401B022801D90320EFE5E9
:102BD0001B480068C0F340600028F2D12CE0A069D7
:102BE000012800D1E4E51648001D0668A069012807
:102BF00020D006F48001E06981421BD106F03F013C
:102C0000206A814216D147F6C0703040616AB0EB4D
:102C1000811F0FD106F440310122A06AC2EB50009F
:102C2000B1EB004F06D106F070612C20005DB1EBD6
:102C3000006F01D00120BBE50020B9E5000047424C
:102C40000038024070B504462546681EB0F1807F0A
:102C500001D301200FE0681E4FF0E02148610F21F1
:102C60004FF0FF3002F07CF800204FF0E021886147
:102C700007200861002070BD7047704730B50246DC
:102C80000B4600BF92F83C00012801D1022030BD64
:102C9000012082F83C0000BF022082F83D0010684D
:102CA00044681068816824F0700418680443106850
:102CB0004460144D1068A84213D01068B0F1804FE2
:102CC0000FD0114D1068A8420BD0104D1068A842CB
:102CD00007D00F4D1068A84203D00E4D1068A842CF
:102CE00005D121F0800158680143106881600120FE
:102CF00082F83D0000BF002082F83C0000BF00BF0A
:102D0000C5E700000000014000040040000800404A
:102D1000000C00400040014010B504460CB90120F1
:102D200010BD94F83D0028B9002084F83C002046EE
:102D300000F026F8022084F83D00211D206801F0F3
:102D4000D5FB012084F8460000BF84F83E00012135
:102D50003F200155402001554120015500BF00BFD3
:102D6000012084F8420043200155442001554520AC
:102D7000015500BF012084F83D000020D0E700008D
:102D800038B5044627492068884218D100BF002082
:102D900000902548006840F001002349086008467B
:102DA000006800F00100009000BF00BF0022114643
:102DB0001920FFF767FB1920FFF754FB30E01B4990
:102DC0002068884218D100BF002000901648006893
:102DD00040F40030144908600846006800F40030F0
:102DE000009000BF00BF002211461920FFF74AFBE8
:102DF0001920FFF737FB13E00D49206888420FD1F7
:102E000000BF002000900848006840F48020064978
:102E100008600846006800F48020009000BF00BFF2
:102E200038BD000000000140443802400044014029
:102E300000480140014691F83D00012801D00120E1
:102E40007047022081F83D00164B0868984213D065
:102E50000868B0F1804F0FD0134B086898420BD030
:102E6000124B0868984207D0114B0868984203D06B
:102E7000104B086898420CD10868806800F007027F
:102E8000062A0CD00868006840F001000B68186042
:102E900005E00868006840F001000B681860002039
:102EA000CEE70000000001400004004000080040A0
:102EB000000C004000400140014691F83D0001280F
:102EC00001D001207047022081F83D000868C068E9
:102ED00040F001000B68D860164B0868984213D088
:102EE0000868B0F1804F0FD0134B086898420BD0A0
:102EF000124B0868984207D0114B0868984203D0DB
:102F0000104B086898420CD10868806800F00702EE
:102F1000062A0CD00868006840F001000B681860B1
:102F200005E00868006840F001000B6818600020A8
:102F3000C8E7000000000140000400400008004015
:102F4000000C0040004001402DE9F04104460D46D0
:102F5000002700BF94F83C00012802D10220BDE800
:102F6000F081012084F83C0000BF022084F83D007D
:102F70002068866826F0770626F47F4620688660FB
:102F80002868502833D00CDC202850D004DC0028DE
:102F90004BD0102851D149E0302849D040284CD19D
:102FA00039E060282DD0702807D0B0F5805F03D0BD
:102FB000B0F5005F41D10DE041E0D5E902136A6848
:102FC000206801F0F6FA2068866846F077062068E7
:102FD000866034E0D5E902136A68206801F0E9FAF6
:102FE0002068806840F480402168886027E0EA68B3
:102FF0006968206801F0AEFB5021206801F0E4FA16
:103000001DE0EA686968206801F0B7FB602120686C
:1030100001F0DAFA13E0EA686968206801F09AFBC7
:103020004021206801F0D0FA09E000BF00BF00BFD6
:103030002968206801F0C8FA01E0012700BF00BF3D
:10304000012084F83D0000BF002084F83C0000BF50
:10305000384684E7704710B5044620680069C0F31D
:103060004000D8B12068C068C0F34000B0B16FF034
:10307000020021680861012020772068806900F043
:10308000030018B12046FFF7E5FF05E0204600F0F9
:10309000DDF8204600F091F90020207720680069D3
:1030A000C0F38000D8B12068C068C0F38000B0B120
:1030B0006FF0040021680861022020772068806991
:1030C00000F4407018B12046FFF7C4FF05E0204629
:1030D00000F0BCF8204600F070F90020207720684E
:1030E0000069C0F3C000D8B12068C068C0F3C00058
:1030F000B0B16FF0080021680861042020772068D3
:10310000C06900F0030018B12046FFF7A3FF05E0F7
:10311000204600F09BF8204600F04FF90020207771
:1031200020680069C0F30010D8B12068C068C0F3FF
:103130000010B0B16FF010002168086108202077FE
:103140002068C06900F4407018B12046FFF782FF84
:1031500005E0204600F07AF8204600F02EF9002025
:1031600020772068006900F0010058B12068C0682D
:1031700000F0010030B16FF00100216808612046C5
:1031800000F092F920680069C0F3C01058B12068BF
:10319000C068C0F3C01030B16FF0800021680861D2
:1031A0002046FFF769FD20680069C0F3801058B120
:1031B0002068C068C0F3801030B16FF04000216813
:1031C0000861204600F08CFA20680069C0F34010C6
:1031D00058B12068C068C0F3401030B16FF02000D3
:1031E000216808612046FFF748FD10BD10B586B084
:1031F0000446142101A8FDF71DFA114920688842F0
:103200001CD100BF002000900E48006840F0020072
:103210000C4908600846006800F00200009000BFFA
:1032200000BF8815019002200290002003900490B6
:103230000320059001A90448FEF7D2FD06B010BD99
:1032400000440140303802400004024070472DE93C
:10325000F04104460D461646002700BF94F83C0096
:10326000012802D10220BDE8F081012084F83C0051
:1032700000BF36B1042E1BD0082E31D00C2E5ED1EB
:1032800045E02946206801F0A9F92068806940F0EE
:103290000800216888612068806920F004002168A6
:1032A000886120688069296908432168886148E04D
:1032B0002946206801F0C2F92068806940F4006066
:1032C000216888612068806920F4806021688861B5
:1032D00020688069296940EA01202168886130E01E
:1032E0002946206801F0DEF92068C06940F0080036
:1032F0002168C8612068C06920F004002168C861A5
:103300002068C069296908432168C86119E0294615
:10331000206801F0FBF92068C06940F40060216872
:10332000C8612068C06920F480602168C861206895
:10333000C069296940EA01202168C86101E00127CC
:1033400000BF00BF00BF002084F83C0000BF38462B
:1033500089E710B504460CB9012010BD94F83D0072
:1033600028B9002084F83C00204600F025F802200F
:1033700084F83D00211D206801F0B8F8012084F890
:10338000460000BF84F83E0001213F200155402047
:1033900001554120015500BF00BF012084F84200C3
:1033A00043200155442001554520015500BF01200F
:1033B00084F83D000020D0E77047704770B50446A0
:1033C0000D4615B994F83E000BE0042D02D13F20C4
:1033D000005D06E0082D02D14020005D01E04120A3
:1033E000005D012801D0012070BD1DB9022084F8C4
:1033F0003E000EE0042D03D102213F20015508E0DC
:10340000082D03D102214020015502E00221412074
:10341000015501222946206801F0BAF81D492068AB
:10342000884201D1012000E0002028B12068406CD2
:1034300040F400402168486416492068884213D04F
:103440002068B0F1804F0FD01349206888420BD01C
:1034500012492068884207D011492068884203D069
:103460001049206888420CD12068806800F0070667
:10347000062E0CD02068006840F00100216808602A
:1034800005E02068006840F0010021680860002025
:10349000AAE70000000001400004004000080040CE
:1034A000000C00400040014070B52DED0A8B054630
:1034B000744885427ED174480088401C7249088057
:1034C000084600884FF47A7190FBF1F201FB12007C
:1034D0006D49088008460088052190FBF1F201FB48
:1034E0001200012858D103F0F3F86848008803F06F
:1034F00061FC41EC1C0B9FED660B53EC102B03F0B1
:103500008DFA41EC1B0B9FED640B53EC102B03F079
:1035100065FC41EC1A0B9FED620B53EC102B03F092
:1035200067FD41EC190B9FED600B53EC102B03F082
:1035300053FD41EC180B03F0F9FB5D490880084688
:10354000008803F037FC41EC190B9FED5A0B53EC4C
:10355000102B03F043FC41EC180B03F0E7FBC0B267
:103560005649534A128821F820205148008803F018
:1035700021FC41EC190B9FED4F0B53EC102B03F08A
:103580002DFC41EC180B03F0D1FBC0B24B4901EB11
:1035900080004B49098841803B480088142190FBFA
:1035A000F1F201FB1200012833D1464800780128CE
:1035B00007D100E062E0354800880A3033490880CE
:1035C00004E0324800880A38304908802F480088D3
:1035D000B0F5FA7F09DC4FF4FA702C4908803948BD
:1035E000007803F06DF8374908702848008840F6E5
:1035F000C411884208DB0846244908803148007815
:1036000003F05EF82F490870204800882E490968A9
:1036100048631D480088322190FBF1F201FB120043
:1036200001282BD100F082FD2548038827A2002124
:10363000084600F0C1FE00241AE0204901EB840195
:10364000488803F0B7FB41EC190B9FED230B53ECBB
:10365000102B03F0E3F941EC180B03F067FB86B283
:10366000164931F82400314602F054F8601CC4B207
:10367000642CE2DB02F0BCF800F010FEBDEC0A8B1B
:1036800070BD000078000020160000201800002007
:10369000000000000088D3400000000000209C4093
:1036A00000000000008046400000000000806640EE
:1036B0001E000020721CC7711CC7E13F20060020BD
:1036C000200000201A000020C000002072616E67F8
:1036D000653D2534646D6D000000000000402F4002
:1036E00070477047704700002DE9F84F0446206886
:1036F00005682068C668206847694FF00009CA4617
:1037000005F00F09B9F1000F0AD105F0200038B11A
:1037100006F0200020B1204601F0C8F8BDE8F88F7F
:10372000B9F1000F7CD007F0010018B906F49070D1
:10373000002875D005F0010030B106F4807018B192
:10374000206C40F00100206405F0040030B107F067
:10375000010018B1206C40F00200206405F0020066
:1037600030B107F0010018B1206C40F00400206473
:1037700005F0080048B106F0200010B907F001007C
:1037800018B1206C40F008002064206C002846D05E
:1037900005F0200028B106F0200010B1204601F00D
:1037A00085F820684069C0F3801A206C00F008009A
:1037B00010B9BAF1000F2DD0204600F0FCFF2068B0
:1037C000406900F04000402820D100BF00BF2168C0
:1037D000143151E8001F21F040002168143141E804
:1037E0000002002AF3D100BFA06B50B17548A16B55
:1037F0000865A06BFEF7DFFA88B1A06B016D884702
:103800000DE02046FFF76EFF09E009E02046FFF7D4
:1038100069FF04E02046FFF765FF002020647DE794
:10382000206B012876D105F01000002872D006F038
:1038300010000028FAD000BF002000902068006827
:10384000009020684068009000BF00BF2068406979
:1038500000F0400040285ED1A06B006840681FFA6D
:1038600080F8B8F1000F54D0A08D404551DDA4F888
:103870002E80A06BC069B0F5807F43D000BF00BF31
:1038800021680C3151E8001F21F4807021680C314F
:1038900041E80002002AF3D100BF00BF00BF216849
:1038A000143151E8001F21F001002168143141E872
:1038B0000002002AF3D100BF00BF00BF216814310D
:1038C00051E8001F21F040002168143141E8000256
:1038D000002AF3D100BF202084F83E00002020639E
:1038E00000BF00BF21680C3151E8001F21F010001B
:1038F00021680C3141E80002002AF3D100BFA06B1F
:10390000FEF703FAA08DE28D801A81B22046FFF700
:10391000E8FE03E740E0A08DE18D401A1FFA80F831
:10392000E08DC0B3B8F1000F35D000BF00BF2168F3
:103930000C3151E8001F21F4907021680C3141E8EE
:103940000002002AF3D100BF00BF00BF216814317C
:1039500051E8001F21F001002168143141E8000204
:10396000002AF3D100BF202084F83E00002020630D
:1039700000BF00BF21680C3151E8001F21F010008A
:1039800021680C3141E80002002AF3D100BF414612
:103990002046FFF7A6FEC1E605F0800030B106F034
:1039A000800018B1204601F036F9B7E605F0400076
:1039B00030B106F0400018B1204600F032FFADE60D
:1039C00000BFABE6A347000810B504460CB90120C0
:1039D00010BDA06900B100E000BF94F83D0028B917
:1039E000002084F83C00204600F028F8242084F8C9
:1039F0003D002068C06820F400502168C86020465F
:103A000000F0D0FF2068006920F490402168086130
:103A10002068406920F02A00216848612068C06859
:103A200040F400502168C86000202064202084F801
:103A30003D0084F83E000020CAE7000010B586B0C3
:103A40000446142101A8FCF7F5FD1F4920688842AF
:103A500038D100BF002000901C48006840F01000E2
:103A60001A4908600846006800F01000009000BF86
:103A700000BF00BF0020009014481438006840F0D8
:103A800001001249143908600846006800F001007E
:103A9000009000BF00BF4FF4C06001900220029070
:103AA00000200390032004900720059001A90848F6
:103AB000FEF796F9002211462520FEF7E3FC2520AB
:103AC000FEF7D0FC06B010BD0010014044380240A3
:103AD0000000024070B504460D46164694F83E00BC
:103AE000202816D105B10EB9012070BD00BF94F891
:103AF0003C00012801D10220F7E7012084F83C00B6
:103B000000BF0020206332462946204601F060F8BD
:103B1000EBE70220E9E7000010B504460C488442B8
:103B200015D10C4800780C490C4A127888540B487F
:103B30000078401C09490870084600780B2801D11C
:103B400000200870012203490148FFF7C3FF10BDA0
:103B5000500100201B000020140600201C00002043
:103B60002DE9F84F04460E46174699464FF0000AD5
:103B700094F83D0020285AD106B117B90120BDE8BC
:103B8000F88F00BF94F83C00012801D10220F6E72D
:103B9000012084F83C0000BF00202064212084F82C
:103BA0003D00FEF701FA8246A784E784A068B0F5DD
:103BB000805F04D1206910B90025B04602E0354687
:103BC0004FF0000800BF002084F83C0000BF1BE05D
:103BD0005346002280212046CDF8009001F04BF89A
:103BE00008B10320CBE745B9B8F80000C0F30800DE
:103BF0002168486008F1020803E0287821684860DD
:103C00006D1CE08C401EE084E08C0028E0D153461F
:103C1000002240212046CDF8009001F02CF808B198
:103C20000320ACE7202084F83D000020A7E7022015
:103C3000A5E7704700BFFEE7014608684069C0F38A
:103C40008020B0B16FF480600A6850610020086382
:103C5000202081F83D00002081F83E00086C40F0F3
:103C60000400086400BF002081F83C0000BF012070
:103C700070470020FCE700002DE9F84304460D469C
:103C800017469846E66A082E04D0012E02D016F593
:103C9000803F06D12068006840F480702168086089
:103CA00008E0206B122805D12068006840F480707D
:103CB000216808603B4600224FF001112046CDF8F4
:103CC000008000F067F860B12068006800F4807040
:103CD000B0F5807F02D14FF4007020640320BDE86E
:103CE000F8832069B0F5804F04D105F0FE0021680B
:103CF000086112E005F44070F02141EAE01021680B
:103D0000086143463A460B49204600F086F808B160
:103D10000120E4E7E8B22168086143463A460549D4
:103D2000891F204600F079F808B10120D7E700206C
:103D3000D5E700000800010070B504460D461646A0
:103D400020E02046FFF778FF08B1012070BD681C15
:103D5000C0B1FEF729F9801BA84200D895B9002010
:103D60002063202084F83D00002084F83E00206C71
:103D700040F02000206400BF002084F83C0000BF19
:103D80000120E3E720684069C0F380000028D8D014
:103D90000020DBE72DE9F04104460D4617461E469C
:103DA000DDF818801CE0701CD0B1FEF7FDF8A0EB28
:103DB0000800B04200D89EB900202063202084F87B
:103DC0003D00002084F83E00206C40F0200020647C
:103DD00000BF002084F83C0000BF0120BDE8F08156
:103DE000C5F3074001280AD120684069A9B20840FC
:103DF000A9B2884201D101200BE0002009E020682F
:103E00008069A9B20840A9B2884201D1012000E02E
:103E10000020B842C7D00020E0E72DE9F041044679
:103E20000D4616461F463DE020684069C0F38020DD
:103E3000E8B12068006840F40070216808606FF401
:103E400080602168486100202063202084F83D00C4
:103E5000002084F83E00206C40F00400206400BF85
:103E6000002084F83C0000BF0120BDE8F081701CF8
:103E7000C0B1FEF799F8C01BB04200D896B9002037
:103E80002063202084F83D00002084F83E00206C50
:103E900040F02000206400BF002084F83C0000BFF8
:103EA0000120E2E7C5F3074001280AD120684069F4
:103EB000A9B20840A9B2884201D101200BE000203C
:103EC00009E020688069A9B20840A9B2884201D1FE
:103ED000012000E000200028A6D00020C5E770B532
:103EE00004460D46164620E02046FFF7A5FE08B121
:103EF000012070BD681CC0B1FEF756F8801BA842B7
:103F000000D895B900202063202084F83D000020CF
:103F100084F83E00206C40F02000206400BF0020A8
:103F200084F83C0000BF0120E3E720684069C0F34B
:103F3000C0100028D8D00020DBE7000008B500BF83
:103F4000002000901548006840F080001349086088
:103F50000846006800F08000009000BF00BF00BF6E
:103F6000002000900846006840F001000860084604
:103F7000006800F00100009000BF00BF00BF0020FB
:103F800000900846006840F002000860084600689B
:103F900000F00200009000BF00BF08BD30380240B2
:103FA00010B50B480B4908600B48486000210948D0
:103FB0008160C1604FF480410161002141618161F4
:103FC000C1610162FDF7F6FF08B1FDF79BFE10BD70
:103FD0000054004024000020801A060000B587B07D
:103FE0001C216846FCF726FB1548164908604A2044
:103FF000486000211348816044F61F61C1600021C0
:1040000001618161FEF788FE08B1FDF77BFE0D4876
:10401000FFF79FF908B1FDF775FE602000900020C2
:10402000019002900490002269460648FFF70FF9BC
:1040300008B1FDF767FE0348FFF7D8F807B000BDE9
:1040400000440140C000002010B50A480A49086039
:104050004A2048600021084881604FF6FE71C16027
:10406000002101618161FEF757FE08B1FDF74AFEAC
:1040700010BD0000004801400801002000B587B0D5
:10408000002003900490059006900190029015483E
:10409000154908604A20486000211348816040F2B9
:1040A000E731C1600021016141618161FEF734FEA9
:1040B00008B1FDF727FE4FF48050039003A90A488A
:1040C000FEF742FF08B1FDF71DFE002001900290AF
:1040D00001A90548FEF7D2FD08B1FDF713FE07B0B0
:1040E00000BD0000000001407800002010B50B4822
:1040F0000B4908604FF4E1304860002108488160B6
:10410000C16001610C21416100218161C161FFF742
:104110005BFC08B1FDF7F6FD10BD0000001001408A
:104120005001002000BFFEE700BFFEE700200CE0CA
:10413000002106E00022064B03EBC1031A544A1C7F
:10414000D1B28029F6DB421CD0B20828F0DB7047E0
:104150009401002070B513467F2801DC3F2900DD63
:1041600070BD0D46CE1701EB5676C6F3C702CE17CB
:1041700001EB5676F610A1EBC606F4B2012B0BD17B
:104180000C4D05EBC005AD5C0126A6403543094E3C
:1041900006EBC006B5540BE053B9064D05EBC00560
:1041A000AD5C0126A640B543024E06EBC006B554F1
:1041B00000BFD5E79401002010B5AE21002002F029
:1041C00065FA2021002002F061FA0221002002F0AD
:1041D0005DFA0021084602F059FA1021002002F091
:1041E00055FAB021002002F051FAA821002002F077
:1041F0004DFA3F21002002F049FAD321002002F0BD
:1042000045FA0021084602F041FA4021002002F060
:104210003DFAA121002002F039FAC821002002F065
:1042200035FADA21002002F031FA1221002002F0E2
:104230002DFA8121002002F029FAFF21002002F04E
:1042400025FAA421002002F021FAA621002002F084
:104250001DFAD521002002F019FAF021002002F009
:1042600015FAD921002002F011FA2221002002F0D3
:104270000DFADB21002002F009FA2021002002F0D3
:1042800005FA8D21002002F001FA1421002002F02D
:10429000FDF9AF21002002F0F9F910BD70B500243E
:1042A00012E02146002000F015F8002508E008483B
:1042B00000EBC500015D012002F0E8F9681CC5B201
:1042C000802DF4DB601CC4B2082CEADB70BD00005A
:1042D0009401002070B504460D4605F1B000C1B24E
:1042E000002002F0D3F9102040EA1411002002F05F
:1042F000CDF904F00F01002002F0C8F970BD0000F4
:104300002DE9F04706460F469046A8F1200000F040
:10431000FF0A002430E00AEB4A00194901EB800152
:104320006000401C085C0AEB4A01154A02EB81015F
:1043300011F8141000EB01201FFA80F9002517E096
:1043400009F4004038B17A19D1B23219D0B2012241
:10435000FFF700FF06E07A19D1B23219D0B200227D
:10436000FFF7F8FE4FF6FF7000EA4909681CC5B276
:104370000C2DE5DB601CC4B2062CCCDBBDE8F0875D
:10438000DA720008F0B504460F46154600260EE026
:10439000AA5D39462046FFF7B3FFA01DC4B2782CB2
:1043A00003DD002407F10C00C7B2701C86B2A85DC3
:1043B0000028EDD1F0BD00000FB470B504460D46E5
:1043C00007A80C490860084602680B480699FCF7E4
:1043D0001FF80A4908800020064908600649074A74
:1043E000128888540A4629462046FFF7CBFF70BC46
:1043F0005DF814FB1000002094050020140000203C
:104400007047704710B5FDF7B9FF10BD00B593B008
:10441000302107A8FCF70EF9142102A8FCF70AF9CD
:1044200000BF002001902448006840F080502249DD
:1044300008600846006800F08050019000BF00BF8F
:1044400000BF002001901D48006820F4404040F467
:1044500000401A4908600846006800F44040019096
:1044600000BF00BF012007900004089002200D90BB
:1044700041050E9110210F91C0211091042111913D
:10448000129107A8FEF790F908B1FDF73BFC0F2049
:10449000029002200390002004904FF48050059079
:1044A00000200690022102A8FEF73EF808B1FDF7B1
:1044B00029FC13B000BD00004038024000700040ED
:1044C0000348006840F4700001490860704700002C
:1044D00088ED00E010B50348FEF7BDFD0248FEF789
:1044E000BAFD10BD78000020C000002010B50268A1
:1044F000204B98420BD0B0F1804F08D01E4B984211
:1045000005D01E4B984202D01D4B984203D122F099
:1045100070024B681A43174B984214D0B0F1804F89
:1045200011D0154B98420ED0144B98420BD0144B1F
:10453000984208D0134B984205D0134B984202D0B2
:10454000124B984203D122F44072CB681A4322F0F6
:1045500080034C6943EA040202608B68C3620B6803
:104560008362044B984201D10B69036301234361C9
:1045700010BD0000000001400004004000080040A1
:10458000000C004000400140004401400048014050
:1045900030B501F01F05012404FA05F3046A9C43B9
:1045A0000462046A01F01F0502FA05F52C43046257
:1045B00030BD30B50C46816821F47F4142EA0325C5
:1045C00025432943816030BD0A46816821F070018E
:1045D00042F00703194381607047000030B5056A57
:1045E00025F001050562026A4368846924F07004BD
:1045F00024F003040D682C4322F002028D682A4344
:104600000D4DA84206D100BF22F00802CD682A4312
:1046100022F00402084DA84207D123F4807323F44A
:1046200000734D692B438D692B43436084614D6852
:104630004563026230BD00000000014030B5056AEC
:1046400025F010050562026A4368846924F4E04499
:1046500024F440740D6844EA052422F020028D6899
:1046600042EA05120E4DA84207D100BF22F0800297
:10467000CD6842EA051222F04002094DA84209D154
:1046800023F4806323F400634D6943EA85038D6955
:1046900043EA8503436084614D688563026230BDEF
:1046A0000000014030B5056A25F480750562026A94
:1046B0004368C46924F0700424F003040D682C439B
:1046C00022F400728D6842EA05220F4DA84207D1FC
:1046D00000BF22F40062CD6842EA052222F4806223
:1046E000094DA84209D123F4805323F400534D69A6
:1046F00043EA05138D6943EA05134360C4614D68BD
:10470000C563026230BD00000000014030B5056A9B
:1047100025F480550562036A4468C26922F4E042C8
:1047200022F440720D6842EA052223F400538D689A
:1047300043EA0533064DA84204D124F480444D6970
:1047400044EA85144460C2614D680564036230BD6B
:104750000000014030B50B461446026A056A25F098
:1047600001050562816921F0F00141EA041122F09E
:104770000A021A438161026230BD30B50B4614460D
:10478000056A25F0100505628169026A21F470410D
:1047900041EA043122F0A00242EA0312816102627E
:1047A00030BD70B50546AC6B0020E085E084204646
:1047B000FEF798FF70BD00BF00BF02680C3252E8E0
:1047C000002F22F4907102680C3242E80013002B93
:1047D000F3D100BF00BF00BF0268143252E8002FBF
:1047E00022F001010268143242E80013002BF3D1D9
:1047F00000BF016B01290ED100BF00BF02680C325F
:1048000052E8002F22F0100102680C3242E8001337
:10481000002BF3D100BF202180F83E10002101635E
:10482000704710B504462068C06820F04000216839
:10483000C860202084F83D002046FFF7FAF90020E8
:1048400010BD000008B501461448814225D100681A
:104850000068C0F3001000B300BF002000900F48B4
:104860000068006800900D4800684068009000BF34
:1048700000BF0B48407A0A4A127A40EA0220094AED
:1048800010800020084A107000BF04E00022044B92
:104890001A54421CD0B20B28F8DB08BD500100208E
:1048A00014060020200000201C000020F8B504465B
:1048B00094F83E00222873D1A068B0F5805F0CD137
:1048C000206950B90025A66A20684068C0F3080036
:1048D0003080A06A801CA06215E0A56A0026A0684E
:1048E000B0F5805F03D0A06828B9206918B92068A6
:1048F0004068287004E02068406800F07F0028705D
:10490000A06A401CA062E08D401E80B2E0850028B5
:1049100044D12068C06820F020002168C860206869
:10492000C06820F480702168C8602068406920F069
:10493000010021684861202084F83E00206B012896
:1049400026D10020206300BF00BF21680C3151E850
:10495000001F21F0100021680C3141E80002002AFC
:10496000F3D100BF2068006800F0100010280AD1C1
:1049700000BF002000902068006800902068406818
:10498000009000BF00BFA18D2046FEF7AAFE02E006
:104990002046FFF7C1F80020F8BD01E00020FBE74A
:1049A0000220F9E72DE9F84F04462068006920F459
:1049B0004050E1680843216808612169A068084304
:1049C00061690843E169084300902068C06849F2C2
:1049D0000C618843009908432168C86020684069D9
:1049E00020F44070A1690843216848617649206835
:1049F000884203D075492068884203D1FDF76CFED8
:104A0000814602E0FDF758FE8146E069B0F5004FAF
:104A10006CD102206168A0FB015003461920A9FB5C
:104A2000007001462A463846FBF77AFC6421B0FB49
:104A3000F1F04FEA001A02206168A0FB01510B4619
:104A40001920A9FB00712A463846FBF769FC83460A
:104A500002206168A0FB015003461920A9FB0071E8
:104A60002A463846FBF75CFC6421B0FBF1F000EB12
:104A7000C00101EB0010ABEB8000322101EBC00064
:104A80006421B0FBF1F000F0F8000AEB400A0220CC
:104A90006168A0FB015003461920A9FB0070014684
:104AA0002A463846FBF73CFC834602206168A0FB9F
:104AB000015003461920A9FB00712A463846FBF72E
:104AC0002FFC6421B0FBF1F000EBC00101EB001002
:104AD000ABEB8000322101EBC0006421B0FBF1F0B0
:104AE00000F007005044216888606AE00420616893
:104AF000A0FB015003461920A9FB007001462A467D
:104B00003846FBF70DFC824604206168A0FB01508B
:104B100003461920A9FB007001462A463846FBF7D8
:104B2000FFFB6421B0FBF1F000EBC00101EB0010D2
:104B3000AAEB8000322101EB00106421B0FBF1F000
:104B400000F0F00A04206168A0FB01700346192000
:104B5000A9FB00513A462846FBF7E2FB6421B0FB73
:104B6000F1F00AEB001A04206168A0FB01510B462A
:104B70001920A9FB00712A463846FBF7D1FB834672
:104B800004206168A0FB015003461920A9FB0070B6
:104B900001462A463846FBF7C3FB6421B0FBF1F01F
:104BA00000EBC00101EB0010ABEB8000322101EB08
:104BB00000106421B0FBF1F000F00F0050442168B8
:104BC0008860BDE8F88F000000100140001401402B
:104BD00010B5034699629A85DA8500201864222070
:104BE00083F83E0000BF002083F83C0000BF186837
:104BF000C06840F480701C68E0601868406940F04C
:104C000001001C6860611868C06840F020001C68E2
:104C1000E060002010BD014691F83D00212828D118
:104C20008868B0F5805F0BD1086948B90A6A1088B6
:104C3000C0F308000B685860086A801C086205E031
:104C40000B6A581C086218780B685860C88C401EA4
:104C500080B2C88458B90868C06820F080000B682A
:104C6000D8600868C06840F040000B68D860002039
:104C700070470220FCE72DE9F04104460D46174637
:104C80009846069E34E0701C88B32EB1FDF78CF96F
:104C9000A0EB0800B0422BD900BF00BF21680C3147
:104CA00051E8001F21F4D07021680C3141E8000266
:104CB000002AF3D100BF00BF00BF2168143151E8C2
:104CC000001F21F001002168143141E80002002A90
:104CD000F3D100BF202084F83D0084F83E0000BFDF
:104CE000002084F83C0000BF0320BDE8F081FFE70E
:104CF000206800682840A84201D1012000E000207F
:104D0000B842C0D00020F0E710B50348FEF7ECFC35
:104D10000148FFF797FD10BD5001002000BFFEE7DE
:104D200003B401984100009850EAC12018BF042044
:104D30004A0D18BF40F0010040F2FF72B2EB515F24
:104D400008BF40F00200012808BF052002B07047EC
:104D500002480068C0F30220704700000CED00E03C
:104D600010B5002804DB0A07130E054A135406E0A9
:104D70000A07140E034A00F00F031B1FD45410BD82
:104D800000E400E018ED00E010B51D499FED1A1B8E
:104D90002DED020B84B0059820F000408842DCBF66
:104DA00001209DED040B21DD1649884209D10498AC
:104DB00040B94FF00100FBF76CFC00F071FC06B04D
:104DC00010BD05DB9DED040B00F05EFC06B010BDD0
:104DD00068469DED040B00F017F800F0010001217A
:104DE000A1EB40009DED021B9DED000B00F0A4FA2D
:104DF00006B010BD00000000000000000000000030
:104E0000FB21E93F0000F07F2DE9F14F04462DED35
:104E1000020B2DED088B8AB09FEDE70B80ED020BA6
:104E2000139EE74826F0004585420ADC9DED120BF3
:104E3000002084ED000B0AB0BDEC088B03B0BDE888
:104E4000F08FE0489FEDE0AB9FEDE1BBA84247DD6E
:104E5000E14F9FEDE39B9FEDE48B9DED120B53EC37
:104E60001A2B51EC100B002E1CDD02F0C1F841ECA6
:104E7000100BBD4208D053EC1B2B51EC100B02F071
:104E8000B7F8C4E900010BE053EC192B51EC100BFF
:104E900002F0AEF853EC182B02F0AAF8C4E90001B6
:104EA0000120C8E701F012FD41EC100BBD4208D013
:104EB00053EC1B2B51EC100B01F008FDC4E9000171
:104EC0000BE053EC192B51EC100B01F0FFFC53ECF1
:104ED000182B01F0FBFCC4E900014FF0FF30AAE7FA
:104EE000C348A84279DB9DED120B51EC100B01F089
:104EF00089FB41EC180B9FEDC00B53EC102B01F01C
:104F00006DFF9FEDBF1B53EC112B01F0DFFC01F097
:104F1000DDFE074601F037FF41EC190B53EC1A2B6D
:104F200001F05CFF53EC182B02F056F841EC180B23
:104F300053EC1B2B51EC190B01F050FFDFF8C8A20A
:104F400041EC100B4FEA15580125FA4453EC102B95
:104F500051EC180B02F04CF8032DC4E900013DD0D0
:104F6000C1F30A5005EB4511A8EB0000113981424D
:104F700034DA0AEB051BB0EE48AA9BED000BF0EE0D
:104F800068AA53EC102B51EC190B01F027FF41ECF0
:104F90001B0B51EC1A0B53EC1B2B02F029F841ECC4
:104FA000180B51EC1A0B53EC182B02F021F853ECB0
:104FB0001B2B02F01DF89BED020B41EC1A0B53EC7E
:104FC000102B51EC190B01F009FF53EC1A2B02F0D6
:104FD0000FF841EC100B6D1CB8E70EE0002EA8BFD7
:104FE0003846BFF628AF94ED000B51EC100B01F0E2
:104FF0002FFCC4E9000178421DE7C6F3130040F41A
:10500000801EC6F30A50A0F2F530471100F01F05CC
:10501000C5F12000DDF848B0089000200690079008
:105020000520EC467949002D07EB0002794408BFC2
:1050300051F8221009D051F8223001EB8201AB4027
:105040004A68089922FA01F11943A1FB0E26A1FB37
:105050000B131A449A4234BF0123002303EB0608C2
:105060000CEB8003D3E901A60E448E4234BF01212C
:10507000002192448A4411B1924502D903E092453D
:1050800001D2012100E00021C3E901A641444CF80E
:105090002010011EA0F10100C4DC029800F10050B4
:1050A000850F0298DDE903678000DDF8148001F0C8
:1050B0006AFE41EC1A0B304601F07CFE9FED541B5A
:1050C00053EC112B01F08AFE41EC1B0B384601F02A
:1050D00071FE9FED511B53EC112B01F07FFE41EC53
:1050E000180B404601F066FE9FED4D1B53EC112B53
:1050F00001F074FE41EC190B51EC180B53EC192B19
:1051000001F0E4FB53EC1B2B01F0E0FB53EC1A2BFA
:1051100001F0DCFBCDE90801002008909DED080BB3
:1051200053EC1A2B51EC100B01F062FF53EC1B2BCC
:1051300001F05EFF53EC182B01F05AFF53EC192BD2
:1051400001F04AFF9FED381B53EC112B01F046FE96
:105150009FED370B41EC180B53EC102B9DED080B1A
:1051600051EC100B01F03AFE53EC182B01F0AEFBA2
:105170009FED310B41EC180B53EC102B9DED080B00
:1051800051EC100B01F02AFE53EC182B01F09EFBA2
:1051900041EC100B139810F0004F06D06D4251EC0B
:1051A000100B01F055FB41EC100B284684ED000B71
:1051B00041E60000000000000000000000000000C8
:1051C000FB21E93F7CD9024000004054FB21F93F1C
:1051D0003163621A61B4D03DFB21F93F0000000049
:1051E0000000601A61B4D03D7370032E8A19A33B8E
:1051F000FB2139410000000083C8C96D305FE43FE6
:10520000000000000000E03F423400009033000046
:10521000000000000000103E000000000000103CF4
:10522000000000000000103A182D4454FB21F93D05
:105230003326A611460B113C00000054FB21F93D1A
:1052400070B504462DED028B4D1E00EBC500B0EE8F
:10525000408AF0EE608A90ED000B35F0060017D022
:1052600053EC182B51EC100B01F0B8FD41EC100B76
:105270006D1E04EBC50090ED001B51EC100B53ECC0
:10528000112B01F023FB41EC100B35F00600E7D1A8
:10529000022D36D0042D1CD0062D1CBFBDEC028B78
:1052A00070BD53EC182B51EC100B01F097FD94EDF1
:1052B0000A1B53EC112B01F009FB53EC182B01F0E6
:1052C0008DFD94ED081B53EC112B01F0FFFA41EC1E
:1052D000100B53EC182B51EC100B01F07FFD94EDEB
:1052E000061B53EC112B01F0F1FA53EC182B01F0D3
:1052F00075FD94ED040B53EC102B01F0E7FA41EC33
:10530000100B53EC182B51EC100B01F067FD94EDD2
:10531000021B53EC112B01F0D9FA53EC182B01F0BE
:105320005DFD94ED001B53EC112B01F0CFFABDECA9
:10533000028B41EC100B70BDF1B506462DED040B50
:10534000BD482DED0C8B8AB0B0EE418AF0EE618A3B
:10535000179D25F000449FEDBABB9FEDBBCB844267
:1053600008DA9DED160B51EC100B01F0AFFC002894
:1053700000F0E980B64FA74231DC002D0DDA9DED3B
:10538000160B51EC100B01F063FACDE9160151EC4C
:10539000180B01F05DFA41EC180B9FEDAF0B53ECCD
:1053A000102B9DED160B51EC100B01F015FE53EC7C
:1053B000182B9FEDAB0BCDE9040151EC100B01F064
:1053C00017FE41EC100B53EC102B9DED040B51EC30
:1053D000100B01F07BFA9FEDA48BCDE916019DED3A
:1053E000160B53EC102B51EC100B01F0F7FCCDE930
:1053F00004019DED040B53EC102B51EC100B01F04C
:10540000EDFC41EC190B9A480621B0EE490AF0EE8A
:10541000690A7844FFF714FF9648B0EE40DAF0EEE0
:1054200060DAB0EE490AF0EE690A06217844FFF727
:1054300007FF9DED041B51EC100B53EC112B01F0F9
:10544000CDFC9DED040B41EC1A0B53EC102B9DEDA4
:10545000160B51EC100B01F0C1FC41EC190B53EC95
:105460001A2B51EC1D0B01F031FA53EC192B01F002
:10547000B5FC53EC182B01F029FA9DED041B53ECFD
:10548000112B01F0ABFC53EC182B01F01FFA41EC8F
:10549000180B9FED790B51EC190B53EC102B01F00D
:1054A0009DFC53EC182B01F011FA41EC190B9DED0A
:1054B000160B53EC192B51EC100B01F007FA41ECD1
:1054C000180BA74269DC304601F05DFC41EC1A0B79
:1054D00051EC180B53EC1A2B01F0F8F941EC1B0BB3
:1054E00053EC182B51EC180B01F078FC53EC1B2BF0
:1054F00001F094FA53EC192B01F07AFD9DED161B87
:1055000053EC112B01F068FD9FED5D1B53EC112B4B
:1055100001F064FC53EC1A2B01F05EFD41EC180B1A
:10552000022000EAA570C0F1010001F02CFC53EC50
:10553000182B01F053FC00BF41EC100B0AB0BDEC7E
:105540000C8B05B0F0BD711C1698214308430CD09C
:105550009DED160B012E1CBF53EC102B51EC1C0BB8
:1055600010D000BF01F05AFAE6E79DED160B51ECA2
:10557000100B01F047F841EC100B51EC1B0B53ECF6
:10558000102BEFE751EC100BFFF7CAFB042808BF04
:1055900000F096F89DED160BD0E7012E04BFB0EE9B
:1055A000480AF0EE680AC9D08DED048B00240494FB
:1055B0009DED040B53EC102B9DED160B51EC100BD5
:1055C00001F00AFD53EC192B01F006FD41EC190B1B
:1055D00053EC182B51EC1C0B01F020FA41EC180B8A
:1055E0008DED008B00949DED040B53EC102B9DED85
:1055F000000B51EC100B01F0F1FB53EC1B2B01F0F5
:1056000065F99DED000B41EC1A0B53EC192B51EC95
:10561000100B01F0E3FB53EC1A2B01F057F953EC9C
:10562000182B01F0DBFB9DED001B53EC112B01F05F
:105630004DF981E7000000000000303E000000004E
:10564000000000000000F03F000000000000F0BF7C
:105650002894E53F00000000182D4454FB21E93F49
:10566000075C143326A6813C000000000000000007
:105670004230000058300000635555555555D53F10
:10568000000000000000004010B553EC102B51EC5E
:10569000100B01F01BF941EC100B10BD00000000D5
:1056A0009FED050B10B553EC102B51EC100B01F0D6
:1056B000B5F941EC100B10BD000000000000000027
:1056C0009FED050B10B553EC102B51EC100B01F0B6
:1056D00085FB41EC100B10BD000000000000001025
:1056E00030380A2801D20120704700207047024656
:1056F0000B4600210846511A73EB000006DA002021
:105700000146D2EB000061EB0301704710461946D9
:10571000FBE700002DE9F04106460F46002461E05A
:1057200000255BE0A4F140004043A5F140018C4618
:1057300001FB0C0007FB1700C1170246FFF7D7FF5C
:1057400023230022181A8A4146DB701C00EE100A3F
:10575000B8EEC00A00F0E2FFA5F1400000EE900AAA
:10576000F8EEE00A80EE801A9FED200A31EE000A82
:10577000F2EE040A70EE600A00EE104AB8EE400A3B
:10578000F4EEC00AF1EE10FA26D8701E00EE900A70
:10579000F8EEE00AB0EE600A00F0C0FFA5F14000AC
:1057A00000EE900AF8EEE00A80EE801A9FED0F0AF4
:1057B00031EE000AF2EE040A70EE200A00EE104A02
:1057C000B8EE400AF4EEC00AF1EE10FA04DB012252
:1057D00029462046FEF7BEFC681CC5B2402DA1DB61
:1057E000601CC4B2802C9BDBBDE8F08100008042CD
:1057F00010B501223B210020FEF7ACFC01223C2128
:105800000020FEF7A7FC01223D210020FEF7A2FCAC
:1058100001223E210020FEF79DFC01223F210020B5
:10582000FEF798FC012234211046FEF793FC01227A
:1058300035211046FEF78EFC012236211046FEF778
:1058400089FC012230210220FEF784FC0122312153
:105850000220FEF77FFC01222C210320FEF77AFCB8
:1058600001222D210320FEF775FC01222A210420AC
:10587000FEF770FC012227210520FEF76BFC0122B8
:1058800025210620FEF766FC012223210720FEF7D2
:1058900061FC012221210820FEF75CFC01221F216E
:1058A0000920FEF757FC01221E210A20FEF752FCB8
:1058B00001221C210B20FEF74DFC01221B210C2094
:1058C000FEF748FC012219210D20FEF743FC0122BE
:1058D00018210E20FEF73EFC012217210F20FEF7B3
:1058E00039FC012216211020FEF734FC0122102180
:1058F0001620FEF72FFC01220F211720FEF72AFCAD
:1059000001220E211820FEF725FC01220D2119206D
:10591000FEF720FC01220C211B20FEF71BFC0122BC
:105920000B211C20FEF716FC01220A211E20FEF787
:1059300011FC012209211F20FEF70CFC0122082185
:105940002120FEF707FC012207212320FEF702FC9D
:10595000012206212520FEF7FDFB0122052127203B
:10596000FEF7F8FB012204212A20FEF7F3FB0122B7
:1059700003212C20FEF7EEFB012203212D20FEF750
:10598000E9FB012202213020FEF7E4FB0122022183
:105990003120FEF7DFFB012211463420FEF7DAFB4F
:1059A000012211463520FEF7D5FB01221146362093
:1059B000FEF7D0FB012200213B20FEF7CBFB0122AA
:1059C00000213C20FEF7C6FB012200213D20FEF70E
:1059D000C1FB012200213E20FEF7BCFB0122002179
:1059E0003F20FEF7B7FB012200214020FEF7B2FB6B
:1059F000012200214120FEF7ADFB012200214220BF
:105A0000FEF7A8FB012200214320FEF7A3FB0122A1
:105A100000214420FEF79EFB012200214520FEF7D5
:105A200099FB012211464A20FEF794FB0122114600
:105A30004B20FEF78FFB012211464C20FEF78AFB1C
:105A4000012202214F20FEF785FB01220221502076
:105A5000FEF780FB012203215320FEF77BFB01228E
:105A600003215420FEF776FB012204215620FEF785
:105A700071FB012205215920FEF76CFB0122062152
:105A80005B20FEF767FB012207215D20FEF762FB2A
:105A9000012208215F20FEF75DFB01220921612020
:105AA000FEF758FB01220A216220FEF753FB012278
:105AB0000B216420FEF74EFB01220C216520FEF72E
:105AC00049FB01220D216720FEF744FB01220E2134
:105AD0006820FEF73FFB01220F216920FEF73AFB09
