:020000040800F2
:100000005807002035020008DD1B0008B11A00085F
:10001000D91B00082B040008592300080000000029
:10002000000000000000000000000000E31B0008CA
:100030002F04000800000000E11B0008E51B000879
:100040004F0200084F0200084F0200084F0200084C
:100050004F0200084F0200084F0200084F0200083C
:100060004F0200084F0200084F0200084F0200082C
:100070004F0200084F0200084F0200084F0200081C
:100080004F0200084F0200084F0200080000000065
:100090000000000000000000000000004F02000807
:1000A0004F020008B51C00084F0200084F0200086C
:1000B0004F0200084F0200084F0200084F020008DC
:1000C0004F0200084F0200084F0200084F020008CC
:1000D0004F020008452300084F02000800000000FE
:1000E0004F0200084F0200084F0200080000000005
:1000F0000000000000000000000000004F020008A7
:10010000000000004F0200084F0200084F020008E4
:1001100000000000000000000000000000000000DF
:100120004F0200084F0200084F0200084F0200086B
:100130004F02000800000000000000000000000066
:100140000000000000000000000000004F02000856
:100150004F0200084F0200084F0200084F0200083B
:100160004F0200084F0200080000000000000000DD
:10017000000000000000000000000000000000007F
:10018000000000004F020008000000000000000016
:100190004F02000800F002F800F03CF80AA090E8D6
:1001A000000C82448344AAF10107DA4501D100F032
:1001B00031F8AFF2090EBAE80F0013F0010F18BFC3
:1001C000FB1A43F00103184790220000B022000000
:1001D000103A24BF78C878C1FAD8520724BF30C873
:1001E00030C144BF04680C60704700000023002445
:1001F00000250026103A28BF78C1FBD8520728BF37
:1002000030C148BF0B6070471FB502F013F91FBD26
:1002100010B510BD00F0CFF81146FFF7F5FF02F062
:10022000B9F800F0EDF803B4FFF7F2FF03BC00F0FB
:10023000F5F800000948804709480047FEE7FEE757
:10024000FEE7FEE7FEE7FEE7FEE7FEE7FEE7FEE786
:1002500004480549054A064B70470000A11C0008E8
:10026000950100085801002058070020580300207D
:100270005803002053EA020C00F069802DE9F04B8E
:100280004FF00006002B1FBFB3FA83F503FA05F405
:1002900024FA05F65E4012BF1643B2FA82F502FA5E
:1002A00005F4C5F120051EBF22FA05FC44EA0C0442
:1002B000203556EA044C4FEA144418BF641C4FF032
:1002C00000084FF00009904271EB030C39D300296C
:1002D00019BFB1FA81F701FA07F6B0FA80F700FA10
:1002E00007F6C7F120071EBF20FA07FC46EA0C06F6
:1002F0002037B6FBF4FCA7EB0507103F07F01F0BF8
:10030000CBF120060CFA0BFB2CFA06F644BFB346E1
:100310000026202FA4BF5E464FF0000B5BEA060CC0
:1003200008BF4FF0010B19EB0B09ABFB027C48EB4C
:100330000608C01B06FB02CC0BFB03CC71EB0C01C7
:10034000C1E70B46024641464846BDE8F08B13B56F
:100350004FF000004FF00001AFF30080BDE81C40FB
:1003600070474FF0000200B5134694469646203978
:1003700022BFA0E80C50A0E80C50B1F12001BFF45E
:10038000F7AF090728BFA0E80C5048BF0CC05DF8C4
:1003900004EB890028BF40F8042B08BF704748BF12
:1003A00020F8022B11F0804F18BF00F8012B704786
:1003B000704770477047754600F02CF8AE46050050
:1003C0006946534620F00700854618B020B5FFF770
:1003D0003FFFBDE820404FF000064FF000074FF010
:1003E00000084FF0000B21F00701AC46ACE8C00953
:1003F000ACE8C009ACE8C009ACE8C0098D4670475C
:1004000010B50446AFF300802046BDE81040FFF76A
:100410000ABF000000487047F8000020014918207A
:10042000ABBEFEE726000200704700BFFEE7704744
:1004300072B600BFFEE770B50446A56D00F04AF93C
:10044000064694F83500022808D08020606500BF79
:10045000002084F8340000BF012070BD20680068CF
:1004600020F01600216808602068406920F08000B4
:1004700021684861206C08B9A06C28B12068006828
:1004800020F00800216808602068006820F0010062
:100490002168086010E000F01DF9801B05280BD9C9
:1004A00020206065032084F8350000BF002084F818
:1004B000340000BF0320D0E72068006800F001008E
:1004C0000028E8D194F85C103F208840A860012003
:1004D00084F8350000BF002084F8340000BF00BF5E
:1004E000BBE7014691F83500022803D0802048651B
:1004F00001207047052081F835000868006820F069
:1005000001000A6810600020F3E70000F8B5024619
:100510000B460025002400200021C6E0012606FA33
:1005200001F51E6806EA0504AC4274D11E7906F096
:100530000306012E04D01E7906F00306022E13D105
:1005400090684F000326BE40B0434F00DE68BE40B7
:1005500030439060506801268E40B0431E79C6F348
:1005600000168E40304350601E7906F00306032EBD
:1005700009D0D0684F000326BE40B0434F009E68AC
:10058000BE403043D0601E7906F00306022E13D120
:10059000CF0802F1200656F827004E07F70E0F2667
:1005A000BE40B0434F07FF0E1E69BE403043CF0828
:1005B00002F1200646F8270010684F000326BE40CF
:1005C000B0431E7906F003064F00BE403043106072
:1005D0005E6806F44036002E66D000BF0026009606
:1005E000344E366846F48046324F3E603E463668AA
:1005F00006F48046009600BF00BF2F4E8F0856F8C5
:1006000027008E07370F0F26BE40B0432B4EB24255
:1006100002D1002615E047E0294EB24201D1012661
:100620000FE0284EB24201D102260AE0264EB24225
:1006300001D1032605E0254EB24201D1042600E097
:1006400007268F073F0FBE4030431B4E8F0846F8EA
:1006500027001F4E3068A0435E6806F4803606B15E
:1006600020431B4E3060361D3068A0435E6806F4A0
:10067000003606B12043164E361D3060361D3068F8
:10068000A0435E6806F4801606B12043104E08367B
:100690003060361D3068A0435E6806F4001606B16F
:1006A00020430B4E0C363060491C1029FFF436AF46
:1006B000F8BD000044380240083801400000024004
:1006C0000004024000080240000C024000100240FA
:1006D000003C014001480068704700000000002015
:1006E00003480068034909780844014908607047D5
:1006F000000000200800002010B50D48006840F4FC
:1007000000700B4908600846006840F4806008608B
:100710000846006840F480700860032000F0A2F8EA
:100720000F2000F007F800F02BF8002010BD0000AB
:10073000003C024070B504460E4800784FF47A71D0
:10074000B1FBF0F00C490968B1FBF0F5284600F068
:100750002BFC08B1012070BD102C07D200222146CD
:10076000501E00F041F80548046001E00120F2E766
:100770000020F0E7080000200C000020040000200A
:1007800008B500BF002000900E48006840F480408B
:100790000C4908600846006800F48040009000BFE3
:1007A00000BF00BF00200090081F006840F080508C
:1007B000091F08600846006800F08050009000BFE4
:1007C00000BF08BD4438024001460846002809DB46
:1007D00000F01F0301229A4043099B0003F1E0232C
:1007E000C3F8002100BF70472DE9F05F80460D4639
:1007F0001646002701F0B2FD074639462A46334621
:1008000001F00700C0F1070ABAF1040F02D94FF056
:10081000040A01E0C0F1070AD14600F1040ABAF166
:10082000070F02D24FF0000A01E0A0F1030AD446FC
:100830004FF0010A0AFA09FAAAF1010A0AEA020AC1
:100840000AFA0CFA4FF0010B0BFA0CFBABF1010B9F
:100850000BEA030B4AEA0B042146404601F086FDF1
:10086000BDE8F09F00BF00F00702064B19684FF685
:10087000FF031940044B0B4343EA0221014B19606B
:1008800000BF70470CED00E00000FA0570B50446AB
:100890000D460CB9012070BD5848006800F00700F3
:1008A000A84209D255490D700846006800F00700BB
:1008B000A84201D00120EEE7207800F002000228D3
:1008C0001DD1207800F00400042805D14C480068B0
:1008D00040F4E0504A490860207800F008000828F9
:1008E00005D14748006840F46040454908604448E5
:1008F000006820F0F000A1680843414908602078B2
:1009000000F00100A8B36068012807D13C4808380E
:100910000068C0F34040B8B90120BCE76068022815
:1009200002D06068032807D1354808380068C0F352
:10093000406048B90120AEE7314808380068C0F38C
:10094000400008B90120A6E72D48006820F0030008
:10095000616808432A490860FFF7BCFE064609E0C3
:10096000FFF7B8FE801B41F28831884202D903208C
:1009700091E707E02248006800F00C006168B0EBE6
:10098000810FEDD11D48006800F00700A84209D989
:100990001A490D700846006800F00700A84201D00F
:1009A000012078E7207800F00400042807D11448DB
:1009B000006820F4E050E16808431149086020789D
:1009C00000F00800082808D10D48006820F46040B5
:1009D000216940EAC1000A49086000F03FF808496F
:1009E0000968C1F30311074A515CC8400649086011
:1009F00006480068FFF79EFE00204CE7003C0240DE
:100A0000083802403E2400080C00002004000020AA
:100A100001480068704700000C00002000B5FFF797
:100A2000F7FF04490968C1F38221034A515CC840B9
:100A300000BD0000083802404E24000800B5FFF752
:100A4000E7FF04490968C1F34231034A515CC840D9
:100A500000BD0000083802404E2400082DE9F04790
:100A6000002400250026A1462548006800F00C005F
:100A700020B1042805D008283AD105E0DFF8849099
:100A800039E0DFF8849036E01D48001F006800F070
:100A90003F041B48001F006800F4800078B11A482A
:100AA0001749091F0968C1F38811A0FB01700146AD
:100AB000224600233846FFF7DDFB05460EE01148CD
:100AC0000F49091F0968C1F38811A0FB0170014695
:100AD000224600233846FFF7CDFB05460848001F95
:100AE0000068C0F30140401C4600B5FBF6F902E087
:100AF000DFF8109000BF00BF4846BDE8F087000057
:100B0000083802400024F40040787D01F8B504461E
:100B10000CB90120F8BD207800F00100002874D045
:100B2000F948006800F00C0004280DD0F648006871
:100B300000F00C00082813D1F348001F006800F4EF
:100B40008000B0F5800F0BD1EF4808380068C0F383
:100B50004040002859D06068002856D10120D9E7CC
:100B600000BF6068B0F5803F08D1E74808380068EA
:100B700040F48030E449083908601EE06068B0F550
:100B8000A02F0DD1E0480838006840F48020DE49ED
:100B9000083908600846006840F4803008600CE0BE
:100BA000D9480838006820F48030D74908390860EF
:100BB0000846006820F48020086000BF606890B19B
:100BC000FFF788FD054606E0FFF784FD401B64281B
:100BD00001D903209EE7CC4808380068C0F34040A4
:100BE0000028F1D011E0FFF775FD054606E0FFF79C
:100BF00071FD401B642801D903208BE7C2480838E7
:100C00000068C0F340400028F1D1207800F00200D5
:100C100002285FD1BC48006800F00C0058B1BA4807
:100C2000006800F00C0008281CD1B748001F0068BD
:100C300000F48000B0B9B44808380068C0F3400040
:100C400020B1E068012801D0012063E7AE480838F0
:100C5000006820F0F800216940EAC100AA4908397B
:100C6000086037E0E06800B30120A8490860FFF79A
:100C700031FD054606E0FFF72DFD401B022801D996
:100C8000032047E7A04808380068C0F34000002868
:100C9000F1D09D480838006820F0F800216940EA4A
:100CA000C10099490839086014E00020974908609C
:100CB000FFF710FD054606E0FFF70CFD401B02287C
:100CC00001D9032026E7904808380068C0F34000A7
:100CD0000028F1D1207800F0080008282CD16069A4
:100CE000A8B101208A490860FFF7F4FC054606E038
:100CF000FFF7F0FC401B022801D903200AE78248D5
:100D00006C300068C0F340000028F1D014E00020EF
:100D10007F490860FFF7DEFC054606E0FFF7DAFCD6
:100D2000401B022801D90320F4E677486C300068A4
:100D3000C0F340000028F1D1207800F0040004281E
:100D400070D1002770483830006800F0805090B9AA
:100D500000BF002000906C483830006840F08050A0
:100D60006949383108600846006800F080500090FA
:100D700000BF00BF01276748006800F48070B0B969
:100D80006448006840F4807062490860FFF7A2FC84
:100D9000054606E0FFF79EFC401B022801D9032010
:100DA000B8E65C48006800F480700028F2D000BF0C
:100DB000A068012808D154486830006840F001005C
:100DC0005149683108601DE0A06805280DD14E48E2
:100DD0006830006840F004004B49683108600846FC
:100DE000006840F0010008600CE047486830006887
:100DF00020F001004449683108600846006820F08E
:100E00000400086000BFA068A8B1FFF763FC0546B6
:100E100009E0FFF75FFC401B41F28831884202D9AC
:100E2000032077E626E0384868300068C0F34000C9
:100E30000028EED013E0FFF74DFC054608E0FFF771
:100E400049FC401B41F28831884201D9032061E608
:100E50002D4868300068C0F340000028EFD1012F12
:100E600007D129483830006820F0805026493831B1
:100E7000086000BFA069002845D02348006800F042
:100E80000C0008285DD0A069022845D100201F4928
:100E90000866FFF71FFC054606E0FFF71BFC401B3A
:100EA000022801D9032035E6174808380068C0F346
:100EB00040600028F1D1D4E907010843616A40EAA3
:100EC00081110122A06AC2EB500041EA00412C20AE
:100ED000005D41EA00600C49091F086001200B49D0
:100EE0000866FFF7F7FB054606E0FFF7F3FB401B3C
:100EF000022801D903200DE6034808380068C0F332
:100F000040600028F1D049E0083802400000474224
:100F1000800E474200700040002021490866FFF71C
:100F2000D9FB054606E0FFF7D5FB401B022801D997
:100F30000320EFE51B480068C0F340600028F2D1B1
:100F40002CE0A069012800D1E4E51648001D0668E0
:100F5000A069012820D006F48001E06981421BD1FC
:100F600006F03F01206A814216D147F6C07030403A
:100F7000616AB0EB811F0FD106F440310122A06AF3
:100F8000C2EB5000B1EB004F06D106F070612C208F
:100F9000005DB1EB006F01D00120BBE50020B9E599
:100FA000000047420038024070B504462546681EDE
:100FB000B0F1807F01D301200FE0681E4FF0E021E7
:100FC00048610F214FF0FF3001F0D0F900204FF0C1
:100FD000E021886107200861002070BD70477047DC
:100FE00030B502460B4600BF92F83C00012801D103
:100FF000022030BD012082F83C0000BF022082F8B0
:101000003D00106844681068816824F07004186816
:10101000044310684460144D1068A84213D010684F
:10102000B0F1804F0FD0114D1068A8420BD0104D79
:101030001068A84207D00F4D1068A84203D00E4D8B
:101040001068A84205D121F080015868014310685A
:101050008160012082F83D0000BF002082F83C0042
:1010600000BF00BFC5E700000000014000040040D1
:1010700000080040000C00400040014010B504464C
:101080000CB9012010BD94F83D0028B9002084F867
:101090003C00204600F026F8022084F83D00211D87
:1010A000206800F00FFE012084F8460000BF84F89D
:1010B0003E0001213F2001554020015541200155AE
:1010C00000BF00BF012084F84200432001554420A6
:1010D00001554520015500BF012084F83D00002046
:1010E000D0E7000038B5044618492068884218D176
:1010F00000BF002000901648006840F0010014492D
:1011000008600846006800F00100009000BF00BFC2
:10111000002211461920FFF767FB1920FFF754FB47
:1011200013E00C49206888420FD100BF00200090D6
:101130000748006840F480200549086008460068B8
:1011400000F48020009000BF00BF38BD00000140C7
:101150004438024000480140014691F83D00012812
:1011600001D001207047022081F83D00164B08682D
:10117000984213D00868B0F1804F0FD0134B086825
:1011800098420BD0124B0868984207D0114B086860
:10119000984203D0104B086898420CD108688068C8
:1011A00000F00702062A0CD00868006840F0010031
:1011B0000B68186005E00868006840F001000B68E3
:1011C00018600020CEE7000000000140000400404D
:1011D00000080040000C004000400140014691F82A
:1011E0003D00012801D001207047022081F83D0018
:1011F0000868C06840F001000B68D860164B0868AA
:10120000984213D00868B0F1804F0FD0134B086894
:1012100098420BD0124B0868984207D0114B0868CF
:10122000984203D0104B086898420CD10868806837
:1012300000F00702062A0CD00868006840F00100A0
:101240000B68186005E00868006840F001000B6852
:1012500018600020C8E700000000014000040040C2
:1012600000080040000C0040004001402DE9F04122
:1012700004460D46002700BF94F83C00012802D127
:101280000220BDE8F081012084F83C0000BF02206C
:1012900084F83D002068866826F0770626F47F46AD
:1012A000206886602868502833D00CDC202850D075
:1012B00004DC00284BD0102851D149E0302849D017
:1012C00040284CD139E060282DD0702807D0B0F5E7
:1012D000805F03D0B0F5005F41D10DE041E0D5E97A
:1012E00002136A68206800F03FFD2068866846F0B7
:1012F00077062068866034E0D5E902136A682068C2
:1013000000F032FD2068806840F4804021688860E9
:1013100027E0EA686968206800F03AFD50212068FB
:1013200000F02DFD1DE0EA686968206800F043FDCB
:101330006021206800F023FD13E0EA6869682068F6
:1013400000F026FD4021206800F019FD09E000BFF3
:1013500000BF00BF2968206800F011FD01E00127EF
:1013600000BF00BF012084F83D0000BF002084F8CA
:101370003C0000BF384684E7704710B5044620683B
:101380000069C0F34000D8B12068C068C0F34000D5
:10139000B0B16FF002002168086101202077206859
:1013A000806900F0030018B12046FFF7E5FF05E073
:1013B000204600F0ADF8204600F0ABF80020207782
:1013C00020680069C0F38000D8B12068C068C0F30D
:1013D0008000B0B16FF0040021680861022020771E
:1013E0002068806900F4407018B12046FFF7C4FF00
:1013F00005E0204600F08CF8204600F08AF8002036
:10140000207720680069C0F3C000D8B12068C068A8
:10141000C0F3C000B0B16FF008002168086104207B
:1014200020772068C06900F0030018B12046FFF75C
:10143000A3FF05E0204600F06BF8204600F069F8B5
:101440000020207720680069C0F30010D8B1206820
:10145000C068C0F30010B0B16FF0100021680861DF
:10146000082020772068C06900F4407018B1204639
:10147000FFF782FF05E0204600F04AF8204600F022
:1014800048F8002020772068006900F0010058B17A
:101490002068C06800F0010030B16FF001002168E1
:1014A0000861204600F036F820680069C0F3C010DB
:1014B00058B12068C068C0F3C01030B16FF0800030
:1014C000216808612046FFF789FD20680069C0F3A4
:1014D000801058B12068C068C0F3801030B16FF040
:1014E000400021680861204600F038F82068006953
:1014F000C0F3401058B12068C068C0F3401030B14C
:101500006FF02000216808612046FFF768FD10BDDC
:101510007047704710B504460E48844219D10E48F2
:101520000088401C0C490880084600884FF47A71F6
:1015300090FBF1F201FB1200074908800846008881
:101540000A2190FBF1F201FB1200012801D100F009
:101550004BFF10BD1800002010000020704770479E
:10156000704700002DE9F84F0446206805682068A0
:10157000C668206847694FF00009CA4605F00F09A0
:10158000B9F1000F0AD105F0200038B106F02000B3
:1015900020B1204600F0A8FCBDE8F88FB9F1000F9B
:1015A0007CD007F0010018B906F49070002875D0BF
:1015B00005F0010030B106F4807018B1206C40F0E5
:1015C0000100206405F0040030B107F0010018B1FB
:1015D000206C40F00200206405F0020030B107F0FA
:1015E000010018B1206C40F00400206405F00800F0
:1015F00048B106F0200010B907F0010018B1206CC6
:1016000040F008002064206C002846D005F020003F
:1016100028B106F0200010B1204600F065FC2068DB
:101620004069C0F3801A206C00F0080010B9BAF1CC
:10163000000F2DD0204600F0DCFB2068406900F050
:101640004000402820D100BF00BF2168143151E87C
:10165000001F21F040002168143141E80002002AF7
:10166000F3D100BFA06B50B17548A16B0865A06BAA
:10167000FEF737FF88B1A06B016D88470DE020466B
:10168000FFF76EFF09E009E02046FFF769FF04E07D
:101690002046FFF765FF002020647DE7206B0128CE
:1016A00076D105F01000002872D006F01000002856
:1016B000FAD000BF002000902068006800902068E9
:1016C0004068009000BF00BF2068406900F0400003
:1016D00040285ED1A06B006840681FFA80F8B8F11E
:1016E000000F54D0A08D404551DDA4F82E80A06B92
:1016F000C069B0F5807F43D000BF00BF21680C31C6
:1017000051E8001F21F4807021680C3141E800028B
:10171000002AF3D100BF00BF00BF2168143151E897
:10172000001F21F001002168143141E80002002A65
:10173000F3D100BF00BF00BF2168143151E8001F82
:1017400021F040002168143141E80002002AF3D161
:1017500000BF202084F83E000020206300BF00BFAF
:1017600021680C3151E8001F21F0100021680C3174
:1017700041E80002002AF3D100BFA06BFEF75BFE38
:10178000A08DE28D801A81B22046FFF7E8FE03E7C4
:1017900040E0A08DE18D401A1FFA80F8E08DC0B3C3
:1017A000B8F1000F35D000BF00BF21680C3151E8FF
:1017B000001F21F4907021680C3141E80002002ADA
:1017C000F3D100BF00BF00BF2168143151E8001FF2
:1017D00021F001002168143141E80002002AF3D110
:1017E00000BF202084F83E000020206300BF00BF1F
:1017F00021680C3151E8001F21F0100021680C31E4
:1018000041E80002002AF3D100BF41462046FFF71D
:10181000A6FEC1E605F0800030B106F0800018B1E8
:10182000204600F016FDB7E605F0400030B106F0A6
:10183000400018B1204600F012FBADE600BFABE659
:10184000DF1D000810B504460CB9012010BDA069C9
:1018500000B100E000BF94F83D0028B9002084F8F2
:101860003C00204600F028F8242084F83D00206841
:10187000C06820F400502168C860204600F0B0FB2A
:101880002068006920F49040216808612068406960
:1018900020F02A00216848612068C06840F40050A8
:1018A0002168C86000202064202084F83D0084F86E
:1018B0003E000020CAE7000010B586B0044614219F
:1018C00001A8FEF74EFD1F492068884238D100BFAD
:1018D000002000901C48006840F010001A49086081
:1018E0000846006800F01000009000BF00BF00BF75
:1018F0000020009014481438006840F0010012499C
:10190000143908600846006800F00100009000BF2C
:1019100000BF4FF4C06001900220029000200390AD
:10192000032004900720059001A90848FEF7EEFD6A
:10193000002211462520FEF757FF2520FEF744FF21
:1019400006B010BD001001404438024000000240C3
:1019500070B504460D46164694F83E00202816D170
:1019600005B10EB9012070BD00BF94F83C000128FC
:1019700001D10220F7E7012084F83C0000BF0020DD
:10198000206332462946204600F040FCEBE7022067
:10199000E9E7000010B504460C48844215D10C4814
:1019A00000780C490C4A127888540B480078401C87
:1019B00009490870084600780B2801D100200870FA
:1019C000012203490148FFF7C3FF10BDA800002012
:1019D00012000020EC000020130000202DE9F84F39
:1019E00004460E46174699464FF0000A94F83D000B
:1019F00020285AD106B117B90120BDE8F88F00BFE1
:101A000094F83C00012801D10220F6E7012084F877
:101A10003C0000BF00202064212084F83D00FEF738
:101A200059FE8246A784E784A068B0F5805F04D1A0
:101A3000206910B90025B04602E035464FF0000895
:101A400000BF002084F83C0000BF1BE0534600228A
:101A500080212046CDF8009000F02BFC08B1032037
:101A6000CBE745B9B8F80000C0F30800216848602A
:101A700008F1020803E02878216848606D1CE08CBA
:101A8000401EE084E08C0028E0D153460022402133
:101A90002046CDF8009000F00CFC08B10320ACE724
:101AA000202084F83D000020A7E70220A5E770472A
:101AB00000BFFEE708B500BF002000900E48006898
:101AC00040F080000C4908600846006800F0800083
:101AD000009000BF00BF00BF0020009008460068D3
:101AE00040F0010008600846006800F00100009026
:101AF00000BF00BF08BD00003038024010B50A48E2
:101B00000A4908604A2048600021084881604FF671
:101B1000FE71C160002101618161FFF7AFFA08B178
:101B2000FEF786FC10BD0000004801406000002068
:101B300000B587B0002003900490059006900190B6
:101B400002901548154908604A2048600021134852
:101B5000816040F2E731C160002101614161816132
:101B6000FFF78CFA08B1FEF763FC4FF48050039046
:101B700003A90A48FFF77AFB08B1FEF759FC0020D9
:101B80000190029001A90548FFF72AFA08B1FEF773
:101B90004FFC07B000BD000000000140180000200D
:101BA00010B50B480B4908604FF4E1304860002144
:101BB00008488160C16001610C214161002181619F
:101BC000C161FFF73FFE08B1FEF732FC10BD000017
:101BD00000100140A800002000BFFEE700BFFEE7A4
:101BE0007047704710B5FEF77BFD10BD00B593B090
:101BF000302107A8FEF7B5FB142102A8FEF7B1FBC0
:101C000000BF002001902448006840F08050224925
:101C100008600846006800F08050019000BF00BFD7
:101C200000BF002001901D48006820F4404040F4AF
:101C300000401A4908600846006800F440400190DE
:101C400000BF00BF012007900004089002200D9003
:101C500041050E9110210F91C02110910421119185
:101C6000129107A8FEF752FF08B1FEF7E1FB0F2023
:101C7000029002200390002004904FF480500590C1
:101C800000200690022102A8FEF700FE08B1FEF730
:101C9000CFFB13B000BD0000403802400070004090
:101CA0000348006840F47000014908607047000074
:101CB00088ED00E010B50248FFF75FFB10BD0000A3
:101CC0001800002010B50268204B98420BD0B0F1EC
:101CD000804F08D01E4B984205D01E4B984202D030
:101CE0001D4B984203D122F070024B681A43174BE8
:101CF000984214D0B0F1804F11D0154B98420ED0BD
:101D0000144B98420BD0144B984208D0134B984276
:101D100005D0134B984202D0124B984203D122F4C3
:101D20004072CB681A4322F080034C6943EA0402F4
:101D300002608B68C3620B688362044B984201D1D6
:101D40000B6903630123436110BD000000000140E3
:101D50000004004000080040000C0040004001402A
:101D6000004401400048014030B50C46816821F430
:101D70007F4142EA032525432943816030BD0A465D
:101D8000816821F0700142F00703194381607047B8
:101D900030B50B461446026A056A25F00105056256
:101DA000816921F0F00141EA041122F00A021A438C
:101DB0008161026230BD30B50B461446056A25F0DC
:101DC000100505628169026A21F4704141EA04311B
:101DD00022F0A00242EA03128161026230BD70B5B6
:101DE0000546AC6B0020E085E0842046FFF7B8FB99
:101DF00070BD00BF00BF02680C3252E8002F22F411
:101E0000907102680C3242E80013002BF3D100BF3E
:101E100000BF00BF0268143252E8002F22F0010117
:101E20000268143242E80013002BF3D100BF016BAB
:101E300001290ED100BF00BF02680C3252E8002F0A
:101E400022F0100102680C3242E80013002BF3D19B
:101E500000BF202180F83E1000210163704710B5BB
:101E600004462068C06820F040002168C860202037
:101E700084F83D002046FFF71AFE002010BD000048
:101E800008B501461448814225D100680068C0F3B6
:101E9000001000B300BF002000900F4800680068E9
:101EA00000900D4800684068009000BF00BF0B48DC
:101EB000407A0A4A127A40EA0220094A1080002039
:101EC000084A107000BF04E00022044B1A54421C60
:101ED000D0B20B28F8DB08BDA8000020EC000020E1
:101EE0001400002013000020F8B5044694F83E00CA
:101EF000222873D1A068B0F5805F0CD1206950B959
:101F00000025A66A20684068C0F308003080A06AF7
:101F1000801CA06215E0A56A0026A068B0F5805F6D
:101F200003D0A06828B9206918B9206840682870D3
:101F300004E02068406800F07F002870A06A401C20
:101F4000A062E08D401E80B2E085002844D1206868
:101F5000C06820F020002168C8602068C06820F4B4
:101F600080702168C8602068406920F00100216805
:101F70004861202084F83E00206B012826D10020F3
:101F8000206300BF00BF21680C3151E8001F21F021
:101F9000100021680C3141E80002002AF3D100BF93
:101FA0002068006800F0100010280AD100BF00204F
:101FB000009020680068009020684068009000BF92
:101FC00000BFA18D2046FFF7CAFA02E02046FFF7C6
:101FD000E1FC0020F8BD01E00020FBE70220F9E76A
:101FE0002DE9F84F04462068006920F44050E1686C
:101FF0000843216808612169A068084361690843B2
:10200000E169084300902068C06849F20C61884388
:10201000009908432168C8602068406920F4407036
:10202000A16908432168486176492068884203D045
:1020300075492068884203D1FEF700FD814602E021
:10204000FEF7ECFC8146E069B0F5004F6CD1022050
:102050006168A0FB015003461920A9FB00700146EE
:102060002A463846FEF706F96421B0FBF1F04FEA44
:10207000001A02206168A0FB01510B461920A9FB40
:1020800000712A463846FEF7F5F88346022061685B
:10209000A0FB015003461920A9FB00712A463846CF
:1020A000FEF7E8F86421B0FBF1F000EBC00101EBB2
:1020B0000010ABEB8000322101EBC0006421B0FBCB
:1020C000F1F000F0F8000AEB400A02206168A0FB82
:1020D000015003461920A9FB007001462A463846E4
:1020E000FEF7C8F8834602206168A0FB0150034652
:1020F0001920A9FB00712A463846FEF7BBF8642177
:10210000B0FBF1F000EBC00101EB0010ABEB800085
:10211000322101EBC0006421B0FBF1F000F00700B8
:102120005044216888606AE004206168A0FB015087
:1021300003461920A9FB007001462A463846FEF7DF
:1021400099F8824604206168A0FB015003461920DB
:10215000A9FB007001462A463846FEF78BF8642139
:10216000B0FBF1F000EBC00101EB0010AAEB800026
:10217000322101EB00106421B0FBF1F000F0F00A15
:1021800004206168A0FB017003461920A9FB0051DF
:102190003A462846FEF76EF86421B0FBF1F00AEBF0
:1021A000001A04206168A0FB01510B461920A9FB0D
:1021B00000712A463846FEF75DF8834604206168C0
:1021C000A0FB015003461920A9FB007001462A46D6
:1021D0003846FEF74FF86421B0FBF1F000EBC00188
:1021E00001EB0010ABEB8000322101EB0010642109
:1021F000B0FBF1F000F00F00504421688860BDE8AA
:10220000F88F0000001001400014014010B5034693
:1022100099629A85DA8500201864222083F83E00AE
:1022200000BF002083F83C0000BF1868C06840F47D
:1022300080701C68E0601868406940F001001C680C
:1022400060611868C06840F020001C68E0600020F1
:1022500010BD014691F83D00212828D18868B0F5CD
:10226000805F0BD1086948B90A6A1088C0F308007A
:102270000B685860086A801C086205E00B6A581CED
:10228000086218780B685860C88C401E80B2C884F9
:1022900058B90868C06820F080000B68D8600868EA
:1022A000C06840F040000B68D860002070470220F2
:1022B000FCE72DE9F04104460D4617469846069E78
:1022C00034E0701C88B32EB1FEF704FAA0EB0800CE
:1022D000B0422BD900BF00BF21680C3151E8001F6C
:1022E00021F4D07021680C3141E80002002AF3D1BA
:1022F00000BF00BF00BF2168143151E8001F21F06A
:1023000001002168143141E80002002AF3D100BF26
:10231000202084F83D0084F83E0000BF002084F8AF
:102320003C0000BF0320BDE8F081FFE720680068A3
:102330002840A84201D1012000E00020B842C0D0CE
:102340000020F0E710B50348FFF70CF90148FFF74C
:1023500097FD10BDA800002000BFFEE702480068FE
:10236000C0F30220704700000CED00E010B500281B
:1023700004DB0A07130E054A135406E00A07140E7D
:10238000034A00F00F031B1FD45410BD00E400E00B
:1023900018ED00E0FEF7B0F9FFF728FCFFF78AFB25
:1023A000FFF7ACFBFFF7C4FBFFF7FAFB0A48FEF7A9
:1023B00015FF0A48FEF7D0FE012209490948FFF738
:1023C000C7FA08480068C06840F01000054909686D
:1023D000C86000BFFEE70000180000206000002079
:1023E00012000020A80000200EB551208DF800003A
:1023F0000B208DF8010000208DF8020001208DF8DF
:10240000030000208DF8040005208DF8050002204F
:102410008DF8060000208DF8070064208DF8080074
:1024200040F6FF73092269460148FFF7D7FA0EBD4F
:10243000A80000204FF04070E1EE100A7047000045
:102440000000000000000102030406070809000064
:1024500000000102030400007824000800000020AE
:1024600018000000D0010008902400081800002087
:1024700040070000EC010008000000001000000010
:10248000010000000024F400000000000000000033
:040000050800019559
:00000001FF
